{
  "address": "0x1c0AC69eD735eC34D842fbc3E34B991E6d21965f",
  "abi": [
    {
      "inputs": [
        {
          "internalType": "address",
          "name": "metricTokenAddress",
          "type": "address"
        }
      ],
      "stateMutability": "nonpayable",
      "type": "constructor"
    },
    {
      "inputs": [],
      "name": "DuplicateAddress",
      "type": "error"
    },
    {
      "inputs": [],
      "name": "NoClaimableRewardsToWithdraw",
      "type": "error"
    },
    {
      "inputs": [],
      "name": "NoMetricToWithdraw",
      "type": "error"
    },
    {
      "inputs": [],
      "name": "RewardsAreNotActive",
      "type": "error"
    },
    {
      "anonymous": false,
      "inputs": [
        {
          "indexed": false,
          "internalType": "address",
          "name": "harvester",
          "type": "address"
        },
        {
          "components": [
            {
              "internalType": "uint256",
              "name": "shares",
              "type": "uint256"
            },
            {
              "internalType": "uint256",
              "name": "rewardDebt",
              "type": "uint256"
            },
            {
              "internalType": "uint256",
              "name": "claimable",
              "type": "uint256"
            },
            {
              "internalType": "uint256",
              "name": "startDate",
              "type": "uint256"
            }
          ],
          "indexed": false,
          "internalType": "struct StakingChef.Staker",
          "name": "",
          "type": "tuple"
        },
        {
          "indexed": false,
          "internalType": "uint256",
          "name": "amount",
          "type": "uint256"
        }
      ],
      "name": "Claim",
      "type": "event"
    },
    {
      "anonymous": false,
      "inputs": [
        {
          "indexed": false,
          "internalType": "address",
          "name": "harvester",
          "type": "address"
        },
        {
          "indexed": false,
          "internalType": "uint256",
          "name": "agIndex",
          "type": "uint256"
        },
        {
          "indexed": false,
          "internalType": "uint256",
          "name": "amount",
          "type": "uint256"
        }
      ],
      "name": "Harvest",
      "type": "event"
    },
    {
      "anonymous": false,
      "inputs": [
        {
          "indexed": true,
          "internalType": "address",
          "name": "previousOwner",
          "type": "address"
        },
        {
          "indexed": true,
          "internalType": "address",
          "name": "newOwner",
          "type": "address"
        }
      ],
      "name": "OwnershipTransferred",
      "type": "event"
    },
    {
      "anonymous": false,
      "inputs": [
        {
          "indexed": false,
          "internalType": "address",
          "name": "withdrawer",
          "type": "address"
        },
        {
          "components": [
            {
              "internalType": "uint256",
              "name": "shares",
              "type": "uint256"
            },
            {
              "internalType": "uint256",
              "name": "rewardDebt",
              "type": "uint256"
            },
            {
              "internalType": "uint256",
              "name": "claimable",
              "type": "uint256"
            },
            {
              "internalType": "uint256",
              "name": "startDate",
              "type": "uint256"
            }
          ],
          "indexed": false,
          "internalType": "struct StakingChef.Staker",
          "name": "",
          "type": "tuple"
        },
        {
          "indexed": false,
          "internalType": "uint256",
          "name": "amount",
          "type": "uint256"
        }
      ],
      "name": "UnStake",
      "type": "event"
    },
    {
      "anonymous": false,
      "inputs": [
        {
          "indexed": false,
          "internalType": "address",
          "name": "withdrawer",
          "type": "address"
        },
        {
          "indexed": false,
          "internalType": "uint256",
          "name": "agIndex",
          "type": "uint256"
        },
        {
          "indexed": false,
          "internalType": "uint256",
          "name": "amount",
          "type": "uint256"
        }
      ],
      "name": "Withdraw",
      "type": "event"
    },
    {
      "inputs": [],
      "name": "ACC_METRIC_PRECISION",
      "outputs": [
        {
          "internalType": "uint256",
          "name": "",
          "type": "uint256"
        }
      ],
      "stateMutability": "view",
      "type": "function"
    },
    {
      "inputs": [
        {
          "internalType": "uint256",
          "name": "accumulatedWithPrecision",
          "type": "uint256"
        }
      ],
      "name": "accumulatedMetricDividedByShares",
      "outputs": [
        {
          "internalType": "uint256",
          "name": "",
          "type": "uint256"
        }
      ],
      "stateMutability": "view",
      "type": "function"
    },
    {
      "inputs": [
        {
          "internalType": "address",
          "name": "",
          "type": "address"
        }
      ],
      "name": "addressExistence",
      "outputs": [
        {
          "internalType": "bool",
          "name": "",
          "type": "bool"
        }
      ],
      "stateMutability": "view",
      "type": "function"
    },
    {
      "inputs": [],
      "name": "areRewardsActive",
      "outputs": [
        {
          "internalType": "bool",
          "name": "",
          "type": "bool"
        }
      ],
      "stateMutability": "view",
      "type": "function"
    },
    {
      "inputs": [],
      "name": "claim",
      "outputs": [],
      "stateMutability": "nonpayable",
      "type": "function"
    },
    {
      "inputs": [],
      "name": "getLastRewardBlock",
      "outputs": [
        {
          "internalType": "uint256",
          "name": "",
          "type": "uint256"
        }
      ],
      "stateMutability": "view",
      "type": "function"
    },
    {
      "inputs": [],
      "name": "getLifeTimeShareValueEstimate",
      "outputs": [
        {
          "internalType": "uint256",
          "name": "",
          "type": "uint256"
        }
      ],
      "stateMutability": "view",
      "type": "function"
    },
    {
      "inputs": [],
      "name": "getMetricPerBlock",
      "outputs": [
        {
          "internalType": "uint256",
          "name": "",
          "type": "uint256"
        }
      ],
      "stateMutability": "view",
      "type": "function"
    },
    {
      "inputs": [],
      "name": "getMetricToken",
      "outputs": [
        {
          "internalType": "contract MetricToken",
          "name": "",
          "type": "address"
        }
      ],
      "stateMutability": "view",
      "type": "function"
    },
    {
      "inputs": [],
      "name": "getStake",
      "outputs": [
        {
          "components": [
            {
              "internalType": "uint256",
              "name": "shares",
              "type": "uint256"
            },
            {
              "internalType": "uint256",
              "name": "rewardDebt",
              "type": "uint256"
            },
            {
              "internalType": "uint256",
              "name": "claimable",
              "type": "uint256"
            },
            {
              "internalType": "uint256",
              "name": "startDate",
              "type": "uint256"
            }
          ],
          "internalType": "struct StakingChef.Staker",
          "name": "",
          "type": "tuple"
        }
      ],
      "stateMutability": "view",
      "type": "function"
    },
    {
      "inputs": [],
      "name": "getTotalAllocationShares",
      "outputs": [
        {
          "internalType": "uint256",
          "name": "",
          "type": "uint256"
        }
      ],
      "stateMutability": "view",
      "type": "function"
    },
    {
      "inputs": [],
      "name": "owner",
      "outputs": [
        {
          "internalType": "address",
          "name": "",
          "type": "address"
        }
      ],
      "stateMutability": "view",
      "type": "function"
    },
    {
      "inputs": [],
      "name": "renounceOwnership",
      "outputs": [],
      "stateMutability": "nonpayable",
      "type": "function"
    },
    {
      "inputs": [],
      "name": "setLifetimeShareValue",
      "outputs": [],
      "stateMutability": "nonpayable",
      "type": "function"
    },
    {
      "inputs": [
        {
          "internalType": "uint256",
          "name": "metricAmount",
          "type": "uint256"
        }
      ],
      "name": "setMetricPerBlock",
      "outputs": [],
      "stateMutability": "nonpayable",
      "type": "function"
    },
    {
      "inputs": [
        {
          "internalType": "address",
          "name": "metricTokenAddress",
          "type": "address"
        }
      ],
      "name": "setMetricToken",
      "outputs": [],
      "stateMutability": "nonpayable",
      "type": "function"
    },
    {
      "inputs": [
        {
          "internalType": "uint256",
          "name": "metricAmount",
          "type": "uint256"
        }
      ],
      "name": "stakeMetric",
      "outputs": [],
      "stateMutability": "nonpayable",
      "type": "function"
    },
    {
      "inputs": [
        {
          "internalType": "address",
          "name": "",
          "type": "address"
        }
      ],
      "name": "staker",
      "outputs": [
        {
          "internalType": "uint256",
          "name": "shares",
          "type": "uint256"
        },
        {
          "internalType": "uint256",
          "name": "rewardDebt",
          "type": "uint256"
        },
        {
          "internalType": "uint256",
          "name": "claimable",
          "type": "uint256"
        },
        {
          "internalType": "uint256",
          "name": "startDate",
          "type": "uint256"
        }
      ],
      "stateMutability": "view",
      "type": "function"
    },
    {
      "inputs": [
        {
          "internalType": "bool",
          "name": "isOn",
          "type": "bool"
        }
      ],
      "name": "toggleRewards",
      "outputs": [],
      "stateMutability": "nonpayable",
      "type": "function"
    },
    {
      "inputs": [
        {
          "internalType": "address",
          "name": "newOwner",
          "type": "address"
        }
      ],
      "name": "transferOwnership",
      "outputs": [],
      "stateMutability": "nonpayable",
      "type": "function"
    },
    {
      "inputs": [],
      "name": "unStakeMetric",
      "outputs": [],
      "stateMutability": "nonpayable",
      "type": "function"
    },
    {
      "inputs": [],
      "name": "updateAccumulatedStakingRewards",
      "outputs": [],
      "stateMutability": "nonpayable",
      "type": "function"
    },
    {
      "inputs": [],
      "name": "viewPendingClaims",
      "outputs": [
        {
          "internalType": "uint256",
          "name": "",
          "type": "uint256"
        }
      ],
      "stateMutability": "view",
      "type": "function"
    },
    {
      "inputs": [],
      "name": "viewPendingHarvest",
      "outputs": [
        {
          "internalType": "uint256",
          "name": "",
          "type": "uint256"
        }
      ],
      "stateMutability": "view",
      "type": "function"
    }
  ],
  "transactionHash": "0x7fb07d96ab098937ea10cb917f0bd5cb9421a34df4bd758bd834fb4a8fd0c15c",
  "args": [
    "0x683BA8D87082ea1D09E18C4cA93B14dc17645051"
  ],
  "numDeployments": 1,
  "solcInputHash": "dd1ea32d5c9daca7fd078bba8a685995",
  "bytecode": "0x60806040523480156200001157600080fd5b50604051620023bb380380620023bb83398181016040528101906200003791906200043a565b620000576200004b6200009360201b60201c565b6200009b60201b60201c565b62000068816200015f60201b60201c565b6200007a60046200023260201b60201c565b6200008c6000620002e060201b60201c565b5062000589565b600033905090565b60008060009054906101000a900473ffffffffffffffffffffffffffffffffffffffff169050816000806101000a81548173ffffffffffffffffffffffffffffffffffffffff021916908373ffffffffffffffffffffffffffffffffffffffff1602179055508173ffffffffffffffffffffffffffffffffffffffff168173ffffffffffffffffffffffffffffffffffffffff167f8be0079c531659141344cd1fd0a4f28419497f9722a3daafe3b4186f6b6457e060405160405180910390a35050565b6200016f6200009360201b60201c565b73ffffffffffffffffffffffffffffffffffffffff16620001956200039d60201b60201c565b73ffffffffffffffffffffffffffffffffffffffff1614620001ee576040517f08c379a0000000000000000000000000000000000000000000000000000000008152600401620001e590620004cd565b60405180910390fd5b80600660006101000a81548173ffffffffffffffffffffffffffffffffffffffff021916908373ffffffffffffffffffffffffffffffffffffffff16021790555050565b620002426200009360201b60201c565b73ffffffffffffffffffffffffffffffffffffffff16620002686200039d60201b60201c565b73ffffffffffffffffffffffffffffffffffffffff1614620002c1576040517f08c379a0000000000000000000000000000000000000000000000000000000008152600401620002b890620004cd565b60405180910390fd5b670de0b6b3a764000081620002d7919062000528565b60018190555050565b620002f06200009360201b60201c565b73ffffffffffffffffffffffffffffffffffffffff16620003166200039d60201b60201c565b73ffffffffffffffffffffffffffffffffffffffff16146200036f576040517f08c379a00000000000000000000000000000000000000000000000000000000081526004016200036690620004cd565b60405180910390fd5b80600260006101000a81548160ff0219169083151502179055506200039a43620003c660201b60201c565b50565b60008060009054906101000a900473ffffffffffffffffffffffffffffffffffffffff16905090565b8060038190555050565b600080fd5b600073ffffffffffffffffffffffffffffffffffffffff82169050919050565b60006200040282620003d5565b9050919050565b6200041481620003f5565b81146200042057600080fd5b50565b600081519050620004348162000409565b92915050565b600060208284031215620004535762000452620003d0565b5b6000620004638482850162000423565b91505092915050565b600082825260208201905092915050565b7f4f776e61626c653a2063616c6c6572206973206e6f7420746865206f776e6572600082015250565b6000620004b56020836200046c565b9150620004c2826200047d565b602082019050919050565b60006020820190508181036000830152620004e881620004a6565b9050919050565b6000819050919050565b7f4e487b7100000000000000000000000000000000000000000000000000000000600052601160045260246000fd5b60006200053582620004ef565b91506200054283620004ef565b9250817fffffffffffffffffffffffffffffffffffffffffffffffffffffffffffffffff04831182151516156200057e576200057d620004f9565b5b828202905092915050565b611e2280620005996000396000f3fe608060405234801561001057600080fd5b50600436106101585760003560e01c80638c19ec8b116100c3578063c5d836d91161007c578063c5d836d91461035a578063d944cb7a14610378578063e2eb5c4714610396578063f2fde38b146103a0578063f33c9baa146103bc578063fc0e3d90146103da57610158565b80638c19ec8b146102ac5780638da5cb5b146102c8578063945c5287146102e6578063a8e2a38b14610302578063bf62bee614610320578063c284b8bc1461033e57610158565b80634e71d92d116101155780634e71d92d1461021f5780635e175713146102295780635f9b1bb5146102475780636ac49a8914610251578063715018a61461026f57806382e4eda41461027957610158565b80630419ba051461015d5780631cd8f0fa1461017b5780631e718d271461019757806322abbddf146101c757806349ba013b146101f75780634be6811714610215575b600080fd5b6101656103f8565b604051610172919061144a565b60405180910390f35b61019560048036038101906101909190611496565b61043a565b005b6101b160048036038101906101ac9190611496565b6104d3565b6040516101be919061144a565b60405180910390f35b6101e160048036038101906101dc9190611521565b6104ef565b6040516101ee9190611569565b60405180910390f35b6101ff61050f565b60405161020c919061144a565b60405180910390f35b61021d61055e565b005b6102276105bf565b005b6102316106af565b60405161023e919061144a565b60405180910390f35b61024f6106b9565b005b6102596106f2565b604051610266919061144a565b60405180910390f35b6102776106fb565b005b610293600480360381019061028e9190611521565b610783565b6040516102a39493929190611584565b60405180910390f35b6102c660048036038101906102c191906115f5565b6107b3565b005b6102d0610855565b6040516102dd9190611631565b60405180910390f35b61030060048036038101906102fb9190611521565b61087e565b005b61030a61093e565b60405161031791906116ab565b60405180910390f35b610328610968565b604051610335919061144a565b60405180910390f35b61035860048036038101906103539190611496565b610972565b005b610362610acd565b60405161036f919061144a565b60405180910390f35b610380610ad7565b60405161038d919061144a565b60405180910390f35b61039e610b57565b005b6103ba60048036038101906103b59190611521565b610c9d565b005b6103c4610d94565b6040516103d19190611569565b60405180910390f35b6103e2610dab565b6040516103ef919061172a565b60405180910390f35b600080610403610e30565b9050600061041082610e61565b9050600061041c610e7b565b9050610427826104d3565b816104329190611774565b935050505090565b610442610e85565b73ffffffffffffffffffffffffffffffffffffffff16610460610855565b73ffffffffffffffffffffffffffffffffffffffff16146104b6576040517f08c379a00000000000000000000000000000000000000000000000000000000081526004016104ad90611827565b60405180910390fd5b670de0b6b3a7640000816104ca9190611847565b60018190555050565b60006104dd6106af565b826104e891906118d0565b9050919050565b60076020528060005260406000206000915054906101000a900460ff1681565b600080600860003373ffffffffffffffffffffffffffffffffffffffff1673ffffffffffffffffffffffffffffffffffffffff1681526020019081526020016000209050806002015491505090565b610566610d94565b61059c576040517fa550df7300000000000000000000000000000000000000000000000000000000815260040160405180910390fd5b6105a4610968565b4311156105bd576105b36106b9565b6105bc43610e8d565b5b565b60006105c9610ad7565b03610600576040517fd1d47f3c00000000000000000000000000000000000000000000000000000000815260040160405180910390fd5b6000600860003373ffffffffffffffffffffffffffffffffffffffff1673ffffffffffffffffffffffffffffffffffffffff168152602001908152602001600020905061064b610e97565b6000816002015490506000826002018190555061067061066961093e565b3383610f8b565b7f822e01c025b1cd3ec96ecdebfee61e49dbcdd29762ad69de9c20bb2b0f16a5723383836040516106a3939291906119b5565b60405180910390a15050565b6000600554905090565b60006106c3610e30565b905060006106d082610e61565b90506106db816104d3565b6004546106e89190611774565b6004819055505050565b64e8d4a5100081565b610703610e85565b73ffffffffffffffffffffffffffffffffffffffff16610721610855565b73ffffffffffffffffffffffffffffffffffffffff1614610777576040517f08c379a000000000000000000000000000000000000000000000000000000000815260040161076e90611827565b60405180910390fd5b6107816000611011565b565b60086020528060005260406000206000915090508060000154908060010154908060020154908060030154905084565b6107bb610e85565b73ffffffffffffffffffffffffffffffffffffffff166107d9610855565b73ffffffffffffffffffffffffffffffffffffffff161461082f576040517f08c379a000000000000000000000000000000000000000000000000000000000815260040161082690611827565b60405180910390fd5b80600260006101000a81548160ff02191690831515021790555061085243610e8d565b50565b60008060009054906101000a900473ffffffffffffffffffffffffffffffffffffffff16905090565b610886610e85565b73ffffffffffffffffffffffffffffffffffffffff166108a4610855565b73ffffffffffffffffffffffffffffffffffffffff16146108fa576040517f08c379a00000000000000000000000000000000000000000000000000000000081526004016108f190611827565b60405180910390fd5b80600660006101000a81548173ffffffffffffffffffffffffffffffffffffffff021916908373ffffffffffffffffffffffffffffffffffffffff16021790555050565b6000600660009054906101000a900473ffffffffffffffffffffffffffffffffffffffff16905090565b6000600354905090565b6000600860003373ffffffffffffffffffffffffffffffffffffffff1673ffffffffffffffffffffffffffffffffffffffff16815260200190815260200160002090506109bd610d94565b80156109d0575060006109ce6106af565b115b156109de576109dd61055e565b5b60405180608001604052808383600001546109f99190611774565b815260200164e8d4a51000610a0c610e7b565b85610a179190611847565b610a2191906118d0565b8360010154610a309190611774565b81526020018260020154815260200142815250600860003373ffffffffffffffffffffffffffffffffffffffff1673ffffffffffffffffffffffffffffffffffffffff16815260200190815260200160002060008201518160000155602082015181600101556040820151816002015560608201518160030155905050610ab6826110d5565b610ac9610ac161093e565b3330856110ec565b5050565b6000600154905090565b600080600860003373ffffffffffffffffffffffffffffffffffffffff1673ffffffffffffffffffffffffffffffffffffffff1681526020019081526020016000209050806001015464e8d4a51000610b2e610e7b565b8360000154610b3d9190611847565b610b4791906118d0565b610b5191906119ec565b91505090565b6000600860003373ffffffffffffffffffffffffffffffffffffffff1673ffffffffffffffffffffffffffffffffffffffff16815260200190815260200160002090506000816000015403610bd8576040517f4b0aa74e00000000000000000000000000000000000000000000000000000000815260040160405180910390fd5b610be0610d94565b15610bee57610bed61055e565b5b600081600001549050610c42600860003373ffffffffffffffffffffffffffffffffffffffff1673ffffffffffffffffffffffffffffffffffffffff16815260200190815260200160002060000154611175565b60008260000181905550610c5e610c5761093e565b3383610f8b565b7f4922b0708c82a8389a5529e4d07c03dd67c4efb52f6a9706d406f987c21f976e338383604051610c91939291906119b5565b60405180910390a15050565b610ca5610e85565b73ffffffffffffffffffffffffffffffffffffffff16610cc3610855565b73ffffffffffffffffffffffffffffffffffffffff1614610d19576040517f08c379a0000000000000000000000000000000000000000000000000000000008152600401610d1090611827565b60405180910390fd5b600073ffffffffffffffffffffffffffffffffffffffff168173ffffffffffffffffffffffffffffffffffffffff1603610d88576040517f08c379a0000000000000000000000000000000000000000000000000000000008152600401610d7f90611a92565b60405180910390fd5b610d9181611011565b50565b6000600260009054906101000a900460ff16905090565b610db3611409565b6000600860003373ffffffffffffffffffffffffffffffffffffffff1673ffffffffffffffffffffffffffffffffffffffff16815260200190815260200160002090508060405180608001604052908160008201548152602001600182015481526020016002820154815260200160038201548152505091505090565b600080610e3b610968565b43610e4691906119ec565b9050610e50610acd565b81610e5b9190611847565b91505090565b600064e8d4a5100082610e749190611847565b9050919050565b6000600454905090565b600033905090565b8060038190555050565b6000600860003373ffffffffffffffffffffffffffffffffffffffff1673ffffffffffffffffffffffffffffffffffffffff1681526020019081526020016000209050610ee261055e565b6000816001015464e8d4a51000610ef7610e7b565b8460000154610f069190611847565b610f1091906118d0565b610f1a91906119ec565b9050808260010154610f2c9190611774565b8260010181905550808260020154610f449190611774565b82600201819055507f822e01c025b1cd3ec96ecdebfee61e49dbcdd29762ad69de9c20bb2b0f16a572338383604051610f7f939291906119b5565b60405180910390a15050565b61100c8363a9059cbb60e01b8484604051602401610faa929190611ab2565b604051602081830303815290604052907bffffffffffffffffffffffffffffffffffffffffffffffffffffffff19166020820180517bffffffffffffffffffffffffffffffffffffffffffffffffffffffff838183161783525050505061118c565b505050565b60008060009054906101000a900473ffffffffffffffffffffffffffffffffffffffff169050816000806101000a81548173ffffffffffffffffffffffffffffffffffffffff021916908373ffffffffffffffffffffffffffffffffffffffff1602179055508173ffffffffffffffffffffffffffffffffffffffff168173ffffffffffffffffffffffffffffffffffffffff167f8be0079c531659141344cd1fd0a4f28419497f9722a3daafe3b4186f6b6457e060405160405180910390a35050565b806005546110e39190611774565b60058190555050565b61116f846323b872dd60e01b85858560405160240161110d93929190611adb565b604051602081830303815290604052907bffffffffffffffffffffffffffffffffffffffffffffffffffffffff19166020820180517bffffffffffffffffffffffffffffffffffffffffffffffffffffffff838183161783525050505061118c565b50505050565b8060055461118391906119ec565b60058190555050565b60006111ee826040518060400160405280602081526020017f5361666545524332303a206c6f772d6c6576656c2063616c6c206661696c65648152508573ffffffffffffffffffffffffffffffffffffffff166112539092919063ffffffff16565b905060008151111561124e578080602001905181019061120e9190611b27565b61124d576040517f08c379a000000000000000000000000000000000000000000000000000000000815260040161124490611bc6565b60405180910390fd5b5b505050565b6060611262848460008561126b565b90509392505050565b6060824710156112b0576040517f08c379a00000000000000000000000000000000000000000000000000000000081526004016112a790611c58565b60405180910390fd5b6112b98561137f565b6112f8576040517f08c379a00000000000000000000000000000000000000000000000000000000081526004016112ef90611cc4565b60405180910390fd5b6000808673ffffffffffffffffffffffffffffffffffffffff1685876040516113219190611d5e565b60006040518083038185875af1925050503d806000811461135e576040519150601f19603f3d011682016040523d82523d6000602084013e611363565b606091505b50915091506113738282866113a2565b92505050949350505050565b6000808273ffffffffffffffffffffffffffffffffffffffff163b119050919050565b606083156113b257829050611402565b6000835111156113c55782518084602001fd5b816040517f08c379a00000000000000000000000000000000000000000000000000000000081526004016113f99190611dca565b60405180910390fd5b9392505050565b6040518060800160405280600081526020016000815260200160008152602001600081525090565b6000819050919050565b61144481611431565b82525050565b600060208201905061145f600083018461143b565b92915050565b600080fd5b61147381611431565b811461147e57600080fd5b50565b6000813590506114908161146a565b92915050565b6000602082840312156114ac576114ab611465565b5b60006114ba84828501611481565b91505092915050565b600073ffffffffffffffffffffffffffffffffffffffff82169050919050565b60006114ee826114c3565b9050919050565b6114fe816114e3565b811461150957600080fd5b50565b60008135905061151b816114f5565b92915050565b60006020828403121561153757611536611465565b5b60006115458482850161150c565b91505092915050565b60008115159050919050565b6115638161154e565b82525050565b600060208201905061157e600083018461155a565b92915050565b6000608082019050611599600083018761143b565b6115a6602083018661143b565b6115b3604083018561143b565b6115c0606083018461143b565b95945050505050565b6115d28161154e565b81146115dd57600080fd5b50565b6000813590506115ef816115c9565b92915050565b60006020828403121561160b5761160a611465565b5b6000611619848285016115e0565b91505092915050565b61162b816114e3565b82525050565b60006020820190506116466000830184611622565b92915050565b6000819050919050565b600061167161166c611667846114c3565b61164c565b6114c3565b9050919050565b600061168382611656565b9050919050565b600061169582611678565b9050919050565b6116a58161168a565b82525050565b60006020820190506116c0600083018461169c565b92915050565b6116cf81611431565b82525050565b6080820160008201516116eb60008501826116c6565b5060208201516116fe60208501826116c6565b50604082015161171160408501826116c6565b50606082015161172460608501826116c6565b50505050565b600060808201905061173f60008301846116d5565b92915050565b7f4e487b7100000000000000000000000000000000000000000000000000000000600052601160045260246000fd5b600061177f82611431565b915061178a83611431565b9250827fffffffffffffffffffffffffffffffffffffffffffffffffffffffffffffffff038211156117bf576117be611745565b5b828201905092915050565b600082825260208201905092915050565b7f4f776e61626c653a2063616c6c6572206973206e6f7420746865206f776e6572600082015250565b60006118116020836117ca565b915061181c826117db565b602082019050919050565b6000602082019050818103600083015261184081611804565b9050919050565b600061185282611431565b915061185d83611431565b9250817fffffffffffffffffffffffffffffffffffffffffffffffffffffffffffffffff048311821515161561189657611895611745565b5b828202905092915050565b7f4e487b7100000000000000000000000000000000000000000000000000000000600052601260045260246000fd5b60006118db82611431565b91506118e683611431565b9250826118f6576118f56118a1565b5b828204905092915050565b60008160001c9050919050565b6000819050919050565b600061192b61192683611901565b61190e565b9050919050565b60808201600080830154905061194781611918565b61195460008601826116c6565b506001830154905061196581611918565b61197260208601826116c6565b506002830154905061198381611918565b61199060408601826116c6565b50600383015490506119a181611918565b6119ae60608601826116c6565b5050505050565b600060c0820190506119ca6000830186611622565b6119d76020830185611932565b6119e460a083018461143b565b949350505050565b60006119f782611431565b9150611a0283611431565b925082821015611a1557611a14611745565b5b828203905092915050565b7f4f776e61626c653a206e6577206f776e657220697320746865207a65726f206160008201527f6464726573730000000000000000000000000000000000000000000000000000602082015250565b6000611a7c6026836117ca565b9150611a8782611a20565b604082019050919050565b60006020820190508181036000830152611aab81611a6f565b9050919050565b6000604082019050611ac76000830185611622565b611ad4602083018461143b565b9392505050565b6000606082019050611af06000830186611622565b611afd6020830185611622565b611b0a604083018461143b565b949350505050565b600081519050611b21816115c9565b92915050565b600060208284031215611b3d57611b3c611465565b5b6000611b4b84828501611b12565b91505092915050565b7f5361666545524332303a204552433230206f7065726174696f6e20646964206e60008201527f6f74207375636365656400000000000000000000000000000000000000000000602082015250565b6000611bb0602a836117ca565b9150611bbb82611b54565b604082019050919050565b60006020820190508181036000830152611bdf81611ba3565b9050919050565b7f416464726573733a20696e73756666696369656e742062616c616e636520666f60008201527f722063616c6c0000000000000000000000000000000000000000000000000000602082015250565b6000611c426026836117ca565b9150611c4d82611be6565b604082019050919050565b60006020820190508181036000830152611c7181611c35565b9050919050565b7f416464726573733a2063616c6c20746f206e6f6e2d636f6e7472616374000000600082015250565b6000611cae601d836117ca565b9150611cb982611c78565b602082019050919050565b60006020820190508181036000830152611cdd81611ca1565b9050919050565b600081519050919050565b600081905092915050565b60005b83811015611d18578082015181840152602081019050611cfd565b83811115611d27576000848401525b50505050565b6000611d3882611ce4565b611d428185611cef565b9350611d52818560208601611cfa565b80840191505092915050565b6000611d6a8284611d2d565b915081905092915050565b600081519050919050565b6000601f19601f8301169050919050565b6000611d9c82611d75565b611da681856117ca565b9350611db6818560208601611cfa565b611dbf81611d80565b840191505092915050565b60006020820190508181036000830152611de48184611d91565b90509291505056fea2646970667358221220b5b7e3489198139868c5fff1d85bfb8683a7441de014d28c46a8d7b5bede64c564736f6c634300080d0033",
  "devdoc": {
    "kind": "dev",
    "methods": {
      "owner()": {
        "details": "Returns the address of the current owner."
      },
      "renounceOwnership()": {
        "details": "Leaves the contract without owner. It will not be possible to call `onlyOwner` functions anymore. Can only be called by the current owner. NOTE: Renouncing ownership will leave the contract without an owner, thereby removing any functionality that is only available to the owner."
      },
      "transferOwnership(address)": {
        "details": "Transfers ownership of the contract to a new account (`newOwner`). Can only be called by the current owner."
      }
    },
    "version": 1
  },
  "userdoc": {
    "kind": "user",
    "methods": {},
    "version": 1
  },
  "storageLayout": {
    "storage": [
      {
        "astId": 7,
        "contract": "src/contracts/StakingChef.sol:StakingChef",
        "label": "_owner",
        "offset": 0,
        "slot": "0",
        "type": "t_address"
      },
      {
        "astId": 3340,
        "contract": "src/contracts/StakingChef.sol:StakingChef",
        "label": "_metricPerBlock",
        "offset": 0,
        "slot": "1",
        "type": "t_uint256"
      },
      {
        "astId": 3345,
        "contract": "src/contracts/StakingChef.sol:StakingChef",
        "label": "_rewardsActive",
        "offset": 0,
        "slot": "2",
        "type": "t_bool"
      },
      {
        "astId": 3347,
        "contract": "src/contracts/StakingChef.sol:StakingChef",
        "label": "_lastRewardBlock",
        "offset": 0,
        "slot": "3",
        "type": "t_uint256"
      },
      {
        "astId": 3349,
        "contract": "src/contracts/StakingChef.sol:StakingChef",
        "label": "_lifetimeShareValue",
        "offset": 0,
        "slot": "4",
        "type": "t_uint256"
      },
      {
        "astId": 3351,
        "contract": "src/contracts/StakingChef.sol:StakingChef",
        "label": "_totalAllocShares",
        "offset": 0,
        "slot": "5",
        "type": "t_uint256"
      },
      {
        "astId": 3354,
        "contract": "src/contracts/StakingChef.sol:StakingChef",
        "label": "metric",
        "offset": 0,
        "slot": "6",
        "type": "t_contract(MetricToken)3713"
      },
      {
        "astId": 3599,
        "contract": "src/contracts/StakingChef.sol:StakingChef",
        "label": "addressExistence",
        "offset": 0,
        "slot": "7",
        "type": "t_mapping(t_address,t_bool)"
      },
      {
        "astId": 5001,
        "contract": "src/contracts/StakingChef.sol:StakingChef",
        "label": "staker",
        "offset": 0,
        "slot": "8",
        "type": "t_mapping(t_address,t_struct(Staker)5361_storage)"
      }
    ],
    "types": {
      "t_address": {
        "encoding": "inplace",
        "label": "address",
        "numberOfBytes": "20"
      },
      "t_bool": {
        "encoding": "inplace",
        "label": "bool",
        "numberOfBytes": "1"
      },
      "t_contract(MetricToken)3713": {
        "encoding": "inplace",
        "label": "contract MetricToken",
        "numberOfBytes": "20"
      },
      "t_mapping(t_address,t_bool)": {
        "encoding": "mapping",
        "key": "t_address",
        "label": "mapping(address => bool)",
        "numberOfBytes": "32",
        "value": "t_bool"
      },
      "t_mapping(t_address,t_struct(Staker)5361_storage)": {
        "encoding": "mapping",
        "key": "t_address",
        "label": "mapping(address => struct StakingChef.Staker)",
        "numberOfBytes": "32",
        "value": "t_struct(Staker)5361_storage"
      },
      "t_struct(Staker)5361_storage": {
        "encoding": "inplace",
        "label": "struct StakingChef.Staker",
        "members": [
          {
            "astId": 5354,
            "contract": "src/contracts/StakingChef.sol:StakingChef",
            "label": "shares",
            "offset": 0,
            "slot": "0",
            "type": "t_uint256"
          },
          {
            "astId": 5356,
            "contract": "src/contracts/StakingChef.sol:StakingChef",
            "label": "rewardDebt",
            "offset": 0,
            "slot": "1",
            "type": "t_uint256"
          },
          {
            "astId": 5358,
            "contract": "src/contracts/StakingChef.sol:StakingChef",
            "label": "claimable",
            "offset": 0,
            "slot": "2",
            "type": "t_uint256"
          },
          {
            "astId": 5360,
            "contract": "src/contracts/StakingChef.sol:StakingChef",
            "label": "startDate",
            "offset": 0,
            "slot": "3",
            "type": "t_uint256"
          }
        ],
        "numberOfBytes": "128"
      },
      "t_uint256": {
        "encoding": "inplace",
        "label": "uint256",
        "numberOfBytes": "32"
      }
    }
  }
}