{
  "address": "0xCA73A2424e7dC720eD2cFb373b494D1c372FB689",
  "abi": [
    {
      "inputs": [
        {
          "internalType": "address",
          "name": "metricTokenAddress",
          "type": "address"
        }
      ],
      "stateMutability": "nonpayable",
      "type": "constructor"
    },
    {
      "inputs": [],
      "name": "DuplicateAddress",
      "type": "error"
    },
    {
      "inputs": [],
      "name": "IndexDoesNotMatchAllocation",
      "type": "error"
    },
    {
      "inputs": [],
      "name": "NoClaimableRewardToWithdraw",
      "type": "error"
    },
    {
      "inputs": [],
      "name": "NoRewardsToClaim",
      "type": "error"
    },
    {
      "inputs": [],
      "name": "RewardsInactive",
      "type": "error"
    },
    {
      "inputs": [],
      "name": "SenderDoesNotRepresentGroup",
      "type": "error"
    },
    {
      "inputs": [],
      "name": "SenderNotOwner",
      "type": "error"
    },
    {
      "inputs": [],
      "name": "SharesNotGreaterThanZero",
      "type": "error"
    },
    {
      "anonymous": false,
      "inputs": [
        {
          "indexed": false,
          "internalType": "address",
          "name": "harvester",
          "type": "address"
        },
        {
          "indexed": false,
          "internalType": "uint256",
          "name": "agIndex",
          "type": "uint256"
        },
        {
          "indexed": false,
          "internalType": "uint256",
          "name": "amount",
          "type": "uint256"
        }
      ],
      "name": "Harvest",
      "type": "event"
    },
    {
      "anonymous": false,
      "inputs": [
        {
          "indexed": true,
          "internalType": "address",
          "name": "previousOwner",
          "type": "address"
        },
        {
          "indexed": true,
          "internalType": "address",
          "name": "newOwner",
          "type": "address"
        }
      ],
      "name": "OwnershipTransferred",
      "type": "event"
    },
    {
      "anonymous": false,
      "inputs": [
        {
          "indexed": false,
          "internalType": "address",
          "name": "withdrawer",
          "type": "address"
        },
        {
          "indexed": false,
          "internalType": "uint256",
          "name": "agIndex",
          "type": "uint256"
        },
        {
          "indexed": false,
          "internalType": "uint256",
          "name": "amount",
          "type": "uint256"
        }
      ],
      "name": "Withdraw",
      "type": "event"
    },
    {
      "inputs": [],
      "name": "ACC_METRIC_PRECISION",
      "outputs": [
        {
          "internalType": "uint256",
          "name": "",
          "type": "uint256"
        }
      ],
      "stateMutability": "view",
      "type": "function"
    },
    {
      "inputs": [
        {
          "internalType": "uint256",
          "name": "accumulatedWithPrecision",
          "type": "uint256"
        }
      ],
      "name": "accumulatedMetricDividedByShares",
      "outputs": [
        {
          "internalType": "uint256",
          "name": "",
          "type": "uint256"
        }
      ],
      "stateMutability": "view",
      "type": "function"
    },
    {
      "inputs": [
        {
          "internalType": "address",
          "name": "newAddress",
          "type": "address"
        },
        {
          "internalType": "uint256",
          "name": "newShares",
          "type": "uint256"
        },
        {
          "internalType": "bool",
          "name": "newAutoDistribute",
          "type": "bool"
        }
      ],
      "name": "addAllocationGroup",
      "outputs": [],
      "stateMutability": "nonpayable",
      "type": "function"
    },
    {
      "inputs": [
        {
          "internalType": "address",
          "name": "",
          "type": "address"
        }
      ],
      "name": "addressExistence",
      "outputs": [
        {
          "internalType": "bool",
          "name": "",
          "type": "bool"
        }
      ],
      "stateMutability": "view",
      "type": "function"
    },
    {
      "inputs": [],
      "name": "areRewardsActive",
      "outputs": [
        {
          "internalType": "bool",
          "name": "",
          "type": "bool"
        }
      ],
      "stateMutability": "view",
      "type": "function"
    },
    {
      "inputs": [
        {
          "internalType": "uint256",
          "name": "agIndex",
          "type": "uint256"
        }
      ],
      "name": "claim",
      "outputs": [],
      "stateMutability": "nonpayable",
      "type": "function"
    },
    {
      "inputs": [],
      "name": "getAllocationGroups",
      "outputs": [
        {
          "components": [
            {
              "internalType": "address",
              "name": "groupAddress",
              "type": "address"
            },
            {
              "internalType": "uint256",
              "name": "shares",
              "type": "uint256"
            },
            {
              "internalType": "bool",
              "name": "autodistribute",
              "type": "bool"
            },
            {
              "internalType": "uint256",
              "name": "rewardDebt",
              "type": "uint256"
            },
            {
              "internalType": "uint256",
              "name": "claimable",
              "type": "uint256"
            }
          ],
          "internalType": "struct TopChef.AllocationGroup[]",
          "name": "",
          "type": "tuple[]"
        }
      ],
      "stateMutability": "view",
      "type": "function"
    },
    {
      "inputs": [],
      "name": "getLastRewardBlock",
      "outputs": [
        {
          "internalType": "uint256",
          "name": "",
          "type": "uint256"
        }
      ],
      "stateMutability": "view",
      "type": "function"
    },
    {
      "inputs": [],
      "name": "getLifeTimeShareValueEstimate",
      "outputs": [
        {
          "internalType": "uint256",
          "name": "",
          "type": "uint256"
        }
      ],
      "stateMutability": "view",
      "type": "function"
    },
    {
      "inputs": [],
      "name": "getMetricPerBlock",
      "outputs": [
        {
          "internalType": "uint256",
          "name": "",
          "type": "uint256"
        }
      ],
      "stateMutability": "view",
      "type": "function"
    },
    {
      "inputs": [],
      "name": "getMetricToken",
      "outputs": [
        {
          "internalType": "contract MetricToken",
          "name": "",
          "type": "address"
        }
      ],
      "stateMutability": "view",
      "type": "function"
    },
    {
      "inputs": [],
      "name": "getTotalAllocationShares",
      "outputs": [
        {
          "internalType": "uint256",
          "name": "",
          "type": "uint256"
        }
      ],
      "stateMutability": "view",
      "type": "function"
    },
    {
      "inputs": [
        {
          "internalType": "uint256",
          "name": "agIndex",
          "type": "uint256"
        }
      ],
      "name": "harvest",
      "outputs": [
        {
          "internalType": "uint256",
          "name": "",
          "type": "uint256"
        }
      ],
      "stateMutability": "nonpayable",
      "type": "function"
    },
    {
      "inputs": [],
      "name": "harvestAll",
      "outputs": [],
      "stateMutability": "nonpayable",
      "type": "function"
    },
    {
      "inputs": [],
      "name": "owner",
      "outputs": [
        {
          "internalType": "address",
          "name": "",
          "type": "address"
        }
      ],
      "stateMutability": "view",
      "type": "function"
    },
    {
      "inputs": [
        {
          "internalType": "uint256",
          "name": "agIndex",
          "type": "uint256"
        }
      ],
      "name": "removeAllocationGroup",
      "outputs": [],
      "stateMutability": "nonpayable",
      "type": "function"
    },
    {
      "inputs": [],
      "name": "renounceOwnership",
      "outputs": [],
      "stateMutability": "nonpayable",
      "type": "function"
    },
    {
      "inputs": [],
      "name": "setLifetimeShareValue",
      "outputs": [],
      "stateMutability": "nonpayable",
      "type": "function"
    },
    {
      "inputs": [
        {
          "internalType": "uint256",
          "name": "metricAmount",
          "type": "uint256"
        }
      ],
      "name": "setMetricPerBlock",
      "outputs": [],
      "stateMutability": "nonpayable",
      "type": "function"
    },
    {
      "inputs": [
        {
          "internalType": "address",
          "name": "metricTokenAddress",
          "type": "address"
        }
      ],
      "name": "setMetricToken",
      "outputs": [],
      "stateMutability": "nonpayable",
      "type": "function"
    },
    {
      "inputs": [
        {
          "internalType": "bool",
          "name": "isOn",
          "type": "bool"
        }
      ],
      "name": "toggleRewards",
      "outputs": [],
      "stateMutability": "nonpayable",
      "type": "function"
    },
    {
      "inputs": [
        {
          "internalType": "address",
          "name": "newOwner",
          "type": "address"
        }
      ],
      "name": "transferOwnership",
      "outputs": [],
      "stateMutability": "nonpayable",
      "type": "function"
    },
    {
      "inputs": [],
      "name": "updateAccumulatedAllocations",
      "outputs": [],
      "stateMutability": "nonpayable",
      "type": "function"
    },
    {
      "inputs": [
        {
          "internalType": "address",
          "name": "groupAddress",
          "type": "address"
        },
        {
          "internalType": "uint256",
          "name": "agIndex",
          "type": "uint256"
        },
        {
          "internalType": "uint256",
          "name": "shares",
          "type": "uint256"
        },
        {
          "internalType": "bool",
          "name": "newAutoDistribute",
          "type": "bool"
        }
      ],
      "name": "updateAllocationGroup",
      "outputs": [],
      "stateMutability": "nonpayable",
      "type": "function"
    },
    {
      "inputs": [
        {
          "internalType": "uint256",
          "name": "agIndex",
          "type": "uint256"
        }
      ],
      "name": "viewPendingClaims",
      "outputs": [
        {
          "internalType": "uint256",
          "name": "",
          "type": "uint256"
        }
      ],
      "stateMutability": "view",
      "type": "function"
    },
    {
      "inputs": [
        {
          "internalType": "uint256",
          "name": "agIndex",
          "type": "uint256"
        }
      ],
      "name": "viewPendingHarvest",
      "outputs": [
        {
          "internalType": "uint256",
          "name": "",
          "type": "uint256"
        }
      ],
      "stateMutability": "view",
      "type": "function"
    },
    {
      "inputs": [
        {
          "internalType": "uint256",
          "name": "agIndex",
          "type": "uint256"
        }
      ],
      "name": "viewPendingRewards",
      "outputs": [
        {
          "internalType": "uint256",
          "name": "",
          "type": "uint256"
        }
      ],
      "stateMutability": "view",
      "type": "function"
    }
  ],
  "transactionHash": "0x80889075996fdcc602b20660cf6240bd28635f21a52c7f28b5f676d62c8a55eb",
  "args": [
    "0x683BA8D87082ea1D09E18C4cA93B14dc17645051"
  ],
  "numDeployments": 1,
  "solcInputHash": "dd1ea32d5c9daca7fd078bba8a685995",
  "bytecode": "0x60806040523480156200001157600080fd5b5060405162002dda38038062002dda83398181016040528101906200003791906200043a565b620000576200004b6200009360201b60201c565b6200009b60201b60201c565b62000068816200015f60201b60201c565b6200007a60046200023260201b60201c565b6200008c6000620002e060201b60201c565b5062000589565b600033905090565b60008060009054906101000a900473ffffffffffffffffffffffffffffffffffffffff169050816000806101000a81548173ffffffffffffffffffffffffffffffffffffffff021916908373ffffffffffffffffffffffffffffffffffffffff1602179055508173ffffffffffffffffffffffffffffffffffffffff168173ffffffffffffffffffffffffffffffffffffffff167f8be0079c531659141344cd1fd0a4f28419497f9722a3daafe3b4186f6b6457e060405160405180910390a35050565b6200016f6200009360201b60201c565b73ffffffffffffffffffffffffffffffffffffffff16620001956200039d60201b60201c565b73ffffffffffffffffffffffffffffffffffffffff1614620001ee576040517f08c379a0000000000000000000000000000000000000000000000000000000008152600401620001e590620004cd565b60405180910390fd5b80600660006101000a81548173ffffffffffffffffffffffffffffffffffffffff021916908373ffffffffffffffffffffffffffffffffffffffff16021790555050565b620002426200009360201b60201c565b73ffffffffffffffffffffffffffffffffffffffff16620002686200039d60201b60201c565b73ffffffffffffffffffffffffffffffffffffffff1614620002c1576040517f08c379a0000000000000000000000000000000000000000000000000000000008152600401620002b890620004cd565b60405180910390fd5b670de0b6b3a764000081620002d7919062000528565b60018190555050565b620002f06200009360201b60201c565b73ffffffffffffffffffffffffffffffffffffffff16620003166200039d60201b60201c565b73ffffffffffffffffffffffffffffffffffffffff16146200036f576040517f08c379a00000000000000000000000000000000000000000000000000000000081526004016200036690620004cd565b60405180910390fd5b80600260006101000a81548160ff0219169083151502179055506200039a43620003c660201b60201c565b50565b60008060009054906101000a900473ffffffffffffffffffffffffffffffffffffffff16905090565b8060038190555050565b600080fd5b600073ffffffffffffffffffffffffffffffffffffffff82169050919050565b60006200040282620003d5565b9050919050565b6200041481620003f5565b81146200042057600080fd5b50565b600081519050620004348162000409565b92915050565b600060208284031215620004535762000452620003d0565b5b6000620004638482850162000423565b91505092915050565b600082825260208201905092915050565b7f4f776e61626c653a2063616c6c6572206973206e6f7420746865206f776e6572600082015250565b6000620004b56020836200046c565b9150620004c2826200047d565b602082019050919050565b60006020820190508181036000830152620004e881620004a6565b9050919050565b6000819050919050565b7f4e487b7100000000000000000000000000000000000000000000000000000000600052601160045260246000fd5b60006200053582620004ef565b91506200054283620004ef565b9250817fffffffffffffffffffffffffffffffffffffffffffffffffffffffffffffffff04831182151516156200057e576200057d620004f9565b5b828202905092915050565b61284180620005996000396000f3fe608060405234801561001057600080fd5b50600436106101a95760003560e01c806377d22d1a116100f9578063a8e2a38b11610097578063d8009bb611610071578063d8009bb61461044a578063ddc632621461047a578063f2fde38b146104aa578063f33c9baa146104c6576101a9565b8063a8e2a38b146103f0578063bf62bee61461040e578063c5d836d91461042c576101a9565b80638da5cb5b116100d35780638da5cb5b1461037c5780638ed955b91461039a578063945c5287146103a4578063994cd567146103c0576101a9565b806377d22d1a146103385780638b4a4ed5146103425780638c19ec8b14610360576101a9565b80635aa01b04116101665780635f9b1bb5116101405780635f9b1bb5146102ea5780636336694b146102f45780636ac49a8914610310578063715018a61461032e576101a9565b80635aa01b04146102805780635cae9a481461029c5780635e175713146102cc576101a9565b80630419ba05146101ae5780631cd8f0fa146101cc5780631e718d27146101e857806322abbddf14610218578063259e787314610248578063379607f514610264575b600080fd5b6101b66104e4565b6040516101c39190611d64565b60405180910390f35b6101e660048036038101906101e19190611db0565b610526565b005b61020260048036038101906101fd9190611db0565b6105bf565b60405161020f9190611d64565b60405180910390f35b610232600480360381019061022d9190611e3b565b6105db565b60405161023f9190611e83565b60405180910390f35b610262600480360381019061025d9190611eca565b6105fb565b005b61027e60048036038101906102799190611db0565b6108ea565b005b61029a60048036038101906102959190611f1d565b610a3c565b005b6102b660048036038101906102b19190611db0565b610c00565b6040516102c39190611d64565b60405180910390f35b6102d4610cce565b6040516102e19190611d64565b60405180910390f35b6102f2610cd8565b005b61030e60048036038101906103099190611db0565b610d11565b005b61031861100a565b6040516103259190611d64565b60405180910390f35b610336611013565b005b61034061109b565b005b61034a6110fc565b60405161035791906120c8565b60405180910390f35b61037a600480360381019061037591906120ea565b6111ea565b005b61038461128c565b6040516103919190612126565b60405180910390f35b6103a26112b5565b005b6103be60048036038101906103b99190611e3b565b611365565b005b6103da60048036038101906103d59190611db0565b611425565b6040516103e79190611d64565b60405180910390f35b6103f8611570565b60405161040591906121a0565b60405180910390f35b61041661159a565b6040516104239190611d64565b60405180910390f35b6104346115a4565b6040516104419190611d64565b60405180910390f35b610464600480360381019061045f9190611db0565b6115ae565b6040516104719190611d64565b60405180910390f35b610494600480360381019061048f9190611db0565b61169b565b6040516104a19190611d64565b60405180910390f35b6104c460048036038101906104bf9190611e3b565b6117be565b005b6104ce6118b5565b6040516104db9190611e83565b60405180910390f35b6000806104ef6118cc565b905060006104fc826118fd565b90506000610508611917565b9050610513826105bf565b8161051e91906121ea565b935050505090565b61052e611921565b73ffffffffffffffffffffffffffffffffffffffff1661054c61128c565b73ffffffffffffffffffffffffffffffffffffffff16146105a2576040517f08c379a00000000000000000000000000000000000000000000000000000000081526004016105999061229d565b60405180910390fd5b670de0b6b3a7640000816105b691906122bd565b60018190555050565b60006105c9610cce565b826105d49190612346565b9050919050565b60076020528060005260406000206000915054906101000a900460ff1681565b610603611921565b73ffffffffffffffffffffffffffffffffffffffff1661062161128c565b73ffffffffffffffffffffffffffffffffffffffff1614610677576040517f08c379a000000000000000000000000000000000000000000000000000000000815260040161066e9061229d565b60405180910390fd5b8260011515600760008373ffffffffffffffffffffffffffffffffffffffff1673ffffffffffffffffffffffffffffffffffffffff16815260200190815260200160002060009054906101000a900460ff16151503610702576040517f0a47c55800000000000000000000000000000000000000000000000000000000815260040160405180910390fd5b6001600760008373ffffffffffffffffffffffffffffffffffffffff1673ffffffffffffffffffffffffffffffffffffffff16815260200190815260200160002060006101000a81548160ff02191690831515021790555060008311610794576040517ff915581500000000000000000000000000000000000000000000000000000000815260040160405180910390fd5b61079c6118b5565b80156107af575060006107ad610cce565b115b156107bd576107bc61109b565b5b60006040518060a001604052808673ffffffffffffffffffffffffffffffffffffffff168152602001858152602001841515815260200164e8d4a51000610802611917565b8761080d91906122bd565b6108179190612346565b815260200160008152509050600881908060018154018082558091505060019003906000526020600020906005020160009091909190915060008201518160000160006101000a81548173ffffffffffffffffffffffffffffffffffffffff021916908373ffffffffffffffffffffffffffffffffffffffff1602179055506020820151816001015560408201518160020160006101000a81548160ff021916908315150217905550606082015181600301556080820151816004015550506108e38160200151611929565b5050505050565b600060088281548110610900576108ff612377565b5b906000526020600020906005020190508060000160009054906101000a900473ffffffffffffffffffffffffffffffffffffffff1673ffffffffffffffffffffffffffffffffffffffff163373ffffffffffffffffffffffffffffffffffffffff1614610999576040517f19494c8a00000000000000000000000000000000000000000000000000000000815260040160405180910390fd5b60006109a48361169b565b9050600081036109e0576040517f73380d9900000000000000000000000000000000000000000000000000000000815260040160405180910390fd5b600082600401819055506109fc6109f5611570565b3383611940565b7ff279e6a1f5e320cca91135676d9cb6e44ca8a08c0b88342bcdb1144f6511b568338483604051610a2f939291906123a6565b60405180910390a1505050565b610a446118b5565b610a7a576040517f236582f100000000000000000000000000000000000000000000000000000000815260040160405180910390fd5b610a82611921565b73ffffffffffffffffffffffffffffffffffffffff16610aa061128c565b73ffffffffffffffffffffffffffffffffffffffff1614610af6576040517f08c379a0000000000000000000000000000000000000000000000000000000008152600401610aed9061229d565b60405180910390fd5b610aff8361169b565b50610b2f60088481548110610b1757610b16612377565b5b906000526020600020906005020160010154836119c6565b8360088481548110610b4457610b43612377565b5b906000526020600020906005020160000160006101000a81548173ffffffffffffffffffffffffffffffffffffffff021916908373ffffffffffffffffffffffffffffffffffffffff1602179055508160088481548110610ba857610ba7612377565b5b9060005260206000209060050201600101819055508060088481548110610bd257610bd1612377565b5b906000526020600020906005020160020160006101000a81548160ff02191690831515021790555050505050565b60008060088381548110610c1757610c16612377565b5b90600052602060002090600502016040518060a00160405290816000820160009054906101000a900473ffffffffffffffffffffffffffffffffffffffff1673ffffffffffffffffffffffffffffffffffffffff1673ffffffffffffffffffffffffffffffffffffffff168152602001600182015481526020016002820160009054906101000a900460ff161515151581526020016003820154815260200160048201548152505090508060800151915050919050565b6000600554905090565b6000610ce26118cc565b90506000610cef826118fd565b9050610cfa816105bf565b600454610d0791906121ea565b6004819055505050565b610d196118b5565b610d4f576040517f236582f100000000000000000000000000000000000000000000000000000000815260040160405180910390fd5b610d57611921565b73ffffffffffffffffffffffffffffffffffffffff16610d7561128c565b73ffffffffffffffffffffffffffffffffffffffff1614610dcb576040517f08c379a0000000000000000000000000000000000000000000000000000000008152600401610dc29061229d565b60405180910390fd5b6008805490508110610e09576040517fd0333a0600000000000000000000000000000000000000000000000000000000815260040160405180910390fd5b600160088281548110610e1f57610e1e612377565b5b906000526020600020906005020160020160006101000a81548160ff021916908315150217905550610e508161169b565b50610e7f60088281548110610e6857610e67612377565b5b9060005260206000209060050201600101546119e9565b60086001600880549050610e9391906123dd565b81548110610ea457610ea3612377565b5b906000526020600020906005020160088281548110610ec657610ec5612377565b5b90600052602060002090600502016000820160009054906101000a900473ffffffffffffffffffffffffffffffffffffffff168160000160006101000a81548173ffffffffffffffffffffffffffffffffffffffff021916908373ffffffffffffffffffffffffffffffffffffffff160217905550600182015481600101556002820160009054906101000a900460ff168160020160006101000a81548160ff02191690831515021790555060038201548160030155600482015481600401559050506008805480610f9b57610f9a612411565b5b6001900381819060005260206000209060050201600080820160006101000a81549073ffffffffffffffffffffffffffffffffffffffff021916905560018201600090556002820160006101000a81549060ff0219169055600382016000905560048201600090555050905550565b64e8d4a5100081565b61101b611921565b73ffffffffffffffffffffffffffffffffffffffff1661103961128c565b73ffffffffffffffffffffffffffffffffffffffff161461108f576040517f08c379a00000000000000000000000000000000000000000000000000000000081526004016110869061229d565b60405180910390fd5b6110996000611a00565b565b6110a36118b5565b6110d9576040517f236582f100000000000000000000000000000000000000000000000000000000815260040160405180910390fd5b6110e161159a565b4311156110fa576110f0610cd8565b6110f943611ac4565b5b565b60606008805480602002602001604051908101604052809291908181526020016000905b828210156111e157838290600052602060002090600502016040518060a00160405290816000820160009054906101000a900473ffffffffffffffffffffffffffffffffffffffff1673ffffffffffffffffffffffffffffffffffffffff1673ffffffffffffffffffffffffffffffffffffffff168152602001600182015481526020016002820160009054906101000a900460ff161515151581526020016003820154815260200160048201548152505081526020019060010190611120565b50505050905090565b6111f2611921565b73ffffffffffffffffffffffffffffffffffffffff1661121061128c565b73ffffffffffffffffffffffffffffffffffffffff1614611266576040517f08c379a000000000000000000000000000000000000000000000000000000000815260040161125d9061229d565b60405180910390fd5b80600260006101000a81548160ff02191690831515021790555061128943611ac4565b50565b60008060009054906101000a900473ffffffffffffffffffffffffffffffffffffffff16905090565b6112bd611921565b73ffffffffffffffffffffffffffffffffffffffff166112db61128c565b73ffffffffffffffffffffffffffffffffffffffff1614611331576040517f08c379a00000000000000000000000000000000000000000000000000000000081526004016113289061229d565b60405180910390fd5b60005b6008805490508160ff161015611362576113508160ff1661169b565b508061135b9061244d565b9050611334565b50565b61136d611921565b73ffffffffffffffffffffffffffffffffffffffff1661138b61128c565b73ffffffffffffffffffffffffffffffffffffffff16146113e1576040517f08c379a00000000000000000000000000000000000000000000000000000000081526004016113d89061229d565b60405180910390fd5b80600660006101000a81548173ffffffffffffffffffffffffffffffffffffffff021916908373ffffffffffffffffffffffffffffffffffffffff16021790555050565b6000806008838154811061143c5761143b612377565b5b90600052602060002090600502016040518060a00160405290816000820160009054906101000a900473ffffffffffffffffffffffffffffffffffffffff1673ffffffffffffffffffffffffffffffffffffffff1673ffffffffffffffffffffffffffffffffffffffff168152602001600182015481526020016002820160009054906101000a900460ff161515151581526020016003820154815260200160048201548152505090506114ee6118b5565b1561153157806060015164e8d4a510006115066104e4565b836020015161151591906122bd565b61151f9190612346565b61152991906123dd565b91505061156b565b806060015164e8d4a51000611544611917565b836020015161155391906122bd565b61155d9190612346565b61156791906123dd565b9150505b919050565b6000600660009054906101000a900473ffffffffffffffffffffffffffffffffffffffff16905090565b6000600354905090565b6000600154905090565b600080600883815481106115c5576115c4612377565b5b90600052602060002090600502016040518060a00160405290816000820160009054906101000a900473ffffffffffffffffffffffffffffffffffffffff1673ffffffffffffffffffffffffffffffffffffffff1673ffffffffffffffffffffffffffffffffffffffff168152602001600182015481526020016002820160009054906101000a900460ff16151515158152602001600382015481526020016004820154815250509050600081608001519050600061168385611425565b9050808261169191906121ea565b9350505050919050565b60006116a56118b5565b6116db576040517f236582f100000000000000000000000000000000000000000000000000000000815260040160405180910390fd5b6000600883815481106116f1576116f0612377565b5b9060005260206000209060050201905061170961109b565b6000816003015464e8d4a5100061171e611917565b846001015461172d91906122bd565b6117379190612346565b61174191906123dd565b905080826003015461175391906121ea565b8260030181905550600081836004015461176d91906121ea565b90508083600401819055507f71bab65ced2e5750775a0613be067df48ef06cf92a496ebf7663ae06609249543386846040516117ab939291906123a6565b60405180910390a1809350505050919050565b6117c6611921565b73ffffffffffffffffffffffffffffffffffffffff166117e461128c565b73ffffffffffffffffffffffffffffffffffffffff161461183a576040517f08c379a00000000000000000000000000000000000000000000000000000000081526004016118319061229d565b60405180910390fd5b600073ffffffffffffffffffffffffffffffffffffffff168173ffffffffffffffffffffffffffffffffffffffff16036118a9576040517f08c379a00000000000000000000000000000000000000000000000000000000081526004016118a0906124e8565b60405180910390fd5b6118b281611a00565b50565b6000600260009054906101000a900460ff16905090565b6000806118d761159a565b436118e291906123dd565b90506118ec6115a4565b816118f791906122bd565b91505090565b600064e8d4a510008261191091906122bd565b9050919050565b6000600454905090565b600033905090565b8060055461193791906121ea565b60058190555050565b6119c18363a9059cbb60e01b848460405160240161195f929190612508565b604051602081830303815290604052907bffffffffffffffffffffffffffffffffffffffffffffffffffffffff19166020820180517bffffffffffffffffffffffffffffffffffffffffffffffffffffffff8381831617835250505050611ace565b505050565b80826005546119d591906123dd565b6119df91906121ea565b6005819055505050565b806005546119f791906123dd565b60058190555050565b60008060009054906101000a900473ffffffffffffffffffffffffffffffffffffffff169050816000806101000a81548173ffffffffffffffffffffffffffffffffffffffff021916908373ffffffffffffffffffffffffffffffffffffffff1602179055508173ffffffffffffffffffffffffffffffffffffffff168173ffffffffffffffffffffffffffffffffffffffff167f8be0079c531659141344cd1fd0a4f28419497f9722a3daafe3b4186f6b6457e060405160405180910390a35050565b8060038190555050565b6000611b30826040518060400160405280602081526020017f5361666545524332303a206c6f772d6c6576656c2063616c6c206661696c65648152508573ffffffffffffffffffffffffffffffffffffffff16611b959092919063ffffffff16565b9050600081511115611b905780806020019051810190611b509190612546565b611b8f576040517f08c379a0000000000000000000000000000000000000000000000000000000008152600401611b86906125e5565b60405180910390fd5b5b505050565b6060611ba48484600085611bad565b90509392505050565b606082471015611bf2576040517f08c379a0000000000000000000000000000000000000000000000000000000008152600401611be990612677565b60405180910390fd5b611bfb85611cc1565b611c3a576040517f08c379a0000000000000000000000000000000000000000000000000000000008152600401611c31906126e3565b60405180910390fd5b6000808673ffffffffffffffffffffffffffffffffffffffff168587604051611c63919061277d565b60006040518083038185875af1925050503d8060008114611ca0576040519150601f19603f3d011682016040523d82523d6000602084013e611ca5565b606091505b5091509150611cb5828286611ce4565b92505050949350505050565b6000808273ffffffffffffffffffffffffffffffffffffffff163b119050919050565b60608315611cf457829050611d44565b600083511115611d075782518084602001fd5b816040517f08c379a0000000000000000000000000000000000000000000000000000000008152600401611d3b91906127e9565b60405180910390fd5b9392505050565b6000819050919050565b611d5e81611d4b565b82525050565b6000602082019050611d796000830184611d55565b92915050565b600080fd5b611d8d81611d4b565b8114611d9857600080fd5b50565b600081359050611daa81611d84565b92915050565b600060208284031215611dc657611dc5611d7f565b5b6000611dd484828501611d9b565b91505092915050565b600073ffffffffffffffffffffffffffffffffffffffff82169050919050565b6000611e0882611ddd565b9050919050565b611e1881611dfd565b8114611e2357600080fd5b50565b600081359050611e3581611e0f565b92915050565b600060208284031215611e5157611e50611d7f565b5b6000611e5f84828501611e26565b91505092915050565b60008115159050919050565b611e7d81611e68565b82525050565b6000602082019050611e986000830184611e74565b92915050565b611ea781611e68565b8114611eb257600080fd5b50565b600081359050611ec481611e9e565b92915050565b600080600060608486031215611ee357611ee2611d7f565b5b6000611ef186828701611e26565b9350506020611f0286828701611d9b565b9250506040611f1386828701611eb5565b9150509250925092565b60008060008060808587031215611f3757611f36611d7f565b5b6000611f4587828801611e26565b9450506020611f5687828801611d9b565b9350506040611f6787828801611d9b565b9250506060611f7887828801611eb5565b91505092959194509250565b600081519050919050565b600082825260208201905092915050565b6000819050602082019050919050565b611fb981611dfd565b82525050565b611fc881611d4b565b82525050565b611fd781611e68565b82525050565b60a082016000820151611ff36000850182611fb0565b5060208201516120066020850182611fbf565b5060408201516120196040850182611fce565b50606082015161202c6060850182611fbf565b50608082015161203f6080850182611fbf565b50505050565b60006120518383611fdd565b60a08301905092915050565b6000602082019050919050565b600061207582611f84565b61207f8185611f8f565b935061208a83611fa0565b8060005b838110156120bb5781516120a28882612045565b97506120ad8361205d565b92505060018101905061208e565b5085935050505092915050565b600060208201905081810360008301526120e2818461206a565b905092915050565b600060208284031215612100576120ff611d7f565b5b600061210e84828501611eb5565b91505092915050565b61212081611dfd565b82525050565b600060208201905061213b6000830184612117565b92915050565b6000819050919050565b600061216661216161215c84611ddd565b612141565b611ddd565b9050919050565b60006121788261214b565b9050919050565b600061218a8261216d565b9050919050565b61219a8161217f565b82525050565b60006020820190506121b56000830184612191565b92915050565b7f4e487b7100000000000000000000000000000000000000000000000000000000600052601160045260246000fd5b60006121f582611d4b565b915061220083611d4b565b9250827fffffffffffffffffffffffffffffffffffffffffffffffffffffffffffffffff03821115612235576122346121bb565b5b828201905092915050565b600082825260208201905092915050565b7f4f776e61626c653a2063616c6c6572206973206e6f7420746865206f776e6572600082015250565b6000612287602083612240565b915061229282612251565b602082019050919050565b600060208201905081810360008301526122b68161227a565b9050919050565b60006122c882611d4b565b91506122d383611d4b565b9250817fffffffffffffffffffffffffffffffffffffffffffffffffffffffffffffffff048311821515161561230c5761230b6121bb565b5b828202905092915050565b7f4e487b7100000000000000000000000000000000000000000000000000000000600052601260045260246000fd5b600061235182611d4b565b915061235c83611d4b565b92508261236c5761236b612317565b5b828204905092915050565b7f4e487b7100000000000000000000000000000000000000000000000000000000600052603260045260246000fd5b60006060820190506123bb6000830186612117565b6123c86020830185611d55565b6123d56040830184611d55565b949350505050565b60006123e882611d4b565b91506123f383611d4b565b925082821015612406576124056121bb565b5b828203905092915050565b7f4e487b7100000000000000000000000000000000000000000000000000000000600052603160045260246000fd5b600060ff82169050919050565b600061245882612440565b915060ff820361246b5761246a6121bb565b5b600182019050919050565b7f4f776e61626c653a206e6577206f776e657220697320746865207a65726f206160008201527f6464726573730000000000000000000000000000000000000000000000000000602082015250565b60006124d2602683612240565b91506124dd82612476565b604082019050919050565b60006020820190508181036000830152612501816124c5565b9050919050565b600060408201905061251d6000830185612117565b61252a6020830184611d55565b9392505050565b60008151905061254081611e9e565b92915050565b60006020828403121561255c5761255b611d7f565b5b600061256a84828501612531565b91505092915050565b7f5361666545524332303a204552433230206f7065726174696f6e20646964206e60008201527f6f74207375636365656400000000000000000000000000000000000000000000602082015250565b60006125cf602a83612240565b91506125da82612573565b604082019050919050565b600060208201905081810360008301526125fe816125c2565b9050919050565b7f416464726573733a20696e73756666696369656e742062616c616e636520666f60008201527f722063616c6c0000000000000000000000000000000000000000000000000000602082015250565b6000612661602683612240565b915061266c82612605565b604082019050919050565b6000602082019050818103600083015261269081612654565b9050919050565b7f416464726573733a2063616c6c20746f206e6f6e2d636f6e7472616374000000600082015250565b60006126cd601d83612240565b91506126d882612697565b602082019050919050565b600060208201905081810360008301526126fc816126c0565b9050919050565b600081519050919050565b600081905092915050565b60005b8381101561273757808201518184015260208101905061271c565b83811115612746576000848401525b50505050565b600061275782612703565b612761818561270e565b9350612771818560208601612719565b80840191505092915050565b6000612789828461274c565b915081905092915050565b600081519050919050565b6000601f19601f8301169050919050565b60006127bb82612794565b6127c58185612240565b93506127d5818560208601612719565b6127de8161279f565b840191505092915050565b6000602082019050818103600083015261280381846127b0565b90509291505056fea26469706673582212200edffe192ff223827214920b04b9c753c19b6b9594595f978577d3108f7500c864736f6c634300080d0033",
  "devdoc": {
    "kind": "dev",
    "methods": {
      "owner()": {
        "details": "Returns the address of the current owner."
      },
      "renounceOwnership()": {
        "details": "Leaves the contract without owner. It will not be possible to call `onlyOwner` functions anymore. Can only be called by the current owner. NOTE: Renouncing ownership will leave the contract without an owner, thereby removing any functionality that is only available to the owner."
      },
      "transferOwnership(address)": {
        "details": "Transfers ownership of the contract to a new account (`newOwner`). Can only be called by the current owner."
      }
    },
    "version": 1
  },
  "userdoc": {
    "kind": "user",
    "methods": {},
    "version": 1
  },
  "storageLayout": {
    "storage": [
      {
        "astId": 7,
        "contract": "src/contracts/TopChef.sol:TopChef",
        "label": "_owner",
        "offset": 0,
        "slot": "0",
        "type": "t_address"
      },
      {
        "astId": 3340,
        "contract": "src/contracts/TopChef.sol:TopChef",
        "label": "_metricPerBlock",
        "offset": 0,
        "slot": "1",
        "type": "t_uint256"
      },
      {
        "astId": 3345,
        "contract": "src/contracts/TopChef.sol:TopChef",
        "label": "_rewardsActive",
        "offset": 0,
        "slot": "2",
        "type": "t_bool"
      },
      {
        "astId": 3347,
        "contract": "src/contracts/TopChef.sol:TopChef",
        "label": "_lastRewardBlock",
        "offset": 0,
        "slot": "3",
        "type": "t_uint256"
      },
      {
        "astId": 3349,
        "contract": "src/contracts/TopChef.sol:TopChef",
        "label": "_lifetimeShareValue",
        "offset": 0,
        "slot": "4",
        "type": "t_uint256"
      },
      {
        "astId": 3351,
        "contract": "src/contracts/TopChef.sol:TopChef",
        "label": "_totalAllocShares",
        "offset": 0,
        "slot": "5",
        "type": "t_uint256"
      },
      {
        "astId": 3354,
        "contract": "src/contracts/TopChef.sol:TopChef",
        "label": "metric",
        "offset": 0,
        "slot": "6",
        "type": "t_contract(MetricToken)3713"
      },
      {
        "astId": 3599,
        "contract": "src/contracts/TopChef.sol:TopChef",
        "label": "addressExistence",
        "offset": 0,
        "slot": "7",
        "type": "t_mapping(t_address,t_bool)"
      },
      {
        "astId": 5396,
        "contract": "src/contracts/TopChef.sol:TopChef",
        "label": "_allocations",
        "offset": 0,
        "slot": "8",
        "type": "t_array(t_struct(AllocationGroup)5869_storage)dyn_storage"
      }
    ],
    "types": {
      "t_address": {
        "encoding": "inplace",
        "label": "address",
        "numberOfBytes": "20"
      },
      "t_array(t_struct(AllocationGroup)5869_storage)dyn_storage": {
        "base": "t_struct(AllocationGroup)5869_storage",
        "encoding": "dynamic_array",
        "label": "struct TopChef.AllocationGroup[]",
        "numberOfBytes": "32"
      },
      "t_bool": {
        "encoding": "inplace",
        "label": "bool",
        "numberOfBytes": "1"
      },
      "t_contract(MetricToken)3713": {
        "encoding": "inplace",
        "label": "contract MetricToken",
        "numberOfBytes": "20"
      },
      "t_mapping(t_address,t_bool)": {
        "encoding": "mapping",
        "key": "t_address",
        "label": "mapping(address => bool)",
        "numberOfBytes": "32",
        "value": "t_bool"
      },
      "t_struct(AllocationGroup)5869_storage": {
        "encoding": "inplace",
        "label": "struct TopChef.AllocationGroup",
        "members": [
          {
            "astId": 5860,
            "contract": "src/contracts/TopChef.sol:TopChef",
            "label": "groupAddress",
            "offset": 0,
            "slot": "0",
            "type": "t_address"
          },
          {
            "astId": 5862,
            "contract": "src/contracts/TopChef.sol:TopChef",
            "label": "shares",
            "offset": 0,
            "slot": "1",
            "type": "t_uint256"
          },
          {
            "astId": 5864,
            "contract": "src/contracts/TopChef.sol:TopChef",
            "label": "autodistribute",
            "offset": 0,
            "slot": "2",
            "type": "t_bool"
          },
          {
            "astId": 5866,
            "contract": "src/contracts/TopChef.sol:TopChef",
            "label": "rewardDebt",
            "offset": 0,
            "slot": "3",
            "type": "t_uint256"
          },
          {
            "astId": 5868,
            "contract": "src/contracts/TopChef.sol:TopChef",
            "label": "claimable",
            "offset": 0,
            "slot": "4",
            "type": "t_uint256"
          }
        ],
        "numberOfBytes": "160"
      },
      "t_uint256": {
        "encoding": "inplace",
        "label": "uint256",
        "numberOfBytes": "32"
      }
    }
  }
}