{
  "address": "0x5FC8d32690cc91D4c39d9d3abcBD16989F875707",
  "abi": [
    {
      "inputs": [
        {
          "internalType": "address",
          "name": "_metric",
          "type": "address"
        },
        {
          "internalType": "address",
          "name": "_vault",
          "type": "address"
        }
      ],
      "stateMutability": "nonpayable",
      "type": "constructor"
    },
    {
      "inputs": [],
      "name": "NotTheApi",
      "type": "error"
    },
    {
      "anonymous": false,
      "inputs": [
        {
          "indexed": true,
          "internalType": "address",
          "name": "previousOwner",
          "type": "address"
        },
        {
          "indexed": true,
          "internalType": "address",
          "name": "newOwner",
          "type": "address"
        }
      ],
      "name": "OwnershipTransferred",
      "type": "event"
    },
    {
      "inputs": [],
      "name": "createCost",
      "outputs": [
        {
          "internalType": "uint256",
          "name": "",
          "type": "uint256"
        }
      ],
      "stateMutability": "view",
      "type": "function"
    },
    {
      "inputs": [
        {
          "internalType": "address",
          "name": "_user",
          "type": "address"
        }
      ],
      "name": "getLockedPerUser",
      "outputs": [
        {
          "internalType": "uint256",
          "name": "",
          "type": "uint256"
        }
      ],
      "stateMutability": "view",
      "type": "function"
    },
    {
      "inputs": [],
      "name": "owner",
      "outputs": [
        {
          "internalType": "address",
          "name": "",
          "type": "address"
        }
      ],
      "stateMutability": "view",
      "type": "function"
    },
    {
      "inputs": [
        {
          "internalType": "address",
          "name": "_user",
          "type": "address"
        },
        {
          "internalType": "uint256",
          "name": "_questionId",
          "type": "uint256"
        }
      ],
      "name": "payForCreateQuestion",
      "outputs": [],
      "stateMutability": "nonpayable",
      "type": "function"
    },
    {
      "inputs": [],
      "name": "questionApi",
      "outputs": [
        {
          "internalType": "address",
          "name": "",
          "type": "address"
        }
      ],
      "stateMutability": "view",
      "type": "function"
    },
    {
      "inputs": [],
      "name": "renounceOwnership",
      "outputs": [],
      "stateMutability": "nonpayable",
      "type": "function"
    },
    {
      "inputs": [
        {
          "internalType": "uint256",
          "name": "_cost",
          "type": "uint256"
        }
      ],
      "name": "setCreateCost",
      "outputs": [],
      "stateMutability": "nonpayable",
      "type": "function"
    },
    {
      "inputs": [
        {
          "internalType": "address",
          "name": "_metric",
          "type": "address"
        }
      ],
      "name": "setMetric",
      "outputs": [],
      "stateMutability": "nonpayable",
      "type": "function"
    },
    {
      "inputs": [
        {
          "internalType": "address",
          "name": "_newApi",
          "type": "address"
        }
      ],
      "name": "setQuestionApi",
      "outputs": [],
      "stateMutability": "nonpayable",
      "type": "function"
    },
    {
      "inputs": [
        {
          "internalType": "address",
          "name": "newOwner",
          "type": "address"
        }
      ],
      "name": "transferOwnership",
      "outputs": [],
      "stateMutability": "nonpayable",
      "type": "function"
    }
  ],
  "transactionHash": "0xdb7b0d6fff26d4fd71a64283dbfe94d4f1882a9df3bc1d921882d35ffc83da05",
  "args": [
    "0x5FbDB2315678afecb367f032d93F642f64180aa3",
    "0xDc64a140Aa3E981100a9becA4E685f962f0cF6C9"
  ],
  "numDeployments": 1,
  "solcInputHash": "da832cf33e970a25c26f6a4223c0aa85",
  "bytecode": "0x60806040523480156200001157600080fd5b5060405162000e3438038062000e34833981810160405281019062000037919062000226565b620000576200004b620000f060201b60201c565b620000f860201b60201c565b81600260006101000a81548173ffffffffffffffffffffffffffffffffffffffff021916908373ffffffffffffffffffffffffffffffffffffffff16021790555080600360006101000a81548173ffffffffffffffffffffffffffffffffffffffff021916908373ffffffffffffffffffffffffffffffffffffffff160217905550670de0b6b3a764000060048190555050506200026d565b600033905090565b60008060009054906101000a900473ffffffffffffffffffffffffffffffffffffffff169050816000806101000a81548173ffffffffffffffffffffffffffffffffffffffff021916908373ffffffffffffffffffffffffffffffffffffffff1602179055508173ffffffffffffffffffffffffffffffffffffffff168173ffffffffffffffffffffffffffffffffffffffff167f8be0079c531659141344cd1fd0a4f28419497f9722a3daafe3b4186f6b6457e060405160405180910390a35050565b600080fd5b600073ffffffffffffffffffffffffffffffffffffffff82169050919050565b6000620001ee82620001c1565b9050919050565b6200020081620001e1565b81146200020c57600080fd5b50565b6000815190506200022081620001f5565b92915050565b6000806040838503121562000240576200023f620001bc565b5b600062000250858286016200020f565b925050602062000263858286016200020f565b9150509250929050565b610bb7806200027d6000396000f3fe608060405234801561001057600080fd5b506004361061009e5760003560e01c80638da5cb5b116100665780638da5cb5b14610133578063ba0bd64a14610151578063c0875dfd1461016f578063c7bca4091461018b578063f2fde38b146101a75761009e565b8063186a8131146100a357806347365f5c146100bf5780636baef497146100db578063715018a6146100f957806377f72a0114610103575b600080fd5b6100bd60048036038101906100b891906108c8565b6101c3565b005b6100d960048036038101906100d49190610908565b610340565b005b6100e3610400565b6040516100f09190610944565b60405180910390f35b610101610426565b005b61011d60048036038101906101189190610908565b6104ae565b60405161012a919061096e565b60405180910390f35b61013b6104f7565b6040516101489190610944565b60405180910390f35b610159610520565b604051610166919061096e565b60405180910390f35b61018960048036038101906101849190610908565b610526565b005b6101a560048036038101906101a09190610989565b6105e6565b005b6101c160048036038101906101bc9190610908565b61066c565b005b600160009054906101000a900473ffffffffffffffffffffffffffffffffffffffff1673ffffffffffffffffffffffffffffffffffffffff16610204610763565b73ffffffffffffffffffffffffffffffffffffffff1614610251576040517f92471d5b00000000000000000000000000000000000000000000000000000000815260040160405180910390fd5b600454600560008473ffffffffffffffffffffffffffffffffffffffff1673ffffffffffffffffffffffffffffffffffffffff16815260200190815260200160002060008282546102a291906109e5565b92505081905550600360009054906101000a900473ffffffffffffffffffffffffffffffffffffffff1673ffffffffffffffffffffffffffffffffffffffff1663dd55fee783600454846040518463ffffffff1660e01b815260040161030a93929190610a3b565b600060405180830381600087803b15801561032457600080fd5b505af1158015610338573d6000803e3d6000fd5b505050505050565b610348610763565b73ffffffffffffffffffffffffffffffffffffffff166103666104f7565b73ffffffffffffffffffffffffffffffffffffffff16146103bc576040517f08c379a00000000000000000000000000000000000000000000000000000000081526004016103b390610acf565b60405180910390fd5b80600260006101000a81548173ffffffffffffffffffffffffffffffffffffffff021916908373ffffffffffffffffffffffffffffffffffffffff16021790555050565b600160009054906101000a900473ffffffffffffffffffffffffffffffffffffffff1681565b61042e610763565b73ffffffffffffffffffffffffffffffffffffffff1661044c6104f7565b73ffffffffffffffffffffffffffffffffffffffff16146104a2576040517f08c379a000000000000000000000000000000000000000000000000000000000815260040161049990610acf565b60405180910390fd5b6104ac600061076b565b565b6000600560008373ffffffffffffffffffffffffffffffffffffffff1673ffffffffffffffffffffffffffffffffffffffff168152602001908152602001600020549050919050565b60008060009054906101000a900473ffffffffffffffffffffffffffffffffffffffff16905090565b60045481565b61052e610763565b73ffffffffffffffffffffffffffffffffffffffff1661054c6104f7565b73ffffffffffffffffffffffffffffffffffffffff16146105a2576040517f08c379a000000000000000000000000000000000000000000000000000000000815260040161059990610acf565b60405180910390fd5b80600160006101000a81548173ffffffffffffffffffffffffffffffffffffffff021916908373ffffffffffffffffffffffffffffffffffffffff16021790555050565b6105ee610763565b73ffffffffffffffffffffffffffffffffffffffff1661060c6104f7565b73ffffffffffffffffffffffffffffffffffffffff1614610662576040517f08c379a000000000000000000000000000000000000000000000000000000000815260040161065990610acf565b60405180910390fd5b8060048190555050565b610674610763565b73ffffffffffffffffffffffffffffffffffffffff166106926104f7565b73ffffffffffffffffffffffffffffffffffffffff16146106e8576040517f08c379a00000000000000000000000000000000000000000000000000000000081526004016106df90610acf565b60405180910390fd5b600073ffffffffffffffffffffffffffffffffffffffff168173ffffffffffffffffffffffffffffffffffffffff1603610757576040517f08c379a000000000000000000000000000000000000000000000000000000000815260040161074e90610b61565b60405180910390fd5b6107608161076b565b50565b600033905090565b60008060009054906101000a900473ffffffffffffffffffffffffffffffffffffffff169050816000806101000a81548173ffffffffffffffffffffffffffffffffffffffff021916908373ffffffffffffffffffffffffffffffffffffffff1602179055508173ffffffffffffffffffffffffffffffffffffffff168173ffffffffffffffffffffffffffffffffffffffff167f8be0079c531659141344cd1fd0a4f28419497f9722a3daafe3b4186f6b6457e060405160405180910390a35050565b600080fd5b600073ffffffffffffffffffffffffffffffffffffffff82169050919050565b600061085f82610834565b9050919050565b61086f81610854565b811461087a57600080fd5b50565b60008135905061088c81610866565b92915050565b6000819050919050565b6108a581610892565b81146108b057600080fd5b50565b6000813590506108c28161089c565b92915050565b600080604083850312156108df576108de61082f565b5b60006108ed8582860161087d565b92505060206108fe858286016108b3565b9150509250929050565b60006020828403121561091e5761091d61082f565b5b600061092c8482850161087d565b91505092915050565b61093e81610854565b82525050565b60006020820190506109596000830184610935565b92915050565b61096881610892565b82525050565b6000602082019050610983600083018461095f565b92915050565b60006020828403121561099f5761099e61082f565b5b60006109ad848285016108b3565b91505092915050565b7f4e487b7100000000000000000000000000000000000000000000000000000000600052601160045260246000fd5b60006109f082610892565b91506109fb83610892565b9250827fffffffffffffffffffffffffffffffffffffffffffffffffffffffffffffffff03821115610a3057610a2f6109b6565b5b828201905092915050565b6000606082019050610a506000830186610935565b610a5d602083018561095f565b610a6a604083018461095f565b949350505050565b600082825260208201905092915050565b7f4f776e61626c653a2063616c6c6572206973206e6f7420746865206f776e6572600082015250565b6000610ab9602083610a72565b9150610ac482610a83565b602082019050919050565b60006020820190508181036000830152610ae881610aac565b9050919050565b7f4f776e61626c653a206e6577206f776e657220697320746865207a65726f206160008201527f6464726573730000000000000000000000000000000000000000000000000000602082015250565b6000610b4b602683610a72565b9150610b5682610aef565b604082019050919050565b60006020820190508181036000830152610b7a81610b3e565b905091905056fea2646970667358221220c8c7ae42c77ae10c7339ae1f794339a145c2c1fc1ca645ce3c39c19ed5ed538264736f6c634300080d0033",
  "devdoc": {
    "kind": "dev",
    "methods": {
      "owner()": {
        "details": "Returns the address of the current owner."
      },
      "payForCreateQuestion(address,uint256)": {
        "params": {
          "_user": "The address of the user who wants to pay for creating a question."
        }
      },
      "renounceOwnership()": {
        "details": "Leaves the contract without owner. It will not be possible to call `onlyOwner` functions anymore. Can only be called by the current owner. NOTE: Renouncing ownership will leave the contract without an owner, thereby removing any functionality that is only available to the owner."
      },
      "setCreateCost(uint256)": {
        "params": {
          "_cost": "The new cost of creating a question"
        }
      },
      "setQuestionApi(address)": {
        "params": {
          "_newApi": "The new address of the question API."
        }
      },
      "transferOwnership(address)": {
        "details": "Transfers ownership of the contract to a new account (`newOwner`). Can only be called by the current owner."
      }
    },
    "version": 1
  },
  "userdoc": {
    "kind": "user",
    "methods": {
      "payForCreateQuestion(address,uint256)": {
        "notice": "Makes a user pay for creating a question.  We transfer the funds from the user executing the function to  the contract."
      },
      "setCreateCost(uint256)": {
        "notice": "Changes the cost of creating a question"
      },
      "setQuestionApi(address)": {
        "notice": "Sets the address of the question API."
      }
    },
    "version": 1
  },
  "storageLayout": {
    "storage": [
      {
        "astId": 7,
        "contract": "src/contracts/Protocol/ActionCostController.sol:ActionCostController",
        "label": "_owner",
        "offset": 0,
        "slot": "0",
        "type": "t_address"
      },
      {
        "astId": 3177,
        "contract": "src/contracts/Protocol/ActionCostController.sol:ActionCostController",
        "label": "questionApi",
        "offset": 0,
        "slot": "1",
        "type": "t_address"
      },
      {
        "astId": 1585,
        "contract": "src/contracts/Protocol/ActionCostController.sol:ActionCostController",
        "label": "metric",
        "offset": 0,
        "slot": "2",
        "type": "t_contract(IERC20)773"
      },
      {
        "astId": 1588,
        "contract": "src/contracts/Protocol/ActionCostController.sol:ActionCostController",
        "label": "vault",
        "offset": 0,
        "slot": "3",
        "type": "t_contract(Vault)3012"
      },
      {
        "astId": 1590,
        "contract": "src/contracts/Protocol/ActionCostController.sol:ActionCostController",
        "label": "createCost",
        "offset": 0,
        "slot": "4",
        "type": "t_uint256"
      },
      {
        "astId": 1594,
        "contract": "src/contracts/Protocol/ActionCostController.sol:ActionCostController",
        "label": "lockedPerUser",
        "offset": 0,
        "slot": "5",
        "type": "t_mapping(t_address,t_uint256)"
      }
    ],
    "types": {
      "t_address": {
        "encoding": "inplace",
        "label": "address",
        "numberOfBytes": "20"
      },
      "t_contract(IERC20)773": {
        "encoding": "inplace",
        "label": "contract IERC20",
        "numberOfBytes": "20"
      },
      "t_contract(Vault)3012": {
        "encoding": "inplace",
        "label": "contract Vault",
        "numberOfBytes": "20"
      },
      "t_mapping(t_address,t_uint256)": {
        "encoding": "mapping",
        "key": "t_address",
        "label": "mapping(address => uint256)",
        "numberOfBytes": "32",
        "value": "t_uint256"
      },
      "t_uint256": {
        "encoding": "inplace",
        "label": "uint256",
        "numberOfBytes": "32"
      }
    }
  }
}