{
  "address": "0x5FC8d32690cc91D4c39d9d3abcBD16989F875707",
  "abi": [
    {
      "inputs": [
        {
          "internalType": "address",
          "name": "_metric",
          "type": "address"
        },
        {
          "internalType": "address",
          "name": "_vault",
          "type": "address"
        }
      ],
      "stateMutability": "nonpayable",
      "type": "constructor"
    },
    {
      "inputs": [],
      "name": "NotTheApi",
      "type": "error"
    },
    {
      "anonymous": false,
      "inputs": [
        {
          "indexed": true,
          "internalType": "address",
          "name": "previousOwner",
          "type": "address"
        },
        {
          "indexed": true,
          "internalType": "address",
          "name": "newOwner",
          "type": "address"
        }
      ],
      "name": "OwnershipTransferred",
      "type": "event"
    },
    {
      "inputs": [],
      "name": "createCost",
      "outputs": [
        {
          "internalType": "uint256",
          "name": "",
          "type": "uint256"
        }
      ],
      "stateMutability": "view",
      "type": "function"
    },
    {
      "inputs": [],
      "name": "owner",
      "outputs": [
        {
          "internalType": "address",
          "name": "",
          "type": "address"
        }
      ],
      "stateMutability": "view",
      "type": "function"
    },
    {
      "inputs": [
        {
          "internalType": "address",
          "name": "_user",
          "type": "address"
        },
        {
          "internalType": "uint256",
          "name": "questionId",
          "type": "uint256"
        }
      ],
      "name": "payForCreateQuestion",
      "outputs": [],
      "stateMutability": "nonpayable",
      "type": "function"
    },
    {
      "inputs": [
        {
          "internalType": "address",
          "name": "user",
          "type": "address"
        },
        {
          "internalType": "uint256",
          "name": "questionId",
          "type": "uint256"
        }
      ],
      "name": "payForVoting",
      "outputs": [],
      "stateMutability": "nonpayable",
      "type": "function"
    },
    {
      "inputs": [],
      "name": "questionApi",
      "outputs": [
        {
          "internalType": "address",
          "name": "",
          "type": "address"
        }
      ],
      "stateMutability": "view",
      "type": "function"
    },
    {
      "inputs": [],
      "name": "renounceOwnership",
      "outputs": [],
      "stateMutability": "nonpayable",
      "type": "function"
    },
    {
      "inputs": [
        {
          "internalType": "uint256",
          "name": "_cost",
          "type": "uint256"
        }
      ],
      "name": "setCreateCost",
      "outputs": [],
      "stateMutability": "nonpayable",
      "type": "function"
    },
    {
      "inputs": [
        {
          "internalType": "address",
          "name": "_metric",
          "type": "address"
        }
      ],
      "name": "setMetric",
      "outputs": [],
      "stateMutability": "nonpayable",
      "type": "function"
    },
    {
      "inputs": [
        {
          "internalType": "address",
          "name": "_newApi",
          "type": "address"
        }
      ],
      "name": "setQuestionApi",
      "outputs": [],
      "stateMutability": "nonpayable",
      "type": "function"
    },
    {
      "inputs": [
        {
          "internalType": "uint256",
          "name": "_cost",
          "type": "uint256"
        }
      ],
      "name": "setVoteCost",
      "outputs": [],
      "stateMutability": "nonpayable",
      "type": "function"
    },
    {
      "inputs": [
        {
          "internalType": "address",
          "name": "newOwner",
          "type": "address"
        }
      ],
      "name": "transferOwnership",
      "outputs": [],
      "stateMutability": "nonpayable",
      "type": "function"
    },
    {
      "inputs": [],
      "name": "voteCost",
      "outputs": [
        {
          "internalType": "uint256",
          "name": "",
          "type": "uint256"
        }
      ],
      "stateMutability": "view",
      "type": "function"
    }
  ],
  "transactionHash": "0xb826dd9824cf56df4300effafa6c9156eee865ecc8a99c24327b3f951f3a31f9",
  "args": [
    "0x5FbDB2315678afecb367f032d93F642f64180aa3",
    "0xDc64a140Aa3E981100a9becA4E685f962f0cF6C9"
  ],
  "numDeployments": 1,
  "solcInputHash": "23a5c42ffdc6fce9090df76d82673573",
  "bytecode": "0x60806040523480156200001157600080fd5b5060405162000f6338038062000f63833981810160405281019062000037919062000235565b620000576200004b620000ff60201b60201c565b6200010760201b60201c565b81600260006101000a81548173ffffffffffffffffffffffffffffffffffffffff021916908373ffffffffffffffffffffffffffffffffffffffff16021790555080600360006101000a81548173ffffffffffffffffffffffffffffffffffffffff021916908373ffffffffffffffffffffffffffffffffffffffff160217905550670de0b6b3a7640000600481905550670de0b6b3a764000060058190555050506200027c565b600033905090565b60008060009054906101000a900473ffffffffffffffffffffffffffffffffffffffff169050816000806101000a81548173ffffffffffffffffffffffffffffffffffffffff021916908373ffffffffffffffffffffffffffffffffffffffff1602179055508173ffffffffffffffffffffffffffffffffffffffff168173ffffffffffffffffffffffffffffffffffffffff167f8be0079c531659141344cd1fd0a4f28419497f9722a3daafe3b4186f6b6457e060405160405180910390a35050565b600080fd5b600073ffffffffffffffffffffffffffffffffffffffff82169050919050565b6000620001fd82620001d0565b9050919050565b6200020f81620001f0565b81146200021b57600080fd5b50565b6000815190506200022f8162000204565b92915050565b600080604083850312156200024f576200024e620001cb565b5b60006200025f858286016200021e565b925050602062000272858286016200021e565b9150509250929050565b610cd7806200028c6000396000f3fe608060405234801561001057600080fd5b50600436106100b45760003560e01c8063715018a611610071578063715018a6146101655780638da5cb5b1461016f578063ba0bd64a1461018d578063c0875dfd146101ab578063c7bca409146101c7578063f2fde38b146101e3576100b4565b8063186a8131146100b9578063308879bf146100d557806347365f5c146100f15780634c1b8ffd1461010d5780636baef4971461012b578063708f7c7d14610149575b600080fd5b6100d360048036038101906100ce9190610a1a565b6101ff565b005b6100ef60048036038101906100ea9190610a5a565b610327565b005b61010b60048036038101906101069190610a87565b6103ad565b005b61011561046d565b6040516101229190610ac3565b60405180910390f35b610133610473565b6040516101409190610aed565b60405180910390f35b610163600480360381019061015e9190610a1a565b610499565b005b61016d6105c1565b005b610177610649565b6040516101849190610aed565b60405180910390f35b610195610672565b6040516101a29190610ac3565b60405180910390f35b6101c560048036038101906101c09190610a87565b610678565b005b6101e160048036038101906101dc9190610a5a565b610738565b005b6101fd60048036038101906101f89190610a87565b6107be565b005b600160009054906101000a900473ffffffffffffffffffffffffffffffffffffffff1673ffffffffffffffffffffffffffffffffffffffff166102406108b5565b73ffffffffffffffffffffffffffffffffffffffff161461028d576040517f92471d5b00000000000000000000000000000000000000000000000000000000815260040160405180910390fd5b600360009054906101000a900473ffffffffffffffffffffffffffffffffffffffff1673ffffffffffffffffffffffffffffffffffffffff1663074a8ed4836004548460006040518563ffffffff1660e01b81526004016102f19493929190610b4d565b600060405180830381600087803b15801561030b57600080fd5b505af115801561031f573d6000803e3d6000fd5b505050505050565b61032f6108b5565b73ffffffffffffffffffffffffffffffffffffffff1661034d610649565b73ffffffffffffffffffffffffffffffffffffffff16146103a3576040517f08c379a000000000000000000000000000000000000000000000000000000000815260040161039a90610bef565b60405180910390fd5b8060058190555050565b6103b56108b5565b73ffffffffffffffffffffffffffffffffffffffff166103d3610649565b73ffffffffffffffffffffffffffffffffffffffff1614610429576040517f08c379a000000000000000000000000000000000000000000000000000000000815260040161042090610bef565b60405180910390fd5b80600260006101000a81548173ffffffffffffffffffffffffffffffffffffffff021916908373ffffffffffffffffffffffffffffffffffffffff16021790555050565b60055481565b600160009054906101000a900473ffffffffffffffffffffffffffffffffffffffff1681565b600160009054906101000a900473ffffffffffffffffffffffffffffffffffffffff1673ffffffffffffffffffffffffffffffffffffffff166104da6108b5565b73ffffffffffffffffffffffffffffffffffffffff1614610527576040517f92471d5b00000000000000000000000000000000000000000000000000000000815260040160405180910390fd5b600360009054906101000a900473ffffffffffffffffffffffffffffffffffffffff1673ffffffffffffffffffffffffffffffffffffffff1663074a8ed4836005548460006040518563ffffffff1660e01b815260040161058b9493929190610b4d565b600060405180830381600087803b1580156105a557600080fd5b505af11580156105b9573d6000803e3d6000fd5b505050505050565b6105c96108b5565b73ffffffffffffffffffffffffffffffffffffffff166105e7610649565b73ffffffffffffffffffffffffffffffffffffffff161461063d576040517f08c379a000000000000000000000000000000000000000000000000000000000815260040161063490610bef565b60405180910390fd5b61064760006108bd565b565b60008060009054906101000a900473ffffffffffffffffffffffffffffffffffffffff16905090565b60045481565b6106806108b5565b73ffffffffffffffffffffffffffffffffffffffff1661069e610649565b73ffffffffffffffffffffffffffffffffffffffff16146106f4576040517f08c379a00000000000000000000000000000000000000000000000000000000081526004016106eb90610bef565b60405180910390fd5b80600160006101000a81548173ffffffffffffffffffffffffffffffffffffffff021916908373ffffffffffffffffffffffffffffffffffffffff16021790555050565b6107406108b5565b73ffffffffffffffffffffffffffffffffffffffff1661075e610649565b73ffffffffffffffffffffffffffffffffffffffff16146107b4576040517f08c379a00000000000000000000000000000000000000000000000000000000081526004016107ab90610bef565b60405180910390fd5b8060048190555050565b6107c66108b5565b73ffffffffffffffffffffffffffffffffffffffff166107e4610649565b73ffffffffffffffffffffffffffffffffffffffff161461083a576040517f08c379a000000000000000000000000000000000000000000000000000000000815260040161083190610bef565b60405180910390fd5b600073ffffffffffffffffffffffffffffffffffffffff168173ffffffffffffffffffffffffffffffffffffffff16036108a9576040517f08c379a00000000000000000000000000000000000000000000000000000000081526004016108a090610c81565b60405180910390fd5b6108b2816108bd565b50565b600033905090565b60008060009054906101000a900473ffffffffffffffffffffffffffffffffffffffff169050816000806101000a81548173ffffffffffffffffffffffffffffffffffffffff021916908373ffffffffffffffffffffffffffffffffffffffff1602179055508173ffffffffffffffffffffffffffffffffffffffff168173ffffffffffffffffffffffffffffffffffffffff167f8be0079c531659141344cd1fd0a4f28419497f9722a3daafe3b4186f6b6457e060405160405180910390a35050565b600080fd5b600073ffffffffffffffffffffffffffffffffffffffff82169050919050565b60006109b182610986565b9050919050565b6109c1816109a6565b81146109cc57600080fd5b50565b6000813590506109de816109b8565b92915050565b6000819050919050565b6109f7816109e4565b8114610a0257600080fd5b50565b600081359050610a14816109ee565b92915050565b60008060408385031215610a3157610a30610981565b5b6000610a3f858286016109cf565b9250506020610a5085828601610a05565b9150509250929050565b600060208284031215610a7057610a6f610981565b5b6000610a7e84828501610a05565b91505092915050565b600060208284031215610a9d57610a9c610981565b5b6000610aab848285016109cf565b91505092915050565b610abd816109e4565b82525050565b6000602082019050610ad86000830184610ab4565b92915050565b610ae7816109a6565b82525050565b6000602082019050610b026000830184610ade565b92915050565b6000819050919050565b6000819050919050565b6000610b37610b32610b2d84610b08565b610b12565b6109e4565b9050919050565b610b4781610b1c565b82525050565b6000608082019050610b626000830187610ade565b610b6f6020830186610ab4565b610b7c6040830185610ab4565b610b896060830184610b3e565b95945050505050565b600082825260208201905092915050565b7f4f776e61626c653a2063616c6c6572206973206e6f7420746865206f776e6572600082015250565b6000610bd9602083610b92565b9150610be482610ba3565b602082019050919050565b60006020820190508181036000830152610c0881610bcc565b9050919050565b7f4f776e61626c653a206e6577206f776e657220697320746865207a65726f206160008201527f6464726573730000000000000000000000000000000000000000000000000000602082015250565b6000610c6b602683610b92565b9150610c7682610c0f565b604082019050919050565b60006020820190508181036000830152610c9a81610c5e565b905091905056fea2646970667358221220a8fe91d339bca13998c5574dca215fddbf918e497c30881d0935cb396803fd1c64736f6c634300080d0033",
  "devdoc": {
    "kind": "dev",
    "methods": {
      "owner()": {
        "details": "Returns the address of the current owner."
      },
      "payForCreateQuestion(address,uint256)": {
        "params": {
          "_user": "The address of the user who wants to pay for creating a question."
        }
      },
      "payForVoting(address,uint256)": {
        "params": {
          "user": "The address of the user who wants to pay for voting on a question."
        }
      },
      "renounceOwnership()": {
        "details": "Leaves the contract without owner. It will not be possible to call `onlyOwner` functions anymore. Can only be called by the current owner. NOTE: Renouncing ownership will leave the contract without an owner, thereby removing any functionality that is only available to the owner."
      },
      "setCreateCost(uint256)": {
        "params": {
          "_cost": "The new cost of creating a question"
        }
      },
      "setQuestionApi(address)": {
        "params": {
          "_newApi": "The new address of the question API."
        }
      },
      "setVoteCost(uint256)": {
        "params": {
          "_cost": "The new cost of voting for a question"
        }
      },
      "transferOwnership(address)": {
        "details": "Transfers ownership of the contract to a new account (`newOwner`). Can only be called by the current owner."
      }
    },
    "version": 1
  },
  "userdoc": {
    "kind": "user",
    "methods": {
      "payForCreateQuestion(address,uint256)": {
        "notice": "Makes a user pay for creating a question.  We transfer the funds from the user executing the function to  the contract."
      },
      "payForVoting(address,uint256)": {
        "notice": "Makes a user pay for voting on a question.  We transfer the funds from the user executing the function to  the contract."
      },
      "setCreateCost(uint256)": {
        "notice": "Changes the cost of creating a question"
      },
      "setQuestionApi(address)": {
        "notice": "Sets the address of the question API."
      },
      "setVoteCost(uint256)": {
        "notice": "Changes the cost of voting for a question"
      }
    },
    "version": 1
  },
  "storageLayout": {
    "storage": [
      {
        "astId": 7,
        "contract": "src/contracts/Protocol/ActionCostController.sol:ActionCostController",
        "label": "_owner",
        "offset": 0,
        "slot": "0",
        "type": "t_address"
      },
      {
        "astId": 5494,
        "contract": "src/contracts/Protocol/ActionCostController.sol:ActionCostController",
        "label": "questionApi",
        "offset": 0,
        "slot": "1",
        "type": "t_address"
      },
      {
        "astId": 3240,
        "contract": "src/contracts/Protocol/ActionCostController.sol:ActionCostController",
        "label": "metric",
        "offset": 0,
        "slot": "2",
        "type": "t_contract(IERC20)865"
      },
      {
        "astId": 3243,
        "contract": "src/contracts/Protocol/ActionCostController.sol:ActionCostController",
        "label": "vault",
        "offset": 0,
        "slot": "3",
        "type": "t_contract(Vault)5292"
      },
      {
        "astId": 3245,
        "contract": "src/contracts/Protocol/ActionCostController.sol:ActionCostController",
        "label": "createCost",
        "offset": 0,
        "slot": "4",
        "type": "t_uint256"
      },
      {
        "astId": 3247,
        "contract": "src/contracts/Protocol/ActionCostController.sol:ActionCostController",
        "label": "voteCost",
        "offset": 0,
        "slot": "5",
        "type": "t_uint256"
      }
    ],
    "types": {
      "t_address": {
        "encoding": "inplace",
        "label": "address",
        "numberOfBytes": "20"
      },
      "t_contract(IERC20)865": {
        "encoding": "inplace",
        "label": "contract IERC20",
        "numberOfBytes": "20"
      },
      "t_contract(Vault)5292": {
        "encoding": "inplace",
        "label": "contract Vault",
        "numberOfBytes": "20"
      },
      "t_uint256": {
        "encoding": "inplace",
        "label": "uint256",
        "numberOfBytes": "32"
      }
    }
  }
}