{
  "address": "0x0165878A594ca255338adfa4d48449f69242Eb8F",
  "abi": [
    {
      "inputs": [
        {
          "internalType": "address",
          "name": "bountyQuestion",
          "type": "address"
        },
        {
          "internalType": "address",
          "name": "questionStateController",
          "type": "address"
        },
        {
          "internalType": "address",
          "name": "claimController",
          "type": "address"
        },
        {
          "internalType": "address",
          "name": "costController",
          "type": "address"
        }
      ],
      "stateMutability": "nonpayable",
      "type": "constructor"
    },
    {
      "inputs": [],
      "name": "CannotVoteForOwnQuestion",
      "type": "error"
    },
    {
      "inputs": [],
      "name": "ClaimsNotOpen",
      "type": "error"
    },
    {
      "inputs": [],
      "name": "DoesNotHold",
      "type": "error"
    },
    {
      "inputs": [],
      "name": "FunctionIsLocked",
      "type": "error"
    },
    {
      "inputs": [],
      "name": "InvalidAddress",
      "type": "error"
    },
    {
      "inputs": [],
      "name": "NotAtBenchmark",
      "type": "error"
    },
    {
      "anonymous": false,
      "inputs": [
        {
          "indexed": true,
          "internalType": "uint256",
          "name": "questionId",
          "type": "uint256"
        },
        {
          "indexed": true,
          "internalType": "address",
          "name": "challengeCreator",
          "type": "address"
        }
      ],
      "name": "ChallengeCreated",
      "type": "event"
    },
    {
      "anonymous": false,
      "inputs": [
        {
          "indexed": true,
          "internalType": "address",
          "name": "previousOwner",
          "type": "address"
        },
        {
          "indexed": true,
          "internalType": "address",
          "name": "newOwner",
          "type": "address"
        }
      ],
      "name": "OwnershipTransferred",
      "type": "event"
    },
    {
      "anonymous": false,
      "inputs": [
        {
          "indexed": true,
          "internalType": "uint256",
          "name": "questionId",
          "type": "uint256"
        },
        {
          "indexed": true,
          "internalType": "address",
          "name": "answerer",
          "type": "address"
        }
      ],
      "name": "QuestionAnswered",
      "type": "event"
    },
    {
      "anonymous": false,
      "inputs": [
        {
          "indexed": true,
          "internalType": "uint256",
          "name": "questionId",
          "type": "uint256"
        },
        {
          "indexed": true,
          "internalType": "address",
          "name": "claimant",
          "type": "address"
        }
      ],
      "name": "QuestionClaimed",
      "type": "event"
    },
    {
      "anonymous": false,
      "inputs": [
        {
          "indexed": true,
          "internalType": "uint256",
          "name": "questionId",
          "type": "uint256"
        },
        {
          "indexed": true,
          "internalType": "address",
          "name": "creator",
          "type": "address"
        }
      ],
      "name": "QuestionCreated",
      "type": "event"
    },
    {
      "anonymous": false,
      "inputs": [
        {
          "indexed": true,
          "internalType": "uint256",
          "name": "questionId",
          "type": "uint256"
        },
        {
          "indexed": true,
          "internalType": "address",
          "name": "disqualifier",
          "type": "address"
        }
      ],
      "name": "QuestionDisqualified",
      "type": "event"
    },
    {
      "anonymous": false,
      "inputs": [
        {
          "indexed": true,
          "internalType": "uint256",
          "name": "questionId",
          "type": "uint256"
        },
        {
          "indexed": true,
          "internalType": "address",
          "name": "publisher",
          "type": "address"
        }
      ],
      "name": "QuestionPublished",
      "type": "event"
    },
    {
      "anonymous": false,
      "inputs": [
        {
          "indexed": true,
          "internalType": "uint256",
          "name": "questionId",
          "type": "uint256"
        },
        {
          "indexed": true,
          "internalType": "address",
          "name": "voter",
          "type": "address"
        }
      ],
      "name": "QuestionUnvoted",
      "type": "event"
    },
    {
      "anonymous": false,
      "inputs": [
        {
          "indexed": true,
          "internalType": "uint256",
          "name": "questionId",
          "type": "uint256"
        },
        {
          "indexed": true,
          "internalType": "address",
          "name": "voter",
          "type": "address"
        }
      ],
      "name": "QuestionUpvoted",
      "type": "event"
    },
    {
      "inputs": [],
      "name": "ADMIN_ROLE",
      "outputs": [
        {
          "internalType": "bytes32",
          "name": "",
          "type": "bytes32"
        }
      ],
      "stateMutability": "view",
      "type": "function"
    },
    {
      "inputs": [],
      "name": "PROGRAM_MANAGER_ROLE",
      "outputs": [
        {
          "internalType": "bytes32",
          "name": "",
          "type": "bytes32"
        }
      ],
      "stateMutability": "view",
      "type": "function"
    },
    {
      "inputs": [
        {
          "internalType": "bytes32",
          "name": "role",
          "type": "bytes32"
        },
        {
          "internalType": "address",
          "name": "nft",
          "type": "address"
        }
      ],
      "name": "addHolderRole",
      "outputs": [],
      "stateMutability": "nonpayable",
      "type": "function"
    },
    {
      "inputs": [
        {
          "internalType": "uint256",
          "name": "questionId",
          "type": "uint256"
        },
        {
          "internalType": "string",
          "name": "answerURL",
          "type": "string"
        }
      ],
      "name": "answerQuestion",
      "outputs": [],
      "stateMutability": "nonpayable",
      "type": "function"
    },
    {
      "inputs": [
        {
          "internalType": "uint256",
          "name": "questionId",
          "type": "uint256"
        }
      ],
      "name": "claimQuestion",
      "outputs": [],
      "stateMutability": "nonpayable",
      "type": "function"
    },
    {
      "inputs": [
        {
          "internalType": "string",
          "name": "uri",
          "type": "string"
        },
        {
          "internalType": "uint256",
          "name": "claimLimit",
          "type": "uint256"
        }
      ],
      "name": "createChallenge",
      "outputs": [
        {
          "internalType": "uint256",
          "name": "",
          "type": "uint256"
        }
      ],
      "stateMutability": "nonpayable",
      "type": "function"
    },
    {
      "inputs": [
        {
          "internalType": "string",
          "name": "uri",
          "type": "string"
        },
        {
          "internalType": "uint256",
          "name": "claimLimit",
          "type": "uint256"
        }
      ],
      "name": "createQuestion",
      "outputs": [
        {
          "internalType": "uint256",
          "name": "",
          "type": "uint256"
        }
      ],
      "stateMutability": "nonpayable",
      "type": "function"
    },
    {
      "inputs": [
        {
          "internalType": "uint256",
          "name": "questionId",
          "type": "uint256"
        }
      ],
      "name": "disqualifyQuestion",
      "outputs": [],
      "stateMutability": "nonpayable",
      "type": "function"
    },
    {
      "inputs": [],
      "name": "owner",
      "outputs": [
        {
          "internalType": "address",
          "name": "",
          "type": "address"
        }
      ],
      "stateMutability": "view",
      "type": "function"
    },
    {
      "inputs": [
        {
          "internalType": "uint256",
          "name": "questionId",
          "type": "uint256"
        }
      ],
      "name": "publishQuestion",
      "outputs": [],
      "stateMutability": "nonpayable",
      "type": "function"
    },
    {
      "inputs": [],
      "name": "renounceOwnership",
      "outputs": [],
      "stateMutability": "nonpayable",
      "type": "function"
    },
    {
      "inputs": [
        {
          "internalType": "address",
          "name": "newQuestion",
          "type": "address"
        }
      ],
      "name": "setClaimController",
      "outputs": [],
      "stateMutability": "nonpayable",
      "type": "function"
    },
    {
      "inputs": [
        {
          "internalType": "address",
          "name": "newCost",
          "type": "address"
        }
      ],
      "name": "setCostController",
      "outputs": [],
      "stateMutability": "nonpayable",
      "type": "function"
    },
    {
      "inputs": [
        {
          "internalType": "address",
          "name": "newQuestion",
          "type": "address"
        }
      ],
      "name": "setQuestionProxy",
      "outputs": [],
      "stateMutability": "nonpayable",
      "type": "function"
    },
    {
      "inputs": [
        {
          "internalType": "address",
          "name": "newQuestion",
          "type": "address"
        }
      ],
      "name": "setQuestionStateController",
      "outputs": [],
      "stateMutability": "nonpayable",
      "type": "function"
    },
    {
      "inputs": [],
      "name": "toggleLock",
      "outputs": [],
      "stateMutability": "nonpayable",
      "type": "function"
    },
    {
      "inputs": [
        {
          "internalType": "address",
          "name": "newOwner",
          "type": "address"
        }
      ],
      "name": "transferOwnership",
      "outputs": [],
      "stateMutability": "nonpayable",
      "type": "function"
    },
    {
      "inputs": [
        {
          "internalType": "uint256",
          "name": "questionId",
          "type": "uint256"
        }
      ],
      "name": "unvoteQuestion",
      "outputs": [],
      "stateMutability": "nonpayable",
      "type": "function"
    },
    {
      "inputs": [
        {
          "internalType": "uint256",
          "name": "questionId",
          "type": "uint256"
        }
      ],
      "name": "upvoteQuestion",
      "outputs": [],
      "stateMutability": "nonpayable",
      "type": "function"
    }
  ],
  "transactionHash": "0x7a1ca059b5ec836c78ad2e2b6df7f8eb2c08205e8e7430fb50a4f88ff262cb7a",
  "args": [
    "0xe7f1725E7734CE288F8367e1Bb143E90bb3F0512",
    "0xCf7Ed3AccA5a467e9e704C703E8D87F634fB0Fc9",
    "0x9fE46736679d2D9a65F0992F2272dE9f3c7fa6e0",
    "0x5FC8d32690cc91D4c39d9d3abcBD16989F875707"
  ],
  "numDeployments": 1,
  "solcInputHash": "23a5c42ffdc6fce9090df76d82673573",
  "bytecode": "0x60806040523480156200001157600080fd5b50604051620025953803806200259583398181016040528101906200003791906200029b565b620000576200004b6200016560201b60201c565b6200016d60201b60201c565b83600260016101000a81548173ffffffffffffffffffffffffffffffffffffffff021916908373ffffffffffffffffffffffffffffffffffffffff16021790555082600360006101000a81548173ffffffffffffffffffffffffffffffffffffffff021916908373ffffffffffffffffffffffffffffffffffffffff16021790555081600460006101000a81548173ffffffffffffffffffffffffffffffffffffffff021916908373ffffffffffffffffffffffffffffffffffffffff16021790555080600560006101000a81548173ffffffffffffffffffffffffffffffffffffffff021916908373ffffffffffffffffffffffffffffffffffffffff160217905550505050506200030d565b600033905090565b60008060009054906101000a900473ffffffffffffffffffffffffffffffffffffffff169050816000806101000a81548173ffffffffffffffffffffffffffffffffffffffff021916908373ffffffffffffffffffffffffffffffffffffffff1602179055508173ffffffffffffffffffffffffffffffffffffffff168173ffffffffffffffffffffffffffffffffffffffff167f8be0079c531659141344cd1fd0a4f28419497f9722a3daafe3b4186f6b6457e060405160405180910390a35050565b600080fd5b600073ffffffffffffffffffffffffffffffffffffffff82169050919050565b6000620002638262000236565b9050919050565b620002758162000256565b81146200028157600080fd5b50565b60008151905062000295816200026a565b92915050565b60008060008060808587031215620002b857620002b762000231565b5b6000620002c88782880162000284565b9450506020620002db8782880162000284565b9350506040620002ee8782880162000284565b9250506060620003018782880162000284565b91505092959194509250565b612278806200031d6000396000f3fe608060405234801561001057600080fd5b50600436106101215760003560e01c80638da5cb5b116100ad578063e9d8c38111610071578063e9d8c381146102c8578063ec8f6777146102e6578063f0f6420114610302578063f2fde38b1461031e578063ff9413d81461033a57610121565b80638da5cb5b1461022657806398c9f1df146102445780639a6110b414610274578063bc41029714610290578063e11041c3146102ac57610121565b8063447e52a0116100f4578063447e52a0146101965780636ee5a1b1146101b2578063715018a6146101ce57806371959d69146101d857806375b238fc1461020857610121565b8063072d8e7e146101265780630ef4b531146101425780631919bcd61461015e578063314c3e981461017a575b600080fd5b610140600480360381019061013b9190611c6c565b610344565b005b61015c60048036038101906101579190611c6c565b610491565b005b61017860048036038101906101739190611cf7565b6106a3565b005b610194600480360381019061018f9190611d5a565b6107c9565b005b6101b060048036038101906101ab9190611dff565b61089b565b005b6101cc60048036038101906101c79190611c6c565b6109cc565b005b6101d6610ab0565b005b6101f260048036038101906101ed9190611e5f565b610b38565b6040516101ff9190611ece565b60405180910390f35b610210610df2565b60405161021d9190611ef8565b60405180910390f35b61022e610e16565b60405161023b9190611f22565b60405180910390f35b61025e60048036038101906102599190611e5f565b610e3f565b60405161026b9190611ece565b60405180910390f35b61028e60048036038101906102899190611c6c565b61111c565b005b6102aa60048036038101906102a59190611cf7565b6112ba565b005b6102c660048036038101906102c19190611c6c565b6113e0565b005b6102d0611661565b6040516102dd9190611ef8565b60405180910390f35b61030060048036038101906102fb9190611cf7565b611685565b005b61031c60048036038101906103179190611cf7565b6117ab565b005b61033860048036038101906103339190611cf7565b6118d1565b005b6103426119c8565b005b7fa49807205ce4d355092ef5a8a18f56e8913cf4a201fbe287825b095693c2177561036e81611a70565b600260009054906101000a900460ff16156103b5576040517f77e9811b00000000000000000000000000000000000000000000000000000000815260040160405180910390fd5b600360009054906101000a900473ffffffffffffffffffffffffffffffffffffffff1673ffffffffffffffffffffffffffffffffffffffff1663cc4ef119836040518263ffffffff1660e01b81526004016104109190611ece565b600060405180830381600087803b15801561042a57600080fd5b505af115801561043e573d6000803e3d6000fd5b5050505061044a611b60565b73ffffffffffffffffffffffffffffffffffffffff16827f48b3755b206fcea70a67e15db40f89daf0a8391f12082cc27d6c4412eb73158f60405160405180910390a35050565b600260009054906101000a900460ff16156104d8576040517f77e9811b00000000000000000000000000000000000000000000000000000000815260040160405180910390fd5b600260048111156104ec576104eb611f3d565b5b600360009054906101000a900473ffffffffffffffffffffffffffffffffffffffff1673ffffffffffffffffffffffffffffffffffffffff166344c9af28836040518263ffffffff1660e01b81526004016105479190611ece565b602060405180830381865afa158015610564573d6000803e3d6000fd5b505050506040513d601f19601f820116820180604052508101906105889190611f81565b146105bf576040517f3b03644900000000000000000000000000000000000000000000000000000000815260040160405180910390fd5b600460009054906101000a900473ffffffffffffffffffffffffffffffffffffffff1673ffffffffffffffffffffffffffffffffffffffff1663aad3ec96610605611b60565b836040518363ffffffff1660e01b8152600401610623929190611fae565b600060405180830381600087803b15801561063d57600080fd5b505af1158015610651573d6000803e3d6000fd5b5050505061065d611b60565b73ffffffffffffffffffffffffffffffffffffffff16817f8420685f160085bdc75c7d5265ef561ea88eb1ab5b58b0cd38b68babcf537cb560405160405180910390a350565b6106ab611b60565b73ffffffffffffffffffffffffffffffffffffffff166106c9610e16565b73ffffffffffffffffffffffffffffffffffffffff161461071f576040517f08c379a000000000000000000000000000000000000000000000000000000000815260040161071690612034565b60405180910390fd5b600073ffffffffffffffffffffffffffffffffffffffff168173ffffffffffffffffffffffffffffffffffffffff1603610785576040517fe6c4247b00000000000000000000000000000000000000000000000000000000815260040160405180910390fd5b80600560006101000a81548173ffffffffffffffffffffffffffffffffffffffff021916908373ffffffffffffffffffffffffffffffffffffffff16021790555050565b6107d1611b60565b73ffffffffffffffffffffffffffffffffffffffff166107ef610e16565b73ffffffffffffffffffffffffffffffffffffffff1614610845576040517f08c379a000000000000000000000000000000000000000000000000000000000815260040161083c90612034565b60405180910390fd5b806001600084815260200190815260200160002060006101000a81548173ffffffffffffffffffffffffffffffffffffffff021916908373ffffffffffffffffffffffffffffffffffffffff1602179055505050565b600260009054906101000a900460ff16156108e2576040517f77e9811b00000000000000000000000000000000000000000000000000000000815260040160405180910390fd5b600460009054906101000a900473ffffffffffffffffffffffffffffffffffffffff1673ffffffffffffffffffffffffffffffffffffffff1663de9951a6610928611b60565b8585856040518563ffffffff1660e01b815260040161094a94939291906120a1565b600060405180830381600087803b15801561096457600080fd5b505af1158015610978573d6000803e3d6000fd5b50505050610984611b60565b73ffffffffffffffffffffffffffffffffffffffff16837f3523d3f08d443a3de3a7a5e0213c8b3728df4dcaa7ce5182097cadd88689766d60405160405180910390a3505050565b600360009054906101000a900473ffffffffffffffffffffffffffffffffffffffff1673ffffffffffffffffffffffffffffffffffffffff1663e78daa75610a12611b60565b836040518363ffffffff1660e01b8152600401610a30929190611fae565b600060405180830381600087803b158015610a4a57600080fd5b505af1158015610a5e573d6000803e3d6000fd5b50505050610a6a611b60565b73ffffffffffffffffffffffffffffffffffffffff16817f2ce8d0b5aac2aac75df5d055eba39e1a943c8ee924ac71efd94de57b4b6fa49b60405160405180910390a350565b610ab8611b60565b73ffffffffffffffffffffffffffffffffffffffff16610ad6610e16565b73ffffffffffffffffffffffffffffffffffffffff1614610b2c576040517f08c379a0000000000000000000000000000000000000000000000000000000008152600401610b2390612034565b60405180910390fd5b610b366000611b68565b565b600080600260019054906101000a900473ffffffffffffffffffffffffffffffffffffffff1673ffffffffffffffffffffffffffffffffffffffff1663dab6dbce610b81611b60565b87876040518463ffffffff1660e01b8152600401610ba1939291906120e1565b6020604051808303816000875af1158015610bc0573d6000803e3d6000fd5b505050506040513d601f19601f82011682018060405250810190610be49190611f81565b9050600560009054906101000a900473ffffffffffffffffffffffffffffffffffffffff1673ffffffffffffffffffffffffffffffffffffffff1663186a8131610c2c611b60565b836040518363ffffffff1660e01b8152600401610c4a929190611fae565b600060405180830381600087803b158015610c6457600080fd5b505af1158015610c78573d6000803e3d6000fd5b50505050600360009054906101000a900473ffffffffffffffffffffffffffffffffffffffff1673ffffffffffffffffffffffffffffffffffffffff1663d257d16d8287876040518463ffffffff1660e01b8152600401610cdb93929190612113565b600060405180830381600087803b158015610cf557600080fd5b505af1158015610d09573d6000803e3d6000fd5b50505050600460009054906101000a900473ffffffffffffffffffffffffffffffffffffffff1673ffffffffffffffffffffffffffffffffffffffff1663701776f782856040518363ffffffff1660e01b8152600401610d6a929190612145565b600060405180830381600087803b158015610d8457600080fd5b505af1158015610d98573d6000803e3d6000fd5b50505050610da4611b60565b73ffffffffffffffffffffffffffffffffffffffff16817fe507074282a0f805a6f370a3dfca4b5578056337d6fe37524243a02ca7a3cae160405160405180910390a3809150509392505050565b7fa49807205ce4d355092ef5a8a18f56e8913cf4a201fbe287825b095693c2177581565b60008060009054906101000a900473ffffffffffffffffffffffffffffffffffffffff16905090565b60007f104852406e94df2c5112860c28c2d2e43c02e322bc0cf95e2d0159faf296d7fb610e6b81611a70565b6000600260019054906101000a900473ffffffffffffffffffffffffffffffffffffffff1673ffffffffffffffffffffffffffffffffffffffff1663dab6dbce610eb3611b60565b88886040518463ffffffff1660e01b8152600401610ed3939291906120e1565b6020604051808303816000875af1158015610ef2573d6000803e3d6000fd5b505050506040513d601f19601f82011682018060405250810190610f169190611f81565b9050600360009054906101000a900473ffffffffffffffffffffffffffffffffffffffff1673ffffffffffffffffffffffffffffffffffffffff1663d257d16d8288886040518463ffffffff1660e01b8152600401610f7793929190612113565b600060405180830381600087803b158015610f9157600080fd5b505af1158015610fa5573d6000803e3d6000fd5b50505050600460009054906101000a900473ffffffffffffffffffffffffffffffffffffffff1673ffffffffffffffffffffffffffffffffffffffff1663701776f782866040518363ffffffff1660e01b8152600401611006929190612145565b600060405180830381600087803b15801561102057600080fd5b505af1158015611034573d6000803e3d6000fd5b50505050600360009054906101000a900473ffffffffffffffffffffffffffffffffffffffff1673ffffffffffffffffffffffffffffffffffffffff1663cc4ef119826040518263ffffffff1660e01b81526004016110939190611ece565b600060405180830381600087803b1580156110ad57600080fd5b505af11580156110c1573d6000803e3d6000fd5b505050506110cd611b60565b73ffffffffffffffffffffffffffffffffffffffff16817f83a97ccca8e136a4d58fd664739225fcfe9db9a5b0bebf35df44614f2aa9b63a60405160405180910390a380925050509392505050565b611124611b60565b73ffffffffffffffffffffffffffffffffffffffff16611142610e16565b73ffffffffffffffffffffffffffffffffffffffff1614611198576040517f08c379a000000000000000000000000000000000000000000000000000000000815260040161118f90612034565b60405180910390fd5b600260009054906101000a900460ff16156111df576040517f77e9811b00000000000000000000000000000000000000000000000000000000815260040160405180910390fd5b600360009054906101000a900473ffffffffffffffffffffffffffffffffffffffff1673ffffffffffffffffffffffffffffffffffffffff1663ecf24b31826040518263ffffffff1660e01b815260040161123a9190611ece565b600060405180830381600087803b15801561125457600080fd5b505af1158015611268573d6000803e3d6000fd5b50505050611274611b60565b73ffffffffffffffffffffffffffffffffffffffff16817ff71fc70f190ad1360e34d483a2c00ef97b0da48cf5c510686ff1b3961176db1360405160405180910390a350565b6112c2611b60565b73ffffffffffffffffffffffffffffffffffffffff166112e0610e16565b73ffffffffffffffffffffffffffffffffffffffff1614611336576040517f08c379a000000000000000000000000000000000000000000000000000000000815260040161132d90612034565b60405180910390fd5b600073ffffffffffffffffffffffffffffffffffffffff168173ffffffffffffffffffffffffffffffffffffffff160361139c576040517fe6c4247b00000000000000000000000000000000000000000000000000000000815260040160405180910390fd5b80600260016101000a81548173ffffffffffffffffffffffffffffffffffffffff021916908373ffffffffffffffffffffffffffffffffffffffff16021790555050565b6113e8611b60565b73ffffffffffffffffffffffffffffffffffffffff16600260019054906101000a900473ffffffffffffffffffffffffffffffffffffffff1673ffffffffffffffffffffffffffffffffffffffff1663710bc3cd836040518263ffffffff1660e01b81526004016114599190611ece565b602060405180830381865afa158015611476573d6000803e3d6000fd5b505050506040513d601f19601f8201168201806040525081019061149a9190612183565b73ffffffffffffffffffffffffffffffffffffffff16036114e7576040517f549bb9b900000000000000000000000000000000000000000000000000000000815260040160405180910390fd5b600360009054906101000a900473ffffffffffffffffffffffffffffffffffffffff1673ffffffffffffffffffffffffffffffffffffffff166324d6d60161152d611b60565b836040518363ffffffff1660e01b815260040161154b929190611fae565b600060405180830381600087803b15801561156557600080fd5b505af1158015611579573d6000803e3d6000fd5b50505050600560009054906101000a900473ffffffffffffffffffffffffffffffffffffffff1673ffffffffffffffffffffffffffffffffffffffff1663708f7c7d6115c3611b60565b836040518363ffffffff1660e01b81526004016115e1929190611fae565b600060405180830381600087803b1580156115fb57600080fd5b505af115801561160f573d6000803e3d6000fd5b5050505061161b611b60565b73ffffffffffffffffffffffffffffffffffffffff16817f2d41d13a6e38ae738043e6c4811b1f16f9608295287f54de44621ed6e4b4505660405160405180910390a350565b7f104852406e94df2c5112860c28c2d2e43c02e322bc0cf95e2d0159faf296d7fb81565b61168d611b60565b73ffffffffffffffffffffffffffffffffffffffff166116ab610e16565b73ffffffffffffffffffffffffffffffffffffffff1614611701576040517f08c379a00000000000000000000000000000000000000000000000000000000081526004016116f890612034565b60405180910390fd5b600073ffffffffffffffffffffffffffffffffffffffff168173ffffffffffffffffffffffffffffffffffffffff1603611767576040517fe6c4247b00000000000000000000000000000000000000000000000000000000815260040160405180910390fd5b80600460006101000a81548173ffffffffffffffffffffffffffffffffffffffff021916908373ffffffffffffffffffffffffffffffffffffffff16021790555050565b6117b3611b60565b73ffffffffffffffffffffffffffffffffffffffff166117d1610e16565b73ffffffffffffffffffffffffffffffffffffffff1614611827576040517f08c379a000000000000000000000000000000000000000000000000000000000815260040161181e90612034565b60405180910390fd5b600073ffffffffffffffffffffffffffffffffffffffff168173ffffffffffffffffffffffffffffffffffffffff160361188d576040517fe6c4247b00000000000000000000000000000000000000000000000000000000815260040160405180910390fd5b80600360006101000a81548173ffffffffffffffffffffffffffffffffffffffff021916908373ffffffffffffffffffffffffffffffffffffffff16021790555050565b6118d9611b60565b73ffffffffffffffffffffffffffffffffffffffff166118f7610e16565b73ffffffffffffffffffffffffffffffffffffffff161461194d576040517f08c379a000000000000000000000000000000000000000000000000000000000815260040161194490612034565b60405180910390fd5b600073ffffffffffffffffffffffffffffffffffffffff168173ffffffffffffffffffffffffffffffffffffffff16036119bc576040517f08c379a00000000000000000000000000000000000000000000000000000000081526004016119b390612222565b60405180910390fd5b6119c581611b68565b50565b6119d0611b60565b73ffffffffffffffffffffffffffffffffffffffff166119ee610e16565b73ffffffffffffffffffffffffffffffffffffffff1614611a44576040517f08c379a0000000000000000000000000000000000000000000000000000000008152600401611a3b90612034565b60405180910390fd5b600260009054906101000a900460ff1615600260006101000a81548160ff021916908315150217905550565b60006001600083815260200190815260200160002060009054906101000a900473ffffffffffffffffffffffffffffffffffffffff1673ffffffffffffffffffffffffffffffffffffffff166370a08231611ac9611b60565b6040518263ffffffff1660e01b8152600401611ae59190611f22565b602060405180830381865afa158015611b02573d6000803e3d6000fd5b505050506040513d601f19601f82011682018060405250810190611b269190611f81565b03611b5d576040517fbddc845600000000000000000000000000000000000000000000000000000000815260040160405180910390fd5b50565b600033905090565b60008060009054906101000a900473ffffffffffffffffffffffffffffffffffffffff169050816000806101000a81548173ffffffffffffffffffffffffffffffffffffffff021916908373ffffffffffffffffffffffffffffffffffffffff1602179055508173ffffffffffffffffffffffffffffffffffffffff168173ffffffffffffffffffffffffffffffffffffffff167f8be0079c531659141344cd1fd0a4f28419497f9722a3daafe3b4186f6b6457e060405160405180910390a35050565b600080fd5b600080fd5b6000819050919050565b611c4981611c36565b8114611c5457600080fd5b50565b600081359050611c6681611c40565b92915050565b600060208284031215611c8257611c81611c2c565b5b6000611c9084828501611c57565b91505092915050565b600073ffffffffffffffffffffffffffffffffffffffff82169050919050565b6000611cc482611c99565b9050919050565b611cd481611cb9565b8114611cdf57600080fd5b50565b600081359050611cf181611ccb565b92915050565b600060208284031215611d0d57611d0c611c2c565b5b6000611d1b84828501611ce2565b91505092915050565b6000819050919050565b611d3781611d24565b8114611d4257600080fd5b50565b600081359050611d5481611d2e565b92915050565b60008060408385031215611d7157611d70611c2c565b5b6000611d7f85828601611d45565b9250506020611d9085828601611ce2565b9150509250929050565b600080fd5b600080fd5b600080fd5b60008083601f840112611dbf57611dbe611d9a565b5b8235905067ffffffffffffffff811115611ddc57611ddb611d9f565b5b602083019150836001820283011115611df857611df7611da4565b5b9250929050565b600080600060408486031215611e1857611e17611c2c565b5b6000611e2686828701611c57565b935050602084013567ffffffffffffffff811115611e4757611e46611c31565b5b611e5386828701611da9565b92509250509250925092565b600080600060408486031215611e7857611e77611c2c565b5b600084013567ffffffffffffffff811115611e9657611e95611c31565b5b611ea286828701611da9565b93509350506020611eb586828701611c57565b9150509250925092565b611ec881611c36565b82525050565b6000602082019050611ee36000830184611ebf565b92915050565b611ef281611d24565b82525050565b6000602082019050611f0d6000830184611ee9565b92915050565b611f1c81611cb9565b82525050565b6000602082019050611f376000830184611f13565b92915050565b7f4e487b7100000000000000000000000000000000000000000000000000000000600052602160045260246000fd5b600081519050611f7b81611c40565b92915050565b600060208284031215611f9757611f96611c2c565b5b6000611fa584828501611f6c565b91505092915050565b6000604082019050611fc36000830185611f13565b611fd06020830184611ebf565b9392505050565b600082825260208201905092915050565b7f4f776e61626c653a2063616c6c6572206973206e6f7420746865206f776e6572600082015250565b600061201e602083611fd7565b915061202982611fe8565b602082019050919050565b6000602082019050818103600083015261204d81612011565b9050919050565b82818337600083830152505050565b6000601f19601f8301169050919050565b60006120808385611fd7565b935061208d838584612054565b61209683612063565b840190509392505050565b60006060820190506120b66000830187611f13565b6120c36020830186611ebf565b81810360408301526120d6818486612074565b905095945050505050565b60006040820190506120f66000830186611f13565b8181036020830152612109818486612074565b9050949350505050565b60006040820190506121286000830186611ebf565b818103602083015261213b818486612074565b9050949350505050565b600060408201905061215a6000830185611ebf565b6121676020830184611ebf565b9392505050565b60008151905061217d81611ccb565b92915050565b60006020828403121561219957612198611c2c565b5b60006121a78482850161216e565b91505092915050565b7f4f776e61626c653a206e6577206f776e657220697320746865207a65726f206160008201527f6464726573730000000000000000000000000000000000000000000000000000602082015250565b600061220c602683611fd7565b9150612217826121b0565b604082019050919050565b6000602082019050818103600083015261223b816121ff565b905091905056fea2646970667358221220fe69a1827a2721a78af8ea5da215cc0a54d2bcaacc2cd07affc2db192f4f118564736f6c634300080d0033",
  "devdoc": {
    "author": "MetricsDAO team",
    "kind": "dev",
    "methods": {
      "answerQuestion(uint256,string)": {
        "params": {
          "answerURL": "THE IPFS hash of the answer.",
          "questionId": "The questionId of the question to answer."
        }
      },
      "claimQuestion(uint256)": {
        "params": {
          "questionId": "The questionId of the question to disqualify"
        }
      },
      "constructor": {
        "params": {
          "bountyQuestion": "BountyQuestion contract instance.",
          "claimController": "The claim controller address.",
          "costController": "The action cost controller address.",
          "questionStateController": "The question state controller address."
        }
      },
      "createChallenge(string,uint256)": {
        "params": {
          "claimLimit": "The limit for the amount of people that can claim the challenge",
          "uri": "The IPFS hash of the challenge"
        },
        "returns": {
          "_0": "questionId The question id"
        }
      },
      "createQuestion(string,uint256)": {
        "params": {
          "claimLimit": "The limit for the amount of people that can claim the question.",
          "uri": "The IPFS hash of the question."
        },
        "returns": {
          "_0": "The question id"
        }
      },
      "disqualifyQuestion(uint256)": {
        "params": {
          "questionId": "The questionId of the question to disqualify."
        }
      },
      "owner()": {
        "details": "Returns the address of the current owner."
      },
      "publishQuestion(uint256)": {
        "params": {
          "questionId": "The questionId of the question to publish"
        }
      },
      "renounceOwnership()": {
        "details": "Leaves the contract without owner. It will not be possible to call `onlyOwner` functions anymore. Can only be called by the current owner. NOTE: Renouncing ownership will leave the contract without an owner, thereby removing any functionality that is only available to the owner."
      },
      "setClaimController(address)": {
        "params": {
          "newQuestion": "The address of the new ClaimController contract."
        }
      },
      "setCostController(address)": {
        "params": {
          "newCost": "The address of the new CostController contract."
        }
      },
      "setQuestionProxy(address)": {
        "params": {
          "newQuestion": "The address of the new BountyQuestion contract."
        }
      },
      "setQuestionStateController(address)": {
        "params": {
          "newQuestion": "The address of the new BountyQuestion contract."
        }
      },
      "transferOwnership(address)": {
        "details": "Transfers ownership of the contract to a new account (`newOwner`). Can only be called by the current owner."
      },
      "unvoteQuestion(uint256)": {
        "params": {
          "questionId": "The questionId of the question to upvote."
        }
      },
      "upvoteQuestion(uint256)": {
        "params": {
          "questionId": "The questionId of the question to upvote."
        }
      }
    },
    "title": "MetricsDAO question API",
    "version": 1
  },
  "userdoc": {
    "errors": {
      "CannotVoteForOwnQuestion()": [
        {
          "notice": "Throw if user tries to vote for own question"
        }
      ],
      "ClaimsNotOpen()": [
        {
          "notice": "Throw if analysts tries to claim a question that is not published."
        }
      ],
      "InvalidAddress()": [
        {
          "notice": "Throw if address is equal to address(0)."
        }
      ],
      "NotAtBenchmark()": [
        {
          "notice": "Throw if a question has not reached the benchmark for being published (yet)."
        }
      ]
    },
    "events": {
      "ChallengeCreated(uint256,address)": {
        "notice": "Emitted when a challenge is created."
      },
      "QuestionAnswered(uint256,address)": {
        "notice": "Emitted when a question is answered."
      },
      "QuestionClaimed(uint256,address)": {
        "notice": "Emitted when a question is claimed."
      },
      "QuestionCreated(uint256,address)": {
        "notice": "Emitted when a question is created."
      },
      "QuestionDisqualified(uint256,address)": {
        "notice": "Emitted when a question is disqualified."
      },
      "QuestionPublished(uint256,address)": {
        "notice": "Emitted when a question is published."
      },
      "QuestionUnvoted(uint256,address)": {
        "notice": "Emitted when a question is unvoted."
      },
      "QuestionUpvoted(uint256,address)": {
        "notice": "Emitted when a question is upvoted."
      }
    },
    "kind": "user",
    "methods": {
      "answerQuestion(uint256,string)": {
        "notice": "Allows a claimed question to be answered by an analyst."
      },
      "claimQuestion(uint256)": {
        "notice": "Allows anm analyst to claim a question and submit an answer before the dealine."
      },
      "constructor": {
        "notice": "Constructor sets the question state controller, claim controller, and action cost controller."
      },
      "createChallenge(string,uint256)": {
        "notice": "Directly creates a challenge, this is an optional feature for program managers that would like to create challenges directly (skipping the voting stage)."
      },
      "createQuestion(string,uint256)": {
        "notice": "Creates a question."
      },
      "disqualifyQuestion(uint256)": {
        "notice": "Allows the owner to disqualify a question."
      },
      "publishQuestion(uint256)": {
        "notice": "Publishes a question and allows it to be claimed and receive answers."
      },
      "setClaimController(address)": {
        "notice": "Allows the owner to set the ClaimController contract address."
      },
      "setCostController(address)": {
        "notice": "Allows the owner to set the CostController contract address."
      },
      "setQuestionProxy(address)": {
        "notice": "Allows the owner to set the BountyQuestion contract address."
      },
      "setQuestionStateController(address)": {
        "notice": "Allows the owner to set the QuestionStateController contract address."
      },
      "unvoteQuestion(uint256)": {
        "notice": "Unvotes a question."
      },
      "upvoteQuestion(uint256)": {
        "notice": "Upvotes a question."
      }
    },
    "notice": "This contract is an API for MetricsDAO that allows for interacting with questions & challenges.",
    "version": 1
  },
  "storageLayout": {
    "storage": [
      {
        "astId": 7,
        "contract": "src/contracts/Protocol/QuestionAPI.sol:QuestionAPI",
        "label": "_owner",
        "offset": 0,
        "slot": "0",
        "type": "t_address"
      },
      {
        "astId": 5437,
        "contract": "src/contracts/Protocol/QuestionAPI.sol:QuestionAPI",
        "label": "_nfts",
        "offset": 0,
        "slot": "1",
        "type": "t_mapping(t_bytes32,t_address)"
      },
      {
        "astId": 5394,
        "contract": "src/contracts/Protocol/QuestionAPI.sol:QuestionAPI",
        "label": "isLocked",
        "offset": 0,
        "slot": "2",
        "type": "t_bool"
      },
      {
        "astId": 3810,
        "contract": "src/contracts/Protocol/QuestionAPI.sol:QuestionAPI",
        "label": "_question",
        "offset": 1,
        "slot": "2",
        "type": "t_contract(BountyQuestion)3522"
      },
      {
        "astId": 3813,
        "contract": "src/contracts/Protocol/QuestionAPI.sol:QuestionAPI",
        "label": "_questionStateController",
        "offset": 0,
        "slot": "3",
        "type": "t_contract(IQuestionStateController)5387"
      },
      {
        "astId": 3816,
        "contract": "src/contracts/Protocol/QuestionAPI.sol:QuestionAPI",
        "label": "_claimController",
        "offset": 0,
        "slot": "4",
        "type": "t_contract(IClaimController)5340"
      },
      {
        "astId": 3819,
        "contract": "src/contracts/Protocol/QuestionAPI.sol:QuestionAPI",
        "label": "_costController",
        "offset": 0,
        "slot": "5",
        "type": "t_contract(IActionCostController)5314"
      }
    ],
    "types": {
      "t_address": {
        "encoding": "inplace",
        "label": "address",
        "numberOfBytes": "20"
      },
      "t_bool": {
        "encoding": "inplace",
        "label": "bool",
        "numberOfBytes": "1"
      },
      "t_bytes32": {
        "encoding": "inplace",
        "label": "bytes32",
        "numberOfBytes": "32"
      },
      "t_contract(BountyQuestion)3522": {
        "encoding": "inplace",
        "label": "contract BountyQuestion",
        "numberOfBytes": "20"
      },
      "t_contract(IActionCostController)5314": {
        "encoding": "inplace",
        "label": "contract IActionCostController",
        "numberOfBytes": "20"
      },
      "t_contract(IClaimController)5340": {
        "encoding": "inplace",
        "label": "contract IClaimController",
        "numberOfBytes": "20"
      },
      "t_contract(IQuestionStateController)5387": {
        "encoding": "inplace",
        "label": "contract IQuestionStateController",
        "numberOfBytes": "20"
      },
      "t_mapping(t_bytes32,t_address)": {
        "encoding": "mapping",
        "key": "t_bytes32",
        "label": "mapping(bytes32 => address)",
        "numberOfBytes": "32",
        "value": "t_address"
      }
    }
  }
}