{
  "address": "0x2279B7A0a67DB372996a5FaB50D91eAA73d2eBe6",
  "abi": [
    {
      "inputs": [
        {
          "internalType": "address",
          "name": "metricTokenAddress",
          "type": "address"
        }
      ],
      "stateMutability": "nonpayable",
      "type": "constructor"
    },
    {
      "inputs": [],
      "name": "CannotRenounce",
      "type": "error"
    },
    {
      "inputs": [],
      "name": "DuplicateAddress",
      "type": "error"
    },
    {
      "inputs": [],
      "name": "IndexDoesNotMatchAllocation",
      "type": "error"
    },
    {
      "inputs": [],
      "name": "InvalidAddress",
      "type": "error"
    },
    {
      "inputs": [],
      "name": "InvalidShareAmount",
      "type": "error"
    },
    {
      "inputs": [],
      "name": "RewardsAlreadyToggled",
      "type": "error"
    },
    {
      "inputs": [],
      "name": "RewardsNotActive",
      "type": "error"
    },
    {
      "inputs": [],
      "name": "SharesNotGreaterThanZero",
      "type": "error"
    },
    {
      "anonymous": false,
      "inputs": [
        {
          "components": [
            {
              "internalType": "address",
              "name": "groupAddress",
              "type": "address"
            },
            {
              "internalType": "uint256",
              "name": "shares",
              "type": "uint256"
            },
            {
              "internalType": "uint256",
              "name": "lifetimeEarnings",
              "type": "uint256"
            },
            {
              "internalType": "uint256",
              "name": "claimable",
              "type": "uint256"
            }
          ],
          "indexed": false,
          "internalType": "struct TopChef.AllocationGroup",
          "name": "",
          "type": "tuple"
        }
      ],
      "name": "AddGroup",
      "type": "event"
    },
    {
      "anonymous": false,
      "inputs": [
        {
          "indexed": true,
          "internalType": "address",
          "name": "harvester",
          "type": "address"
        },
        {
          "indexed": false,
          "internalType": "uint256",
          "name": "agIndex",
          "type": "uint256"
        },
        {
          "indexed": false,
          "internalType": "uint256",
          "name": "amount",
          "type": "uint256"
        }
      ],
      "name": "Harvest",
      "type": "event"
    },
    {
      "anonymous": false,
      "inputs": [
        {
          "indexed": true,
          "internalType": "address",
          "name": "previousOwner",
          "type": "address"
        },
        {
          "indexed": true,
          "internalType": "address",
          "name": "newOwner",
          "type": "address"
        }
      ],
      "name": "OwnershipTransferred",
      "type": "event"
    },
    {
      "anonymous": false,
      "inputs": [
        {
          "components": [
            {
              "internalType": "address",
              "name": "groupAddress",
              "type": "address"
            },
            {
              "internalType": "uint256",
              "name": "shares",
              "type": "uint256"
            },
            {
              "internalType": "uint256",
              "name": "lifetimeEarnings",
              "type": "uint256"
            },
            {
              "internalType": "uint256",
              "name": "claimable",
              "type": "uint256"
            }
          ],
          "indexed": false,
          "internalType": "struct TopChef.AllocationGroup",
          "name": "",
          "type": "tuple"
        }
      ],
      "name": "RemoveGroup",
      "type": "event"
    },
    {
      "anonymous": false,
      "inputs": [
        {
          "components": [
            {
              "internalType": "address",
              "name": "groupAddress",
              "type": "address"
            },
            {
              "internalType": "uint256",
              "name": "shares",
              "type": "uint256"
            },
            {
              "internalType": "uint256",
              "name": "lifetimeEarnings",
              "type": "uint256"
            },
            {
              "internalType": "uint256",
              "name": "claimable",
              "type": "uint256"
            }
          ],
          "indexed": false,
          "internalType": "struct TopChef.AllocationGroup",
          "name": "",
          "type": "tuple"
        }
      ],
      "name": "UpdateGroup",
      "type": "event"
    },
    {
      "anonymous": false,
      "inputs": [
        {
          "indexed": true,
          "internalType": "address",
          "name": "withdrawer",
          "type": "address"
        },
        {
          "indexed": false,
          "internalType": "uint256",
          "name": "agIndex",
          "type": "uint256"
        },
        {
          "indexed": false,
          "internalType": "uint256",
          "name": "amount",
          "type": "uint256"
        }
      ],
      "name": "Withdraw",
      "type": "event"
    },
    {
      "inputs": [],
      "name": "ACC_METRIC_PRECISION",
      "outputs": [
        {
          "internalType": "uint256",
          "name": "",
          "type": "uint256"
        }
      ],
      "stateMutability": "view",
      "type": "function"
    },
    {
      "inputs": [
        {
          "internalType": "uint256",
          "name": "accumulatedWithPrecision",
          "type": "uint256"
        }
      ],
      "name": "accumulatedMetricDividedByShares",
      "outputs": [
        {
          "internalType": "uint256",
          "name": "",
          "type": "uint256"
        }
      ],
      "stateMutability": "view",
      "type": "function"
    },
    {
      "inputs": [
        {
          "internalType": "address",
          "name": "newAddress",
          "type": "address"
        },
        {
          "internalType": "uint256",
          "name": "newShares",
          "type": "uint256"
        }
      ],
      "name": "addAllocationGroup",
      "outputs": [],
      "stateMutability": "nonpayable",
      "type": "function"
    },
    {
      "inputs": [
        {
          "internalType": "address",
          "name": "",
          "type": "address"
        }
      ],
      "name": "addressExistence",
      "outputs": [
        {
          "internalType": "bool",
          "name": "",
          "type": "bool"
        }
      ],
      "stateMutability": "view",
      "type": "function"
    },
    {
      "inputs": [],
      "name": "areRewardsActive",
      "outputs": [
        {
          "internalType": "bool",
          "name": "",
          "type": "bool"
        }
      ],
      "stateMutability": "view",
      "type": "function"
    },
    {
      "inputs": [
        {
          "internalType": "uint256",
          "name": "agIndex",
          "type": "uint256"
        }
      ],
      "name": "claim",
      "outputs": [],
      "stateMutability": "nonpayable",
      "type": "function"
    },
    {
      "inputs": [],
      "name": "getAllocationGroups",
      "outputs": [
        {
          "components": [
            {
              "internalType": "address",
              "name": "groupAddress",
              "type": "address"
            },
            {
              "internalType": "uint256",
              "name": "shares",
              "type": "uint256"
            },
            {
              "internalType": "uint256",
              "name": "lifetimeEarnings",
              "type": "uint256"
            },
            {
              "internalType": "uint256",
              "name": "claimable",
              "type": "uint256"
            }
          ],
          "internalType": "struct TopChef.AllocationGroup[]",
          "name": "",
          "type": "tuple[]"
        }
      ],
      "stateMutability": "view",
      "type": "function"
    },
    {
      "inputs": [],
      "name": "getLastRewardBlock",
      "outputs": [
        {
          "internalType": "uint256",
          "name": "",
          "type": "uint256"
        }
      ],
      "stateMutability": "view",
      "type": "function"
    },
    {
      "inputs": [],
      "name": "getLifeTimeShareValueEstimate",
      "outputs": [
        {
          "internalType": "uint256",
          "name": "",
          "type": "uint256"
        }
      ],
      "stateMutability": "view",
      "type": "function"
    },
    {
      "inputs": [],
      "name": "getMetricPerBlock",
      "outputs": [
        {
          "internalType": "uint256",
          "name": "",
          "type": "uint256"
        }
      ],
      "stateMutability": "view",
      "type": "function"
    },
    {
      "inputs": [],
      "name": "getMetricToken",
      "outputs": [
        {
          "internalType": "contract MetricToken",
          "name": "",
          "type": "address"
        }
      ],
      "stateMutability": "view",
      "type": "function"
    },
    {
      "inputs": [],
      "name": "getTotalAllocationShares",
      "outputs": [
        {
          "internalType": "uint256",
          "name": "",
          "type": "uint256"
        }
      ],
      "stateMutability": "view",
      "type": "function"
    },
    {
      "inputs": [
        {
          "internalType": "uint256",
          "name": "agIndex",
          "type": "uint256"
        }
      ],
      "name": "harvest",
      "outputs": [
        {
          "internalType": "uint256",
          "name": "",
          "type": "uint256"
        }
      ],
      "stateMutability": "nonpayable",
      "type": "function"
    },
    {
      "inputs": [],
      "name": "harvestAll",
      "outputs": [],
      "stateMutability": "nonpayable",
      "type": "function"
    },
    {
      "inputs": [],
      "name": "owner",
      "outputs": [
        {
          "internalType": "address",
          "name": "",
          "type": "address"
        }
      ],
      "stateMutability": "view",
      "type": "function"
    },
    {
      "inputs": [
        {
          "internalType": "uint256",
          "name": "agIndex",
          "type": "uint256"
        }
      ],
      "name": "removeAllocationGroup",
      "outputs": [],
      "stateMutability": "nonpayable",
      "type": "function"
    },
    {
      "inputs": [],
      "name": "renounceOwnership",
      "outputs": [],
      "stateMutability": "view",
      "type": "function"
    },
    {
      "inputs": [],
      "name": "setLifetimeShareValue",
      "outputs": [],
      "stateMutability": "nonpayable",
      "type": "function"
    },
    {
      "inputs": [
        {
          "internalType": "uint256",
          "name": "metricAmount",
          "type": "uint256"
        }
      ],
      "name": "setMetricPerBlock",
      "outputs": [],
      "stateMutability": "nonpayable",
      "type": "function"
    },
    {
      "inputs": [
        {
          "internalType": "address",
          "name": "metricTokenAddress",
          "type": "address"
        }
      ],
      "name": "setMetricToken",
      "outputs": [],
      "stateMutability": "nonpayable",
      "type": "function"
    },
    {
      "inputs": [
        {
          "internalType": "bool",
          "name": "isOn",
          "type": "bool"
        }
      ],
      "name": "toggleRewards",
      "outputs": [],
      "stateMutability": "nonpayable",
      "type": "function"
    },
    {
      "inputs": [
        {
          "internalType": "address",
          "name": "newOwner",
          "type": "address"
        }
      ],
      "name": "transferOwnership",
      "outputs": [],
      "stateMutability": "nonpayable",
      "type": "function"
    },
    {
      "inputs": [],
      "name": "updateAccumulatedAllocations",
      "outputs": [],
      "stateMutability": "nonpayable",
      "type": "function"
    },
    {
      "inputs": [
        {
          "internalType": "address",
          "name": "groupAddress",
          "type": "address"
        },
        {
          "internalType": "uint256",
          "name": "agIndex",
          "type": "uint256"
        },
        {
          "internalType": "uint256",
          "name": "shares",
          "type": "uint256"
        }
      ],
      "name": "updateAllocationGroup",
      "outputs": [],
      "stateMutability": "nonpayable",
      "type": "function"
    },
    {
      "inputs": [
        {
          "internalType": "uint256",
          "name": "agIndex",
          "type": "uint256"
        }
      ],
      "name": "viewPendingClaims",
      "outputs": [
        {
          "internalType": "uint256",
          "name": "",
          "type": "uint256"
        }
      ],
      "stateMutability": "view",
      "type": "function"
    },
    {
      "inputs": [
        {
          "internalType": "uint256",
          "name": "agIndex",
          "type": "uint256"
        }
      ],
      "name": "viewPendingHarvest",
      "outputs": [
        {
          "internalType": "uint256",
          "name": "",
          "type": "uint256"
        }
      ],
      "stateMutability": "view",
      "type": "function"
    },
    {
      "inputs": [
        {
          "internalType": "uint256",
          "name": "agIndex",
          "type": "uint256"
        }
      ],
      "name": "viewPendingRewards",
      "outputs": [
        {
          "internalType": "uint256",
          "name": "",
          "type": "uint256"
        }
      ],
      "stateMutability": "view",
      "type": "function"
    }
  ],
  "transactionHash": "0xb3a876562ae9563f72e45094f81a4ec46c9e2812fa675ce515582c0154f2185b",
  "args": [
    "0xa513E6E4b8f2a923D98304ec87F64353C4D5C853"
  ],
  "numDeployments": 1,
  "solcInputHash": "afad67bdaa945256039adbd18757d119",
  "bytecode": "0x60806040526000600260006101000a81548160ff0219169083151502179055503480156200002c57600080fd5b50604051620032dc380380620032dc8339818101604052810190620000529190620003e3565b62000072620000666200009c60201b60201c565b620000a460201b60201c565b62000083816200016860201b60201c565b620000956004620002a260201b60201c565b5062000532565b600033905090565b60008060009054906101000a900473ffffffffffffffffffffffffffffffffffffffff169050816000806101000a81548173ffffffffffffffffffffffffffffffffffffffff021916908373ffffffffffffffffffffffffffffffffffffffff1602179055508173ffffffffffffffffffffffffffffffffffffffff168173ffffffffffffffffffffffffffffffffffffffff167f8be0079c531659141344cd1fd0a4f28419497f9722a3daafe3b4186f6b6457e060405160405180910390a35050565b620001786200009c60201b60201c565b73ffffffffffffffffffffffffffffffffffffffff166200019e6200035060201b60201c565b73ffffffffffffffffffffffffffffffffffffffff1614620001f7576040517f08c379a0000000000000000000000000000000000000000000000000000000008152600401620001ee9062000476565b60405180910390fd5b600073ffffffffffffffffffffffffffffffffffffffff168173ffffffffffffffffffffffffffffffffffffffff16036200025e576040517fe6c4247b00000000000000000000000000000000000000000000000000000000815260040160405180910390fd5b80600660006101000a81548173ffffffffffffffffffffffffffffffffffffffff021916908373ffffffffffffffffffffffffffffffffffffffff16021790555050565b620002b26200009c60201b60201c565b73ffffffffffffffffffffffffffffffffffffffff16620002d86200035060201b60201c565b73ffffffffffffffffffffffffffffffffffffffff161462000331576040517f08c379a0000000000000000000000000000000000000000000000000000000008152600401620003289062000476565b60405180910390fd5b670de0b6b3a764000081620003479190620004d1565b60018190555050565b60008060009054906101000a900473ffffffffffffffffffffffffffffffffffffffff16905090565b600080fd5b600073ffffffffffffffffffffffffffffffffffffffff82169050919050565b6000620003ab826200037e565b9050919050565b620003bd816200039e565b8114620003c957600080fd5b50565b600081519050620003dd81620003b2565b92915050565b600060208284031215620003fc57620003fb62000379565b5b60006200040c84828501620003cc565b91505092915050565b600082825260208201905092915050565b7f4f776e61626c653a2063616c6c6572206973206e6f7420746865206f776e6572600082015250565b60006200045e60208362000415565b91506200046b8262000426565b602082019050919050565b6000602082019050818103600083015262000491816200044f565b9050919050565b6000819050919050565b7f4e487b7100000000000000000000000000000000000000000000000000000000600052601160045260246000fd5b6000620004de8262000498565b9150620004eb8362000498565b9250817fffffffffffffffffffffffffffffffffffffffffffffffffffffffffffffffff0483118215151615620005275762000526620004a2565b5b828202905092915050565b612d9a80620005426000396000f3fe608060405234801561001057600080fd5b50600436106101a95760003560e01c80638c19ec8b116100f9578063bf4f6b5711610097578063d8009bb611610071578063d8009bb61461044a578063ddc632621461047a578063f2fde38b146104aa578063f33c9baa146104c6576101a9565b8063bf4f6b57146103f2578063bf62bee61461040e578063c5d836d91461042c576101a9565b8063945c5287116100d3578063945c52871461036c578063994cd56714610388578063a8e2a38b146103b8578063af2b0349146103d6576101a9565b80638c19ec8b146103285780638da5cb5b146103445780638ed955b914610362576101a9565b80635e175713116101665780636ac49a89116101405780636ac49a89146102d8578063715018a6146102f657806377d22d1a146103005780638b4a4ed51461030a576101a9565b80635e175713146102945780635f9b1bb5146102b25780636336694b146102bc576101a9565b80630419ba05146101ae5780631cd8f0fa146101cc5780631e718d27146101e857806322abbddf14610218578063379607f5146102485780635cae9a4814610264575b600080fd5b6101b66104e4565b6040516101c3919061219b565b60405180910390f35b6101e660048036038101906101e191906121e7565b610518565b005b61020260048036038101906101fd91906121e7565b6105b1565b60405161020f919061219b565b60405180910390f35b610232600480360381019061022d9190612272565b6105f6565b60405161023f91906122ba565b60405180910390f35b610262600480360381019061025d91906121e7565b610616565b005b61027e600480360381019061027991906121e7565b61074b565b60405161028b919061219b565b60405180910390f35b61029c61083f565b6040516102a9919061219b565b60405180910390f35b6102ba610849565b005b6102d660048036038101906102d191906121e7565b6108ba565b005b6102e0610c91565b6040516102ed919061219b565b60405180910390f35b6102fe610c9a565b005b610308610d48565b005b610312610da0565b60405161031f91906123f7565b60405180910390f35b610342600480360381019061033d9190612445565b610e73565b005b61034c610f74565b6040516103599190612481565b60405180910390f35b61036a610f9d565b005b61038660048036038101906103819190612272565b61104d565b005b6103a2600480360381019061039d91906121e7565b611173565b6040516103af919061219b565b60405180910390f35b6103c06112e4565b6040516103cd91906124fb565b60405180910390f35b6103f060048036038101906103eb9190612516565b61130e565b005b61040c60048036038101906104079190612556565b611671565b005b6104166118d2565b604051610423919061219b565b60405180910390f35b6104346118dc565b604051610441919061219b565b60405180910390f35b610464600480360381019061045f91906121e7565b6118e6565b604051610471919061219b565b60405180910390f35b610494600480360381019061048f91906121e7565b6119f9565b6040516104a1919061219b565b60405180910390f35b6104c460048036038101906104bf9190612272565b611b82565b005b6104ce611c79565b6040516104db91906122ba565b60405180910390f35b6000806104ef611c90565b905060006104fb611cd7565b9050610506826105b1565b8161051191906125d8565b9250505090565b610520611ce1565b73ffffffffffffffffffffffffffffffffffffffff1661053e610f74565b73ffffffffffffffffffffffffffffffffffffffff1614610594576040517f08c379a000000000000000000000000000000000000000000000000000000000815260040161058b9061268b565b60405180910390fd5b670de0b6b3a7640000816105a891906126ab565b60018190555050565b6000806105bc61083f565b036105ca57600090506105f1565b600082036105db57600090506105f1565b6105e361083f565b826105ee9190612734565b90505b919050565b60076020528060005260406000206000915054906101000a900460ff1681565b806008805490508110610655576040517fd0333a0600000000000000000000000000000000000000000000000000000000815260040160405180910390fd5b60006008838154811061066b5761066a612765565b5b906000526020600020906004020190506000610686846119f9565b90506000811461074557600082600301819055506106d06106a56112e4565b8360000160009054906101000a900473ffffffffffffffffffffffffffffffffffffffff1683611ce9565b8160000160009054906101000a900473ffffffffffffffffffffffffffffffffffffffff1673ffffffffffffffffffffffffffffffffffffffff167ff279e6a1f5e320cca91135676d9cb6e44ca8a08c0b88342bcdb1144f6511b568858360405161073c929190612794565b60405180910390a25b50505050565b600081600880549050811061078c576040517fd0333a0600000000000000000000000000000000000000000000000000000000815260040160405180910390fd5b6000600884815481106107a2576107a1612765565b5b90600052602060002090600402016040518060800160405290816000820160009054906101000a900473ffffffffffffffffffffffffffffffffffffffff1673ffffffffffffffffffffffffffffffffffffffff1673ffffffffffffffffffffffffffffffffffffffff16815260200160018201548152602001600282015481526020016003820154815250509050806060015192505050919050565b6000600554905090565b610851611c79565b610887576040517faa3aac7f00000000000000000000000000000000000000000000000000000000815260040160405180910390fd5b6000610891611c90565b905061089c816105b1565b6004546108a991906125d8565b6004819055506108b7611d6f565b50565b8060088054905081106108f9576040517fd0333a0600000000000000000000000000000000000000000000000000000000815260040160405180910390fd5b610901611c79565b610937576040517faa3aac7f00000000000000000000000000000000000000000000000000000000815260040160405180910390fd5b61093f611ce1565b73ffffffffffffffffffffffffffffffffffffffff1661095d610f74565b73ffffffffffffffffffffffffffffffffffffffff16146109b3576040517f08c379a00000000000000000000000000000000000000000000000000000000081526004016109aa9061268b565b60405180910390fd5b6109bc826119f9565b506000600883815481106109d3576109d2612765565b5b90600052602060002090600402016040518060800160405290816000820160009054906101000a900473ffffffffffffffffffffffffffffffffffffffff1673ffffffffffffffffffffffffffffffffffffffff1673ffffffffffffffffffffffffffffffffffffffff16815260200160018201548152602001600282015481526020016003820154815250509050600081606001519050610a9960088581548110610a8257610a81612765565b5b906000526020600020906004020160010154611d78565b60086001600880549050610aad91906127bd565b81548110610abe57610abd612765565b5b906000526020600020906004020160088581548110610ae057610adf612765565b5b90600052602060002090600402016000820160009054906101000a900473ffffffffffffffffffffffffffffffffffffffff168160000160006101000a81548173ffffffffffffffffffffffffffffffffffffffff021916908373ffffffffffffffffffffffffffffffffffffffff1602179055506001820154816001015560028201548160020155600382015481600301559050506008805480610b8857610b876127f1565b5b6001900381819060005260206000209060040201600080820160006101000a81549073ffffffffffffffffffffffffffffffffffffffff0219169055600182016000905560028201600090556003820160009055505090556000811115610c5457610bff610bf46112e4565b836000015183611ce9565b816000015173ffffffffffffffffffffffffffffffffffffffff167ff279e6a1f5e320cca91135676d9cb6e44ca8a08c0b88342bcdb1144f6511b5688583604051610c4b929190612794565b60405180910390a25b7fb1a6bb6cf9f57de6dc8c1840765c71e86b135a69d0405bc28dc7a011cc572e4482604051610c839190612875565b60405180910390a150505050565b64e8d4a5100081565b610ca2611ce1565b73ffffffffffffffffffffffffffffffffffffffff16610cc0610f74565b73ffffffffffffffffffffffffffffffffffffffff1614610d16576040517f08c379a0000000000000000000000000000000000000000000000000000000008152600401610d0d9061268b565b60405180910390fd5b6040517fc5fea89800000000000000000000000000000000000000000000000000000000815260040160405180910390fd5b610d50611c79565b610d86576040517faa3aac7f00000000000000000000000000000000000000000000000000000000815260040160405180910390fd5b610d8e6118d2565b431115610d9e57610d9d610849565b5b565b60606008805480602002602001604051908101604052809291908181526020016000905b82821015610e6a57838290600052602060002090600402016040518060800160405290816000820160009054906101000a900473ffffffffffffffffffffffffffffffffffffffff1673ffffffffffffffffffffffffffffffffffffffff1673ffffffffffffffffffffffffffffffffffffffff168152602001600182015481526020016002820154815260200160038201548152505081526020019060010190610dc4565b50505050905090565b610e7b611ce1565b73ffffffffffffffffffffffffffffffffffffffff16610e99610f74565b73ffffffffffffffffffffffffffffffffffffffff1614610eef576040517f08c379a0000000000000000000000000000000000000000000000000000000008152600401610ee69061268b565b60405180910390fd5b600260009054906101000a900460ff16151581151503610f3b576040517f1b82e04500000000000000000000000000000000000000000000000000000000815260040160405180910390fd5b8015610f4e57610f49611d6f565b610f57565b610f56610849565b5b80600260006101000a81548160ff02191690831515021790555050565b60008060009054906101000a900473ffffffffffffffffffffffffffffffffffffffff16905090565b610fa5611ce1565b73ffffffffffffffffffffffffffffffffffffffff16610fc3610f74565b73ffffffffffffffffffffffffffffffffffffffff1614611019576040517f08c379a00000000000000000000000000000000000000000000000000000000081526004016110109061268b565b60405180910390fd5b60005b6008805490508160ff16101561104a576110388160ff166119f9565b50806110439061289d565b905061101c565b50565b611055611ce1565b73ffffffffffffffffffffffffffffffffffffffff16611073610f74565b73ffffffffffffffffffffffffffffffffffffffff16146110c9576040517f08c379a00000000000000000000000000000000000000000000000000000000081526004016110c09061268b565b60405180910390fd5b600073ffffffffffffffffffffffffffffffffffffffff168173ffffffffffffffffffffffffffffffffffffffff160361112f576040517fe6c4247b00000000000000000000000000000000000000000000000000000000815260040160405180910390fd5b80600660006101000a81548173ffffffffffffffffffffffffffffffffffffffff021916908373ffffffffffffffffffffffffffffffffffffffff16021790555050565b60008160088054905081106111b4576040517fd0333a0600000000000000000000000000000000000000000000000000000000815260040160405180910390fd5b6000600884815481106111ca576111c9612765565b5b90600052602060002090600402016040518060800160405290816000820160009054906101000a900473ffffffffffffffffffffffffffffffffffffffff1673ffffffffffffffffffffffffffffffffffffffff1673ffffffffffffffffffffffffffffffffffffffff16815260200160018201548152602001600282015481526020016003820154815250509050611261611c79565b156112a457806040015164e8d4a510006112796104e4565b836020015161128891906126ab565b6112929190612734565b61129c91906127bd565b9250506112de565b806040015164e8d4a510006112b7611cd7565b83602001516112c691906126ab565b6112d09190612734565b6112da91906127bd565b9250505b50919050565b6000600660009054906101000a900473ffffffffffffffffffffffffffffffffffffffff16905090565b611316611ce1565b73ffffffffffffffffffffffffffffffffffffffff16611334610f74565b73ffffffffffffffffffffffffffffffffffffffff161461138a576040517f08c379a00000000000000000000000000000000000000000000000000000000081526004016113819061268b565b60405180910390fd5b8160011515600760008373ffffffffffffffffffffffffffffffffffffffff1673ffffffffffffffffffffffffffffffffffffffff16815260200190815260200160002060009054906101000a900460ff16151503611415576040517f0a47c55800000000000000000000000000000000000000000000000000000000815260040160405180910390fd5b6001600760008373ffffffffffffffffffffffffffffffffffffffff1673ffffffffffffffffffffffffffffffffffffffff16815260200190815260200160002060006101000a81548160ff021916908315150217905550600073ffffffffffffffffffffffffffffffffffffffff168373ffffffffffffffffffffffffffffffffffffffff16036114d3576040517fe6c4247b00000000000000000000000000000000000000000000000000000000815260040160405180910390fd5b6000821161150d576040517ff915581500000000000000000000000000000000000000000000000000000000815260040160405180910390fd5b611515611c79565b80156115285750600061152661083f565b115b1561153657611535610d48565b5b600060405180608001604052808573ffffffffffffffffffffffffffffffffffffffff16815260200184815260200164e8d4a51000611573611cd7565b8661157e91906126ab565b6115889190612734565b815260200160008152509050600881908060018154018082558091505060019003906000526020600020906004020160009091909190915060008201518160000160006101000a81548173ffffffffffffffffffffffffffffffffffffffff021916908373ffffffffffffffffffffffffffffffffffffffff16021790555060208201518160010155604082015181600201556060820151816003015550506116348160200151611dcb565b7f3108114300301baeef9bdf0a02b438810d99420fce1d00b913d3830d8f823054816040516116639190612875565b60405180910390a150505050565b611679611c79565b6116af576040517faa3aac7f00000000000000000000000000000000000000000000000000000000815260040160405180910390fd5b8160088054905081106116ee576040517fd0333a0600000000000000000000000000000000000000000000000000000000815260040160405180910390fd5b6116f6611ce1565b73ffffffffffffffffffffffffffffffffffffffff16611714610f74565b73ffffffffffffffffffffffffffffffffffffffff161461176a576040517f08c379a00000000000000000000000000000000000000000000000000000000081526004016117619061268b565b60405180910390fd5b600082116117a4576040517ff915581500000000000000000000000000000000000000000000000000000000815260040160405180910390fd5b600073ffffffffffffffffffffffffffffffffffffffff168473ffffffffffffffffffffffffffffffffffffffff160361180a576040517fe6c4247b00000000000000000000000000000000000000000000000000000000815260040160405180910390fd5b611813836119f9565b5060006008848154811061182a57611829612765565b5b90600052602060002090600402019050611848816001015484611de2565b848160000160006101000a81548173ffffffffffffffffffffffffffffffffffffffff021916908373ffffffffffffffffffffffffffffffffffffffff1602179055508281600101819055507f3a996fe4a1f2923fe87fc2e86696fc0102f0b8afe464f1539d5f70041ee46e9d816040516118c391906129b4565b60405180910390a15050505050565b6000600354905090565b6000600154905090565b6000816008805490508110611927576040517fd0333a0600000000000000000000000000000000000000000000000000000000815260040160405180910390fd5b60006008848154811061193d5761193c612765565b5b90600052602060002090600402016040518060800160405290816000820160009054906101000a900473ffffffffffffffffffffffffffffffffffffffff1673ffffffffffffffffffffffffffffffffffffffff1673ffffffffffffffffffffffffffffffffffffffff1681526020016001820154815260200160028201548152602001600382015481525050905060008160600151905060006119e086611173565b905080826119ee91906125d8565b945050505050919050565b6000611a03611c79565b611a39576040517faa3aac7f00000000000000000000000000000000000000000000000000000000815260040160405180910390fd5b816008805490508110611a78576040517fd0333a0600000000000000000000000000000000000000000000000000000000815260040160405180910390fd5b600060088481548110611a8e57611a8d612765565b5b90600052602060002090600402019050611aa6610d48565b6000816002015464e8d4a51000611abb611cd7565b8460010154611aca91906126ab565b611ad49190612734565b611ade91906127bd565b9050808260020154611af091906125d8565b82600201819055506000818360030154611b0a91906125d8565b90508083600301819055506000821115611b7657611b26611ce1565b73ffffffffffffffffffffffffffffffffffffffff167f71bab65ced2e5750775a0613be067df48ef06cf92a496ebf7663ae06609249548784604051611b6d929190612794565b60405180910390a25b80945050505050919050565b611b8a611ce1565b73ffffffffffffffffffffffffffffffffffffffff16611ba8610f74565b73ffffffffffffffffffffffffffffffffffffffff1614611bfe576040517f08c379a0000000000000000000000000000000000000000000000000000000008152600401611bf59061268b565b60405180910390fd5b600073ffffffffffffffffffffffffffffffffffffffff168173ffffffffffffffffffffffffffffffffffffffff1603611c6d576040517f08c379a0000000000000000000000000000000000000000000000000000000008152600401611c6490612a41565b60405180910390fd5b611c7681611e41565b50565b6000600260009054906101000a900460ff16905090565b600080611c9b6118d2565b43611ca691906127bd565b90506000611cb26118dc565b82611cbd91906126ab565b905064e8d4a5100081611cd091906126ab565b9250505090565b6000600454905090565b600033905090565b611d6a8363a9059cbb60e01b8484604051602401611d08929190612a61565b604051602081830303815290604052907bffffffffffffffffffffffffffffffffffffffffffffffffffffffff19166020820180517bffffffffffffffffffffffffffffffffffffffffffffffffffffffff8381831617835250505050611f05565b505050565b43600381905550565b600554811115611db4576040517f8c88122d00000000000000000000000000000000000000000000000000000000815260040160405180910390fd5b80600554611dc291906127bd565b60058190555050565b80600554611dd991906125d8565b60058190555050565b600554821115611e1e576040517f8c88122d00000000000000000000000000000000000000000000000000000000815260040160405180910390fd5b8082600554611e2d91906127bd565b611e3791906125d8565b6005819055505050565b60008060009054906101000a900473ffffffffffffffffffffffffffffffffffffffff169050816000806101000a81548173ffffffffffffffffffffffffffffffffffffffff021916908373ffffffffffffffffffffffffffffffffffffffff1602179055508173ffffffffffffffffffffffffffffffffffffffff168173ffffffffffffffffffffffffffffffffffffffff167f8be0079c531659141344cd1fd0a4f28419497f9722a3daafe3b4186f6b6457e060405160405180910390a35050565b6000611f67826040518060400160405280602081526020017f5361666545524332303a206c6f772d6c6576656c2063616c6c206661696c65648152508573ffffffffffffffffffffffffffffffffffffffff16611fcc9092919063ffffffff16565b9050600081511115611fc75780806020019051810190611f879190612a9f565b611fc6576040517f08c379a0000000000000000000000000000000000000000000000000000000008152600401611fbd90612b3e565b60405180910390fd5b5b505050565b6060611fdb8484600085611fe4565b90509392505050565b606082471015612029576040517f08c379a000000000000000000000000000000000000000000000000000000000815260040161202090612bd0565b60405180910390fd5b612032856120f8565b612071576040517f08c379a000000000000000000000000000000000000000000000000000000000815260040161206890612c3c565b60405180910390fd5b6000808673ffffffffffffffffffffffffffffffffffffffff16858760405161209a9190612cd6565b60006040518083038185875af1925050503d80600081146120d7576040519150601f19603f3d011682016040523d82523d6000602084013e6120dc565b606091505b50915091506120ec82828661211b565b92505050949350505050565b6000808273ffffffffffffffffffffffffffffffffffffffff163b119050919050565b6060831561212b5782905061217b565b60008351111561213e5782518084602001fd5b816040517f08c379a00000000000000000000000000000000000000000000000000000000081526004016121729190612d42565b60405180910390fd5b9392505050565b6000819050919050565b61219581612182565b82525050565b60006020820190506121b0600083018461218c565b92915050565b600080fd5b6121c481612182565b81146121cf57600080fd5b50565b6000813590506121e1816121bb565b92915050565b6000602082840312156121fd576121fc6121b6565b5b600061220b848285016121d2565b91505092915050565b600073ffffffffffffffffffffffffffffffffffffffff82169050919050565b600061223f82612214565b9050919050565b61224f81612234565b811461225a57600080fd5b50565b60008135905061226c81612246565b92915050565b600060208284031215612288576122876121b6565b5b60006122968482850161225d565b91505092915050565b60008115159050919050565b6122b48161229f565b82525050565b60006020820190506122cf60008301846122ab565b92915050565b600081519050919050565b600082825260208201905092915050565b6000819050602082019050919050565b61230a81612234565b82525050565b61231981612182565b82525050565b6080820160008201516123356000850182612301565b5060208201516123486020850182612310565b50604082015161235b6040850182612310565b50606082015161236e6060850182612310565b50505050565b6000612380838361231f565b60808301905092915050565b6000602082019050919050565b60006123a4826122d5565b6123ae81856122e0565b93506123b9836122f1565b8060005b838110156123ea5781516123d18882612374565b97506123dc8361238c565b9250506001810190506123bd565b5085935050505092915050565b600060208201905081810360008301526124118184612399565b905092915050565b6124228161229f565b811461242d57600080fd5b50565b60008135905061243f81612419565b92915050565b60006020828403121561245b5761245a6121b6565b5b600061246984828501612430565b91505092915050565b61247b81612234565b82525050565b60006020820190506124966000830184612472565b92915050565b6000819050919050565b60006124c16124bc6124b784612214565b61249c565b612214565b9050919050565b60006124d3826124a6565b9050919050565b60006124e5826124c8565b9050919050565b6124f5816124da565b82525050565b600060208201905061251060008301846124ec565b92915050565b6000806040838503121561252d5761252c6121b6565b5b600061253b8582860161225d565b925050602061254c858286016121d2565b9150509250929050565b60008060006060848603121561256f5761256e6121b6565b5b600061257d8682870161225d565b935050602061258e868287016121d2565b925050604061259f868287016121d2565b9150509250925092565b7f4e487b7100000000000000000000000000000000000000000000000000000000600052601160045260246000fd5b60006125e382612182565b91506125ee83612182565b9250827fffffffffffffffffffffffffffffffffffffffffffffffffffffffffffffffff03821115612623576126226125a9565b5b828201905092915050565b600082825260208201905092915050565b7f4f776e61626c653a2063616c6c6572206973206e6f7420746865206f776e6572600082015250565b600061267560208361262e565b91506126808261263f565b602082019050919050565b600060208201905081810360008301526126a481612668565b9050919050565b60006126b682612182565b91506126c183612182565b9250817fffffffffffffffffffffffffffffffffffffffffffffffffffffffffffffffff04831182151516156126fa576126f96125a9565b5b828202905092915050565b7f4e487b7100000000000000000000000000000000000000000000000000000000600052601260045260246000fd5b600061273f82612182565b915061274a83612182565b92508261275a57612759612705565b5b828204905092915050565b7f4e487b7100000000000000000000000000000000000000000000000000000000600052603260045260246000fd5b60006040820190506127a9600083018561218c565b6127b6602083018461218c565b9392505050565b60006127c882612182565b91506127d383612182565b9250828210156127e6576127e56125a9565b5b828203905092915050565b7f4e487b7100000000000000000000000000000000000000000000000000000000600052603160045260246000fd5b6080820160008201516128366000850182612301565b5060208201516128496020850182612310565b50604082015161285c6040850182612310565b50606082015161286f6060850182612310565b50505050565b600060808201905061288a6000830184612820565b92915050565b600060ff82169050919050565b60006128a882612890565b915060ff82036128bb576128ba6125a9565b5b600182019050919050565b60008160001c9050919050565b600073ffffffffffffffffffffffffffffffffffffffff82169050919050565b6000612906612901836128c6565b6128d3565b9050919050565b6000819050919050565b600061292a612925836128c6565b61290d565b9050919050565b608082016000808301549050612946816128f3565b6129536000860182612301565b506001830154905061296481612917565b6129716020860182612310565b506002830154905061298281612917565b61298f6040860182612310565b50600383015490506129a081612917565b6129ad6060860182612310565b5050505050565b60006080820190506129c96000830184612931565b92915050565b7f4f776e61626c653a206e6577206f776e657220697320746865207a65726f206160008201527f6464726573730000000000000000000000000000000000000000000000000000602082015250565b6000612a2b60268361262e565b9150612a36826129cf565b604082019050919050565b60006020820190508181036000830152612a5a81612a1e565b9050919050565b6000604082019050612a766000830185612472565b612a83602083018461218c565b9392505050565b600081519050612a9981612419565b92915050565b600060208284031215612ab557612ab46121b6565b5b6000612ac384828501612a8a565b91505092915050565b7f5361666545524332303a204552433230206f7065726174696f6e20646964206e60008201527f6f74207375636365656400000000000000000000000000000000000000000000602082015250565b6000612b28602a8361262e565b9150612b3382612acc565b604082019050919050565b60006020820190508181036000830152612b5781612b1b565b9050919050565b7f416464726573733a20696e73756666696369656e742062616c616e636520666f60008201527f722063616c6c0000000000000000000000000000000000000000000000000000602082015250565b6000612bba60268361262e565b9150612bc582612b5e565b604082019050919050565b60006020820190508181036000830152612be981612bad565b9050919050565b7f416464726573733a2063616c6c20746f206e6f6e2d636f6e7472616374000000600082015250565b6000612c26601d8361262e565b9150612c3182612bf0565b602082019050919050565b60006020820190508181036000830152612c5581612c19565b9050919050565b600081519050919050565b600081905092915050565b60005b83811015612c90578082015181840152602081019050612c75565b83811115612c9f576000848401525b50505050565b6000612cb082612c5c565b612cba8185612c67565b9350612cca818560208601612c72565b80840191505092915050565b6000612ce28284612ca5565b915081905092915050565b600081519050919050565b6000601f19601f8301169050919050565b6000612d1482612ced565b612d1e818561262e565b9350612d2e818560208601612c72565b612d3781612cf8565b840191505092915050565b60006020820190508181036000830152612d5c8184612d09565b90509291505056fea2646970667358221220fed330bbefdc3e50bf3125ee0f8100293d921d8f8dd66d36838d03dc16c22f2964736f6c634300080d0033",
  "devdoc": {
    "kind": "dev",
    "methods": {
      "owner()": {
        "details": "Returns the address of the current owner."
      },
      "renounceOwnership()": {
        "details": "Leaves the contract without owner. It will not be possible to call `onlyOwner` functions anymore. Can only be called by the current owner. NOTE: Renouncing ownership will leave the contract without an owner, thereby removing any functionality that is only available to the owner."
      },
      "transferOwnership(address)": {
        "details": "Transfers ownership of the contract to a new account (`newOwner`). Can only be called by the current owner."
      }
    },
    "version": 1
  },
  "userdoc": {
    "kind": "user",
    "methods": {},
    "version": 1
  },
  "storageLayout": {
    "storage": [
      {
        "astId": 7,
        "contract": "src/contracts/TopChef.sol:TopChef",
        "label": "_owner",
        "offset": 0,
        "slot": "0",
        "type": "t_address"
      },
      {
        "astId": 2816,
        "contract": "src/contracts/TopChef.sol:TopChef",
        "label": "_metricPerBlock",
        "offset": 0,
        "slot": "1",
        "type": "t_uint256"
      },
      {
        "astId": 2822,
        "contract": "src/contracts/TopChef.sol:TopChef",
        "label": "_rewardsActive",
        "offset": 0,
        "slot": "2",
        "type": "t_bool"
      },
      {
        "astId": 2824,
        "contract": "src/contracts/TopChef.sol:TopChef",
        "label": "_lastRewardBlock",
        "offset": 0,
        "slot": "3",
        "type": "t_uint256"
      },
      {
        "astId": 2826,
        "contract": "src/contracts/TopChef.sol:TopChef",
        "label": "_lifetimeShareValue",
        "offset": 0,
        "slot": "4",
        "type": "t_uint256"
      },
      {
        "astId": 2828,
        "contract": "src/contracts/TopChef.sol:TopChef",
        "label": "_totalAllocShares",
        "offset": 0,
        "slot": "5",
        "type": "t_uint256"
      },
      {
        "astId": 2831,
        "contract": "src/contracts/TopChef.sol:TopChef",
        "label": "metric",
        "offset": 0,
        "slot": "6",
        "type": "t_contract(MetricToken)3223"
      },
      {
        "astId": 3111,
        "contract": "src/contracts/TopChef.sol:TopChef",
        "label": "addressExistence",
        "offset": 0,
        "slot": "7",
        "type": "t_mapping(t_address,t_bool)"
      },
      {
        "astId": 5595,
        "contract": "src/contracts/TopChef.sol:TopChef",
        "label": "_allocations",
        "offset": 0,
        "slot": "8",
        "type": "t_array(t_struct(AllocationGroup)6119_storage)dyn_storage"
      }
    ],
    "types": {
      "t_address": {
        "encoding": "inplace",
        "label": "address",
        "numberOfBytes": "20"
      },
      "t_array(t_struct(AllocationGroup)6119_storage)dyn_storage": {
        "base": "t_struct(AllocationGroup)6119_storage",
        "encoding": "dynamic_array",
        "label": "struct TopChef.AllocationGroup[]",
        "numberOfBytes": "32"
      },
      "t_bool": {
        "encoding": "inplace",
        "label": "bool",
        "numberOfBytes": "1"
      },
      "t_contract(MetricToken)3223": {
        "encoding": "inplace",
        "label": "contract MetricToken",
        "numberOfBytes": "20"
      },
      "t_mapping(t_address,t_bool)": {
        "encoding": "mapping",
        "key": "t_address",
        "label": "mapping(address => bool)",
        "numberOfBytes": "32",
        "value": "t_bool"
      },
      "t_struct(AllocationGroup)6119_storage": {
        "encoding": "inplace",
        "label": "struct TopChef.AllocationGroup",
        "members": [
          {
            "astId": 6112,
            "contract": "src/contracts/TopChef.sol:TopChef",
            "label": "groupAddress",
            "offset": 0,
            "slot": "0",
            "type": "t_address"
          },
          {
            "astId": 6114,
            "contract": "src/contracts/TopChef.sol:TopChef",
            "label": "shares",
            "offset": 0,
            "slot": "1",
            "type": "t_uint256"
          },
          {
            "astId": 6116,
            "contract": "src/contracts/TopChef.sol:TopChef",
            "label": "lifetimeEarnings",
            "offset": 0,
            "slot": "2",
            "type": "t_uint256"
          },
          {
            "astId": 6118,
            "contract": "src/contracts/TopChef.sol:TopChef",
            "label": "claimable",
            "offset": 0,
            "slot": "3",
            "type": "t_uint256"
          }
        ],
        "numberOfBytes": "128"
      },
      "t_uint256": {
        "encoding": "inplace",
        "label": "uint256",
        "numberOfBytes": "32"
      }
    }
  }
}