{
  "address": "0xDc64a140Aa3E981100a9becA4E685f962f0cF6C9",
  "abi": [
    {
      "inputs": [
        {
          "internalType": "address",
          "name": "metricTokenAddress",
          "type": "address"
        },
        {
          "internalType": "address",
          "name": "questionStateControllerAddress",
          "type": "address"
        },
        {
          "internalType": "address",
          "name": "treasuryAddress",
          "type": "address"
        }
      ],
      "stateMutability": "nonpayable",
      "type": "constructor"
    },
    {
      "inputs": [],
      "name": "AlreadySlashed",
      "type": "error"
    },
    {
      "inputs": [],
      "name": "InvalidAddress",
      "type": "error"
    },
    {
      "inputs": [],
      "name": "InvalidStage",
      "type": "error"
    },
    {
      "inputs": [],
      "name": "NoMetricDeposited",
      "type": "error"
    },
    {
      "inputs": [],
      "name": "NotTheCostController",
      "type": "error"
    },
    {
      "inputs": [],
      "name": "NotTheDepositor",
      "type": "error"
    },
    {
      "inputs": [],
      "name": "QuestionHasInvalidStatus",
      "type": "error"
    },
    {
      "inputs": [],
      "name": "QuestionNotPublished",
      "type": "error"
    },
    {
      "anonymous": false,
      "inputs": [
        {
          "indexed": true,
          "internalType": "address",
          "name": "previousOwner",
          "type": "address"
        },
        {
          "indexed": true,
          "internalType": "address",
          "name": "newOwner",
          "type": "address"
        }
      ],
      "name": "OwnershipTransferred",
      "type": "event"
    },
    {
      "anonymous": false,
      "inputs": [
        {
          "indexed": true,
          "internalType": "address",
          "name": "user",
          "type": "address"
        },
        {
          "indexed": true,
          "internalType": "uint256",
          "name": "questionId",
          "type": "uint256"
        }
      ],
      "name": "Slashed",
      "type": "event"
    },
    {
      "anonymous": false,
      "inputs": [
        {
          "indexed": true,
          "internalType": "address",
          "name": "user",
          "type": "address"
        },
        {
          "indexed": true,
          "internalType": "uint256",
          "name": "amount",
          "type": "uint256"
        }
      ],
      "name": "Withdraw",
      "type": "event"
    },
    {
      "inputs": [],
      "name": "costController",
      "outputs": [
        {
          "internalType": "address",
          "name": "",
          "type": "address"
        }
      ],
      "stateMutability": "view",
      "type": "function"
    },
    {
      "inputs": [
        {
          "internalType": "address",
          "name": "",
          "type": "address"
        },
        {
          "internalType": "uint256",
          "name": "",
          "type": "uint256"
        }
      ],
      "name": "depositsByWithdrawers",
      "outputs": [
        {
          "internalType": "uint256",
          "name": "",
          "type": "uint256"
        }
      ],
      "stateMutability": "view",
      "type": "function"
    },
    {
      "inputs": [
        {
          "internalType": "uint256",
          "name": "questionId",
          "type": "uint256"
        },
        {
          "internalType": "uint256",
          "name": "stage",
          "type": "uint256"
        },
        {
          "internalType": "address",
          "name": "user",
          "type": "address"
        }
      ],
      "name": "getAmountFromProperties",
      "outputs": [
        {
          "internalType": "uint256",
          "name": "",
          "type": "uint256"
        }
      ],
      "stateMutability": "view",
      "type": "function"
    },
    {
      "inputs": [
        {
          "internalType": "uint256",
          "name": "questionId",
          "type": "uint256"
        }
      ],
      "name": "getLockedMetricByQuestion",
      "outputs": [
        {
          "internalType": "uint256",
          "name": "",
          "type": "uint256"
        }
      ],
      "stateMutability": "view",
      "type": "function"
    },
    {
      "inputs": [
        {
          "internalType": "address",
          "name": "_user",
          "type": "address"
        }
      ],
      "name": "getLockedPerUser",
      "outputs": [
        {
          "internalType": "uint256",
          "name": "",
          "type": "uint256"
        }
      ],
      "stateMutability": "view",
      "type": "function"
    },
    {
      "inputs": [],
      "name": "getMetricTotalLockedBalance",
      "outputs": [
        {
          "internalType": "uint256",
          "name": "",
          "type": "uint256"
        }
      ],
      "stateMutability": "view",
      "type": "function"
    },
    {
      "inputs": [
        {
          "internalType": "uint256",
          "name": "questionId",
          "type": "uint256"
        },
        {
          "internalType": "uint256",
          "name": "stage",
          "type": "uint256"
        },
        {
          "internalType": "address",
          "name": "user",
          "type": "address"
        }
      ],
      "name": "getUserFromProperties",
      "outputs": [
        {
          "internalType": "address",
          "name": "",
          "type": "address"
        }
      ],
      "stateMutability": "view",
      "type": "function"
    },
    {
      "inputs": [
        {
          "internalType": "uint256",
          "name": "questionId",
          "type": "uint256"
        },
        {
          "internalType": "uint256",
          "name": "stage",
          "type": "uint256"
        },
        {
          "internalType": "address",
          "name": "user",
          "type": "address"
        }
      ],
      "name": "getVaultById",
      "outputs": [
        {
          "components": [
            {
              "internalType": "address",
              "name": "user",
              "type": "address"
            },
            {
              "internalType": "uint256",
              "name": "amount",
              "type": "uint256"
            },
            {
              "internalType": "enum Vault.STATUS",
              "name": "status",
              "type": "uint8"
            }
          ],
          "internalType": "struct Vault.lockAttributes",
          "name": "",
          "type": "tuple"
        }
      ],
      "stateMutability": "view",
      "type": "function"
    },
    {
      "inputs": [
        {
          "internalType": "address",
          "name": "user",
          "type": "address"
        }
      ],
      "name": "getVaultsByWithdrawer",
      "outputs": [
        {
          "internalType": "uint256[]",
          "name": "",
          "type": "uint256[]"
        }
      ],
      "stateMutability": "view",
      "type": "function"
    },
    {
      "inputs": [
        {
          "internalType": "address",
          "name": "user",
          "type": "address"
        },
        {
          "internalType": "uint256",
          "name": "amount",
          "type": "uint256"
        },
        {
          "internalType": "uint256",
          "name": "questionId",
          "type": "uint256"
        },
        {
          "internalType": "uint256",
          "name": "stage",
          "type": "uint256"
        }
      ],
      "name": "lockMetric",
      "outputs": [],
      "stateMutability": "nonpayable",
      "type": "function"
    },
    {
      "inputs": [
        {
          "internalType": "uint256",
          "name": "",
          "type": "uint256"
        },
        {
          "internalType": "uint256",
          "name": "",
          "type": "uint256"
        },
        {
          "internalType": "address",
          "name": "",
          "type": "address"
        }
      ],
      "name": "lockedMetric",
      "outputs": [
        {
          "internalType": "address",
          "name": "user",
          "type": "address"
        },
        {
          "internalType": "uint256",
          "name": "amount",
          "type": "uint256"
        },
        {
          "internalType": "enum Vault.STATUS",
          "name": "status",
          "type": "uint8"
        }
      ],
      "stateMutability": "view",
      "type": "function"
    },
    {
      "inputs": [
        {
          "internalType": "uint256",
          "name": "",
          "type": "uint256"
        }
      ],
      "name": "lockedMetricByQuestion",
      "outputs": [
        {
          "internalType": "uint256",
          "name": "",
          "type": "uint256"
        }
      ],
      "stateMutability": "view",
      "type": "function"
    },
    {
      "inputs": [],
      "name": "metric",
      "outputs": [
        {
          "internalType": "contract IERC20",
          "name": "",
          "type": "address"
        }
      ],
      "stateMutability": "view",
      "type": "function"
    },
    {
      "inputs": [],
      "name": "owner",
      "outputs": [
        {
          "internalType": "address",
          "name": "",
          "type": "address"
        }
      ],
      "stateMutability": "view",
      "type": "function"
    },
    {
      "inputs": [],
      "name": "questionStateController",
      "outputs": [
        {
          "internalType": "contract IQuestionStateController",
          "name": "",
          "type": "address"
        }
      ],
      "stateMutability": "view",
      "type": "function"
    },
    {
      "inputs": [],
      "name": "renounceOwnership",
      "outputs": [],
      "stateMutability": "nonpayable",
      "type": "function"
    },
    {
      "inputs": [
        {
          "internalType": "address",
          "name": "_newCostController",
          "type": "address"
        }
      ],
      "name": "setCostController",
      "outputs": [],
      "stateMutability": "nonpayable",
      "type": "function"
    },
    {
      "inputs": [
        {
          "internalType": "address",
          "name": "_metric",
          "type": "address"
        }
      ],
      "name": "setMetric",
      "outputs": [],
      "stateMutability": "nonpayable",
      "type": "function"
    },
    {
      "inputs": [
        {
          "internalType": "address",
          "name": "_questionStateController",
          "type": "address"
        }
      ],
      "name": "setQuestionStateController",
      "outputs": [],
      "stateMutability": "nonpayable",
      "type": "function"
    },
    {
      "inputs": [
        {
          "internalType": "address",
          "name": "_treasury",
          "type": "address"
        }
      ],
      "name": "setTreasury",
      "outputs": [],
      "stateMutability": "nonpayable",
      "type": "function"
    },
    {
      "inputs": [],
      "name": "status",
      "outputs": [
        {
          "internalType": "enum Vault.STATUS",
          "name": "",
          "type": "uint8"
        }
      ],
      "stateMutability": "view",
      "type": "function"
    },
    {
      "inputs": [
        {
          "internalType": "address",
          "name": "",
          "type": "address"
        }
      ],
      "name": "totalLockedInVaults",
      "outputs": [
        {
          "internalType": "uint256",
          "name": "",
          "type": "uint256"
        }
      ],
      "stateMutability": "view",
      "type": "function"
    },
    {
      "inputs": [
        {
          "internalType": "address",
          "name": "newOwner",
          "type": "address"
        }
      ],
      "name": "transferOwnership",
      "outputs": [],
      "stateMutability": "nonpayable",
      "type": "function"
    },
    {
      "inputs": [],
      "name": "treasury",
      "outputs": [
        {
          "internalType": "address",
          "name": "",
          "type": "address"
        }
      ],
      "stateMutability": "view",
      "type": "function"
    },
    {
      "inputs": [
        {
          "internalType": "uint256",
          "name": "questionId",
          "type": "uint256"
        },
        {
          "internalType": "uint256",
          "name": "stage",
          "type": "uint256"
        }
      ],
      "name": "withdrawMetric",
      "outputs": [],
      "stateMutability": "nonpayable",
      "type": "function"
    }
  ],
  "transactionHash": "0xbb29c80dd2e8d7cc23538f126af03b907b1a476f3c62e7d31e7cc75d2647923c",
  "args": [
    "0x5FbDB2315678afecb367f032d93F642f64180aa3",
    "0xCf7Ed3AccA5a467e9e704C703E8D87F634fB0Fc9",
    "0x70997970C51812dc3A010C7d01b50e0d17dc79C8"
  ],
  "numDeployments": 1,
  "solcInputHash": "23a5c42ffdc6fce9090df76d82673573",
  "bytecode": "0x60806040523480156200001157600080fd5b506040516200269e3803806200269e833981810160405281019062000037919062000259565b620000576200004b6200012360201b60201c565b6200012b60201b60201c565b82600260006101000a81548173ffffffffffffffffffffffffffffffffffffffff021916908373ffffffffffffffffffffffffffffffffffffffff16021790555081600360006101000a81548173ffffffffffffffffffffffffffffffffffffffff021916908373ffffffffffffffffffffffffffffffffffffffff16021790555080600460006101000a81548173ffffffffffffffffffffffffffffffffffffffff021916908373ffffffffffffffffffffffffffffffffffffffff160217905550505050620002b5565b600033905090565b60008060009054906101000a900473ffffffffffffffffffffffffffffffffffffffff169050816000806101000a81548173ffffffffffffffffffffffffffffffffffffffff021916908373ffffffffffffffffffffffffffffffffffffffff1602179055508173ffffffffffffffffffffffffffffffffffffffff168173ffffffffffffffffffffffffffffffffffffffff167f8be0079c531659141344cd1fd0a4f28419497f9722a3daafe3b4186f6b6457e060405160405180910390a35050565b600080fd5b600073ffffffffffffffffffffffffffffffffffffffff82169050919050565b60006200022182620001f4565b9050919050565b620002338162000214565b81146200023f57600080fd5b50565b600081519050620002538162000228565b92915050565b600080600060608486031215620002755762000274620001ef565b5b6000620002858682870162000242565b9350506020620002988682870162000242565b9250506040620002ab8682870162000242565b9150509250925092565b6123d980620002c56000396000f3fe608060405234801561001057600080fd5b50600436106101735760003560e01c806371546b81116100de578063aa9ce2e611610097578063e37a9b6711610071578063e37a9b671461048a578063f0f44260146104a6578063f0f64201146104c2578063f2fde38b146104de57610173565b8063aa9ce2e61461041e578063b548fcae1461044e578063cb5519761461046c57610173565b806371546b811461032057806377f72a01146103505780637dd8421e146103805780638ad4b249146103b05780638ce58682146103e25780638da5cb5b1461040057610173565b8063434047d911610130578063434047d91461024c57806347365f5c1461027c5780635adbf5ff1461029857806361d027b3146102c857806369e9c77f146102e6578063715018a61461031657610173565b8063063e9e3a14610178578063074a8ed4146101a857806311de9a6c146101c45780631919bcd6146101e2578063200d2ed2146101fe5780633445f3321461021c575b600080fd5b610192600480360381019061018d9190611bb4565b6104fa565b60405161019f9190611bf0565b60405180910390f35b6101c260048036038101906101bd9190611c69565b610512565b005b6101cc6109e3565b6040516101d99190611d2f565b60405180910390f35b6101fc60048036038101906101f79190611d4a565b610a09565b005b610206610ac9565b6040516102139190611dee565b60405180910390f35b61023660048036038101906102319190611e09565b610adc565b6040516102439190611ecb565b60405180910390f35b61026660048036038101906102619190611bb4565b610bf4565b6040516102739190611bf0565b60405180910390f35b61029660048036038101906102919190611d4a565b610c11565b005b6102b260048036038101906102ad9190611d4a565b610d37565b6040516102bf9190611bf0565b60405180910390f35b6102d0610d4f565b6040516102dd9190611ef5565b60405180910390f35b61030060048036038101906102fb9190611e09565b610d75565b60405161030d9190611bf0565b60405180910390f35b61031e610de5565b005b61033a60048036038101906103359190611d4a565b610e6d565b6040516103479190611fbf565b60405180910390f35b61036a60048036038101906103659190611d4a565b610f04565b6040516103779190611bf0565b60405180910390f35b61039a60048036038101906103959190611e09565b610f4d565b6040516103a79190611ef5565b60405180910390f35b6103ca60048036038101906103c59190611e09565b610fdd565b6040516103d993929190611fe1565b60405180910390f35b6103ea61104e565b6040516103f79190611bf0565b60405180910390f35b6104086110f1565b6040516104159190611ef5565b60405180910390f35b61043860048036038101906104339190612018565b61111a565b6040516104459190611bf0565b60405180910390f35b61045661114b565b6040516104639190611ef5565b60405180910390f35b610474611171565b6040516104819190612079565b60405180910390f35b6104a4600480360381019061049f9190612094565b611197565b005b6104c060048036038101906104bb9190611d4a565b611787565b005b6104dc60048036038101906104d79190611d4a565b611847565b005b6104f860048036038101906104f39190611d4a565b61196d565b005b60066020528060005260406000206000915090505481565b600160009054906101000a900473ffffffffffffffffffffffffffffffffffffffff1673ffffffffffffffffffffffffffffffffffffffff16610553611a64565b73ffffffffffffffffffffffffffffffffffffffff16146105a0576040517f1ac379d700000000000000000000000000000000000000000000000000000000815260040160405180910390fd5b600381106105da576040517fe82a532900000000000000000000000000000000000000000000000000000000815260040160405180910390fd5b600060038111156105ee576105ed611d77565b5b60086000848152602001908152602001600020600083815260200190815260200160002060008673ffffffffffffffffffffffffffffffffffffffff1673ffffffffffffffffffffffffffffffffffffffff16815260200190815260200160002060020160009054906101000a900460ff16600381111561067257610671611d77565b5b146106a9576040517fbe9ad66900000000000000000000000000000000000000000000000000000000815260040160405180910390fd5b8360086000848152602001908152602001600020600083815260200190815260200160002060008673ffffffffffffffffffffffffffffffffffffffff1673ffffffffffffffffffffffffffffffffffffffff16815260200190815260200160002060000160006101000a81548173ffffffffffffffffffffffffffffffffffffffff021916908373ffffffffffffffffffffffffffffffffffffffff1602179055508260086000848152602001908152602001600020600083815260200190815260200160002060008673ffffffffffffffffffffffffffffffffffffffff1673ffffffffffffffffffffffffffffffffffffffff16815260200190815260200160002060010160008282546107c09190612103565b92505081905550826006600084815260200190815260200160002060008282546107ea9190612103565b92505081905550600160086000848152602001908152602001600020600083815260200190815260200160002060008673ffffffffffffffffffffffffffffffffffffffff1673ffffffffffffffffffffffffffffffffffffffff16815260200190815260200160002060020160006101000a81548160ff0219169083600381111561087957610878611d77565b5b021790555082600760008673ffffffffffffffffffffffffffffffffffffffff1673ffffffffffffffffffffffffffffffffffffffff16815260200190815260200160002060008282546108cd9190612103565b92505081905550600560008573ffffffffffffffffffffffffffffffffffffffff1673ffffffffffffffffffffffffffffffffffffffff168152602001908152602001600020829080600181540180825580915050600190039060005260206000200160009091909190915055600260009054906101000a900473ffffffffffffffffffffffffffffffffffffffff1673ffffffffffffffffffffffffffffffffffffffff166323b872dd8530866040518463ffffffff1660e01b815260040161099993929190612159565b6020604051808303816000875af11580156109b8573d6000803e3d6000fd5b505050506040513d601f19601f820116820180604052508101906109dc91906121c8565b5050505050565b600360009054906101000a900473ffffffffffffffffffffffffffffffffffffffff1681565b610a11611a64565b73ffffffffffffffffffffffffffffffffffffffff16610a2f6110f1565b73ffffffffffffffffffffffffffffffffffffffff1614610a85576040517f08c379a0000000000000000000000000000000000000000000000000000000008152600401610a7c90612252565b60405180910390fd5b80600160006101000a81548173ffffffffffffffffffffffffffffffffffffffff021916908373ffffffffffffffffffffffffffffffffffffffff16021790555050565b600360149054906101000a900460ff1681565b610ae4611b30565b60086000858152602001908152602001600020600084815260200190815260200160002060008373ffffffffffffffffffffffffffffffffffffffff1673ffffffffffffffffffffffffffffffffffffffff1681526020019081526020016000206040518060600160405290816000820160009054906101000a900473ffffffffffffffffffffffffffffffffffffffff1673ffffffffffffffffffffffffffffffffffffffff1673ffffffffffffffffffffffffffffffffffffffff168152602001600182015481526020016002820160009054906101000a900460ff166003811115610bd557610bd4611d77565b5b6003811115610be757610be6611d77565b5b8152505090509392505050565b600060066000838152602001908152602001600020549050919050565b610c19611a64565b73ffffffffffffffffffffffffffffffffffffffff16610c376110f1565b73ffffffffffffffffffffffffffffffffffffffff1614610c8d576040517f08c379a0000000000000000000000000000000000000000000000000000000008152600401610c8490612252565b60405180910390fd5b600073ffffffffffffffffffffffffffffffffffffffff168173ffffffffffffffffffffffffffffffffffffffff1603610cf3576040517fe6c4247b00000000000000000000000000000000000000000000000000000000815260040160405180910390fd5b80600260006101000a81548173ffffffffffffffffffffffffffffffffffffffff021916908373ffffffffffffffffffffffffffffffffffffffff16021790555050565b60076020528060005260406000206000915090505481565b600460009054906101000a900473ffffffffffffffffffffffffffffffffffffffff1681565b600060086000858152602001908152602001600020600084815260200190815260200160002060008373ffffffffffffffffffffffffffffffffffffffff1673ffffffffffffffffffffffffffffffffffffffff1681526020019081526020016000206001015490509392505050565b610ded611a64565b73ffffffffffffffffffffffffffffffffffffffff16610e0b6110f1565b73ffffffffffffffffffffffffffffffffffffffff1614610e61576040517f08c379a0000000000000000000000000000000000000000000000000000000008152600401610e5890612252565b60405180910390fd5b610e6b6000611a6c565b565b6060600560008373ffffffffffffffffffffffffffffffffffffffff1673ffffffffffffffffffffffffffffffffffffffff168152602001908152602001600020805480602002602001604051908101604052809291908181526020018280548015610ef857602002820191906000526020600020905b815481526020019060010190808311610ee4575b50505050509050919050565b6000600760008373ffffffffffffffffffffffffffffffffffffffff1673ffffffffffffffffffffffffffffffffffffffff168152602001908152602001600020549050919050565b600060086000858152602001908152602001600020600084815260200190815260200160002060008373ffffffffffffffffffffffffffffffffffffffff1673ffffffffffffffffffffffffffffffffffffffff16815260200190815260200160002060000160009054906101000a900473ffffffffffffffffffffffffffffffffffffffff1690509392505050565b600860205282600052604060002060205281600052604060002060205280600052604060002060009250925050508060000160009054906101000a900473ffffffffffffffffffffffffffffffffffffffff16908060010154908060020160009054906101000a900460ff16905083565b6000600260009054906101000a900473ffffffffffffffffffffffffffffffffffffffff1673ffffffffffffffffffffffffffffffffffffffff166370a08231306040518263ffffffff1660e01b81526004016110ab9190611ef5565b602060405180830381865afa1580156110c8573d6000803e3d6000fd5b505050506040513d601f19601f820116820180604052508101906110ec9190612287565b905090565b60008060009054906101000a900473ffffffffffffffffffffffffffffffffffffffff16905090565b6005602052816000526040600020818154811061113657600080fd5b90600052602060002001600091509150505481565b600160009054906101000a900473ffffffffffffffffffffffffffffffffffffffff1681565b600260009054906101000a900473ffffffffffffffffffffffffffffffffffffffff1681565b600381106111d1576040517fe82a532900000000000000000000000000000000000000000000000000000000815260040160405180910390fd5b60086000838152602001908152602001600020600082815260200190815260200160002060006111ff611a64565b73ffffffffffffffffffffffffffffffffffffffff1673ffffffffffffffffffffffffffffffffffffffff16815260200190815260200160002060000160009054906101000a900473ffffffffffffffffffffffffffffffffffffffff1673ffffffffffffffffffffffffffffffffffffffff1661127b611a64565b73ffffffffffffffffffffffffffffffffffffffff16146112c8576040517f7ff62b7d00000000000000000000000000000000000000000000000000000000815260040160405180910390fd5b600160038111156112dc576112db611d77565b5b600860008481526020019081526020016000206000838152602001908152602001600020600061130a611a64565b73ffffffffffffffffffffffffffffffffffffffff1673ffffffffffffffffffffffffffffffffffffffff16815260200190815260200160002060020160009054906101000a900460ff16600381111561136757611366611d77565b5b1461139e576040517f7109e46600000000000000000000000000000000000000000000000000000000815260040160405180910390fd5b6000810361178257600260048111156113ba576113b9611d77565b5b600360009054906101000a900473ffffffffffffffffffffffffffffffffffffffff1673ffffffffffffffffffffffffffffffffffffffff166344c9af28846040518263ffffffff1660e01b81526004016114159190611bf0565b602060405180830381865afa158015611432573d6000803e3d6000fd5b505050506040513d601f19601f820116820180604052508101906114569190612287565b1461148d576040517f9aded0d000000000000000000000000000000000000000000000000000000000815260040160405180910390fd5b600060086000848152602001908152602001600020600083815260200190815260200160002060006114bd611a64565b73ffffffffffffffffffffffffffffffffffffffff1673ffffffffffffffffffffffffffffffffffffffff1681526020019081526020016000206001015490506002600860008581526020019081526020016000206000848152602001908152602001600020600061152d611a64565b73ffffffffffffffffffffffffffffffffffffffff1673ffffffffffffffffffffffffffffffffffffffff16815260200190815260200160002060020160006101000a81548160ff0219169083600381111561158c5761158b611d77565b5b0217905550600060086000858152602001908152602001600020600084815260200190815260200160002060006115c1611a64565b73ffffffffffffffffffffffffffffffffffffffff1673ffffffffffffffffffffffffffffffffffffffff168152602001908152602001600020600101819055508060066000858152602001908152602001600020600082825461162591906122b4565b925050819055508060076000611639611a64565b73ffffffffffffffffffffffffffffffffffffffff1673ffffffffffffffffffffffffffffffffffffffff168152602001908152602001600020600082825461168291906122b4565b92505081905550600260009054906101000a900473ffffffffffffffffffffffffffffffffffffffff1673ffffffffffffffffffffffffffffffffffffffff1663a9059cbb6116cf611a64565b836040518363ffffffff1660e01b81526004016116ed9291906122e8565b6020604051808303816000875af115801561170c573d6000803e3d6000fd5b505050506040513d601f19601f8201168201806040525081019061173091906121c8565b508061173a611a64565b73ffffffffffffffffffffffffffffffffffffffff167f884edad9ce6fa2440d8a54cc123490eb96d2768479d49ff9c7366125a942436460405160405180910390a350611783565b5b5050565b61178f611a64565b73ffffffffffffffffffffffffffffffffffffffff166117ad6110f1565b73ffffffffffffffffffffffffffffffffffffffff1614611803576040517f08c379a00000000000000000000000000000000000000000000000000000000081526004016117fa90612252565b60405180910390fd5b80600460006101000a81548173ffffffffffffffffffffffffffffffffffffffff021916908373ffffffffffffffffffffffffffffffffffffffff16021790555050565b61184f611a64565b73ffffffffffffffffffffffffffffffffffffffff1661186d6110f1565b73ffffffffffffffffffffffffffffffffffffffff16146118c3576040517f08c379a00000000000000000000000000000000000000000000000000000000081526004016118ba90612252565b60405180910390fd5b600073ffffffffffffffffffffffffffffffffffffffff168173ffffffffffffffffffffffffffffffffffffffff1603611929576040517fe6c4247b00000000000000000000000000000000000000000000000000000000815260040160405180910390fd5b80600360006101000a81548173ffffffffffffffffffffffffffffffffffffffff021916908373ffffffffffffffffffffffffffffffffffffffff16021790555050565b611975611a64565b73ffffffffffffffffffffffffffffffffffffffff166119936110f1565b73ffffffffffffffffffffffffffffffffffffffff16146119e9576040517f08c379a00000000000000000000000000000000000000000000000000000000081526004016119e090612252565b60405180910390fd5b600073ffffffffffffffffffffffffffffffffffffffff168173ffffffffffffffffffffffffffffffffffffffff1603611a58576040517f08c379a0000000000000000000000000000000000000000000000000000000008152600401611a4f90612383565b60405180910390fd5b611a6181611a6c565b50565b600033905090565b60008060009054906101000a900473ffffffffffffffffffffffffffffffffffffffff169050816000806101000a81548173ffffffffffffffffffffffffffffffffffffffff021916908373ffffffffffffffffffffffffffffffffffffffff1602179055508173ffffffffffffffffffffffffffffffffffffffff168173ffffffffffffffffffffffffffffffffffffffff167f8be0079c531659141344cd1fd0a4f28419497f9722a3daafe3b4186f6b6457e060405160405180910390a35050565b6040518060600160405280600073ffffffffffffffffffffffffffffffffffffffff1681526020016000815260200160006003811115611b7357611b72611d77565b5b81525090565b600080fd5b6000819050919050565b611b9181611b7e565b8114611b9c57600080fd5b50565b600081359050611bae81611b88565b92915050565b600060208284031215611bca57611bc9611b79565b5b6000611bd884828501611b9f565b91505092915050565b611bea81611b7e565b82525050565b6000602082019050611c056000830184611be1565b92915050565b600073ffffffffffffffffffffffffffffffffffffffff82169050919050565b6000611c3682611c0b565b9050919050565b611c4681611c2b565b8114611c5157600080fd5b50565b600081359050611c6381611c3d565b92915050565b60008060008060808587031215611c8357611c82611b79565b5b6000611c9187828801611c54565b9450506020611ca287828801611b9f565b9350506040611cb387828801611b9f565b9250506060611cc487828801611b9f565b91505092959194509250565b6000819050919050565b6000611cf5611cf0611ceb84611c0b565b611cd0565b611c0b565b9050919050565b6000611d0782611cda565b9050919050565b6000611d1982611cfc565b9050919050565b611d2981611d0e565b82525050565b6000602082019050611d446000830184611d20565b92915050565b600060208284031215611d6057611d5f611b79565b5b6000611d6e84828501611c54565b91505092915050565b7f4e487b7100000000000000000000000000000000000000000000000000000000600052602160045260246000fd5b60048110611db757611db6611d77565b5b50565b6000819050611dc882611da6565b919050565b6000611dd882611dba565b9050919050565b611de881611dcd565b82525050565b6000602082019050611e036000830184611ddf565b92915050565b600080600060608486031215611e2257611e21611b79565b5b6000611e3086828701611b9f565b9350506020611e4186828701611b9f565b9250506040611e5286828701611c54565b9150509250925092565b611e6581611c2b565b82525050565b611e7481611b7e565b82525050565b611e8381611dcd565b82525050565b606082016000820151611e9f6000850182611e5c565b506020820151611eb26020850182611e6b565b506040820151611ec56040850182611e7a565b50505050565b6000606082019050611ee06000830184611e89565b92915050565b611eef81611c2b565b82525050565b6000602082019050611f0a6000830184611ee6565b92915050565b600081519050919050565b600082825260208201905092915050565b6000819050602082019050919050565b6000611f488383611e6b565b60208301905092915050565b6000602082019050919050565b6000611f6c82611f10565b611f768185611f1b565b9350611f8183611f2c565b8060005b83811015611fb2578151611f998882611f3c565b9750611fa483611f54565b925050600181019050611f85565b5085935050505092915050565b60006020820190508181036000830152611fd98184611f61565b905092915050565b6000606082019050611ff66000830186611ee6565b6120036020830185611be1565b6120106040830184611ddf565b949350505050565b6000806040838503121561202f5761202e611b79565b5b600061203d85828601611c54565b925050602061204e85828601611b9f565b9150509250929050565b600061206382611cfc565b9050919050565b61207381612058565b82525050565b600060208201905061208e600083018461206a565b92915050565b600080604083850312156120ab576120aa611b79565b5b60006120b985828601611b9f565b92505060206120ca85828601611b9f565b9150509250929050565b7f4e487b7100000000000000000000000000000000000000000000000000000000600052601160045260246000fd5b600061210e82611b7e565b915061211983611b7e565b9250827fffffffffffffffffffffffffffffffffffffffffffffffffffffffffffffffff0382111561214e5761214d6120d4565b5b828201905092915050565b600060608201905061216e6000830186611ee6565b61217b6020830185611ee6565b6121886040830184611be1565b949350505050565b60008115159050919050565b6121a581612190565b81146121b057600080fd5b50565b6000815190506121c28161219c565b92915050565b6000602082840312156121de576121dd611b79565b5b60006121ec848285016121b3565b91505092915050565b600082825260208201905092915050565b7f4f776e61626c653a2063616c6c6572206973206e6f7420746865206f776e6572600082015250565b600061223c6020836121f5565b915061224782612206565b602082019050919050565b6000602082019050818103600083015261226b8161222f565b9050919050565b60008151905061228181611b88565b92915050565b60006020828403121561229d5761229c611b79565b5b60006122ab84828501612272565b91505092915050565b60006122bf82611b7e565b91506122ca83611b7e565b9250828210156122dd576122dc6120d4565b5b828203905092915050565b60006040820190506122fd6000830185611ee6565b61230a6020830184611be1565b9392505050565b7f4f776e61626c653a206e6577206f776e657220697320746865207a65726f206160008201527f6464726573730000000000000000000000000000000000000000000000000000602082015250565b600061236d6026836121f5565b915061237882612311565b604082019050919050565b6000602082019050818103600083015261239c81612360565b905091905056fea264697066735822122010ae1840f5279b81ded2c1b4790c49059b27ebdecf1351187f1d319475b5aa9b64736f6c634300080d0033",
  "devdoc": {
    "kind": "dev",
    "methods": {
      "constructor": {
        "params": {
          "metricTokenAddress": "The Metric token address",
          "questionStateControllerAddress": "The QuestionStateController address.",
          "treasuryAddress": "The treasury address."
        }
      },
      "getMetricTotalLockedBalance()": {
        "returns": {
          "_0": "The total amount of Metric locked in the vault."
        }
      },
      "getVaultById(uint256,uint256,address)": {
        "params": {
          "questionId": "The question id.",
          "stage": "The stage of the question.",
          "user": "The address of the user."
        },
        "returns": {
          "_0": "A struct containing the attributes of the question (withdrawer, amount, status)."
        }
      },
      "getVaultsByWithdrawer(address)": {
        "params": {
          "user": "The address of the user."
        },
        "returns": {
          "_0": "The questions that the user has created."
        }
      },
      "lockMetric(address,uint256,uint256,uint256)": {
        "params": {
          "amount": "The amount of METRIC to lock",
          "questionId": "The question id'",
          "stage": "The stage for which METRIC is locked",
          "user": "The address of the user locking the METRIC"
        }
      },
      "owner()": {
        "details": "Returns the address of the current owner."
      },
      "renounceOwnership()": {
        "details": "Leaves the contract without owner. It will not be possible to call `onlyOwner` functions anymore. Can only be called by the current owner. NOTE: Renouncing ownership will leave the contract without an owner, thereby removing any functionality that is only available to the owner."
      },
      "setCostController(address)": {
        "params": {
          "_newCostController": "The new address of the ActionCostController."
        }
      },
      "transferOwnership(address)": {
        "details": "Transfers ownership of the contract to a new account (`newOwner`). Can only be called by the current owner."
      },
      "withdrawMetric(uint256,uint256)": {
        "params": {
          "questionId": "The question id",
          "stage": "The stage for which the user is withdrawing metric from a question."
        }
      }
    },
    "version": 1
  },
  "userdoc": {
    "errors": {
      "AlreadySlashed()": [
        {
          "notice": "Throw if the same question is slashed twice."
        }
      ],
      "InvalidAddress()": [
        {
          "notice": "Throw if address is equal to address(0)."
        }
      ],
      "InvalidStage()": [
        {
          "notice": "Throw if user tries to lock METRIC for a stage that does not require locking."
        }
      ],
      "NoMetricDeposited()": [
        {
          "notice": "Throw if user tries to withdraw Metric without having first deposited."
        }
      ],
      "NotTheDepositor()": [
        {
          "notice": "Throw if user tries to withdraw Metric from a question it does not own."
        }
      ],
      "QuestionHasInvalidStatus()": [
        {
          "notice": "Throw if user tries to lock Metric for a question that has a different state than UNINT."
        }
      ],
      "QuestionNotPublished()": [
        {
          "notice": "Throw if user tries to claim Metric for a question that has not been published (yet)."
        }
      ]
    },
    "events": {
      "Slashed(address,uint256)": {
        "notice": "Event emitted when a question is slashed."
      },
      "Withdraw(address,uint256)": {
        "notice": "Event emitted when Metric is withdrawn."
      }
    },
    "kind": "user",
    "methods": {
      "constructor": {
        "notice": "Constructor sets the question Metric token, QuestionStateController and the treasury."
      },
      "depositsByWithdrawers(address,uint256)": {
        "notice": "Keeps track of the quantity of deposits per user."
      },
      "getMetricTotalLockedBalance()": {
        "notice": "Gets the total amount of Metric locked in the vault."
      },
      "getVaultById(uint256,uint256,address)": {
        "notice": "Gets the information about the vault attributes of a question."
      },
      "getVaultsByWithdrawer(address)": {
        "notice": "Gets the questions that a user has created."
      },
      "lockMetric(address,uint256,uint256,uint256)": {
        "notice": "Locks METRIC for creating a question"
      },
      "lockedMetric(uint256,uint256,address)": {
        "notice": "Keeps track of the quantity of withdrawals per user."
      },
      "lockedMetricByQuestion(uint256)": {
        "notice": "Keeps track of the amount of METRIC locked per question"
      },
      "setCostController(address)": {
        "notice": "Sets the address of the ActionCostController."
      },
      "setMetric(address)": {
        "notice": "Allows owner to update the Metric token address."
      },
      "setQuestionStateController(address)": {
        "notice": "Allows owner to update the QuestionStateController."
      },
      "setTreasury(address)": {
        "notice": "Allows owner to update the treasury address."
      },
      "totalLockedInVaults(address)": {
        "notice": "Keeps track of total amount in vault for a given user."
      },
      "treasury()": {
        "notice": "Address to the MetricsDAO treasury."
      },
      "withdrawMetric(uint256,uint256)": {
        "notice": "Allows a user to withdraw METRIC locked for a question, after the question is published."
      }
    },
    "version": 1
  },
  "storageLayout": {
    "storage": [
      {
        "astId": 7,
        "contract": "src/contracts/Protocol/Vault.sol:Vault",
        "label": "_owner",
        "offset": 0,
        "slot": "0",
        "type": "t_address"
      },
      {
        "astId": 5529,
        "contract": "src/contracts/Protocol/Vault.sol:Vault",
        "label": "costController",
        "offset": 0,
        "slot": "1",
        "type": "t_address"
      },
      {
        "astId": 4762,
        "contract": "src/contracts/Protocol/Vault.sol:Vault",
        "label": "metric",
        "offset": 0,
        "slot": "2",
        "type": "t_contract(IERC20)865"
      },
      {
        "astId": 4765,
        "contract": "src/contracts/Protocol/Vault.sol:Vault",
        "label": "questionStateController",
        "offset": 0,
        "slot": "3",
        "type": "t_contract(IQuestionStateController)5387"
      },
      {
        "astId": 4768,
        "contract": "src/contracts/Protocol/Vault.sol:Vault",
        "label": "status",
        "offset": 20,
        "slot": "3",
        "type": "t_enum(STATUS)4831"
      },
      {
        "astId": 4771,
        "contract": "src/contracts/Protocol/Vault.sol:Vault",
        "label": "treasury",
        "offset": 0,
        "slot": "4",
        "type": "t_address"
      },
      {
        "astId": 4777,
        "contract": "src/contracts/Protocol/Vault.sol:Vault",
        "label": "depositsByWithdrawers",
        "offset": 0,
        "slot": "5",
        "type": "t_mapping(t_address,t_array(t_uint256)dyn_storage)"
      },
      {
        "astId": 4782,
        "contract": "src/contracts/Protocol/Vault.sol:Vault",
        "label": "lockedMetricByQuestion",
        "offset": 0,
        "slot": "6",
        "type": "t_mapping(t_uint256,t_uint256)"
      },
      {
        "astId": 4787,
        "contract": "src/contracts/Protocol/Vault.sol:Vault",
        "label": "totalLockedInVaults",
        "offset": 0,
        "slot": "7",
        "type": "t_mapping(t_address,t_uint256)"
      },
      {
        "astId": 4797,
        "contract": "src/contracts/Protocol/Vault.sol:Vault",
        "label": "lockedMetric",
        "offset": 0,
        "slot": "8",
        "type": "t_mapping(t_uint256,t_mapping(t_uint256,t_mapping(t_address,t_struct(lockAttributes)4826_storage)))"
      }
    ],
    "types": {
      "t_address": {
        "encoding": "inplace",
        "label": "address",
        "numberOfBytes": "20"
      },
      "t_array(t_uint256)dyn_storage": {
        "base": "t_uint256",
        "encoding": "dynamic_array",
        "label": "uint256[]",
        "numberOfBytes": "32"
      },
      "t_contract(IERC20)865": {
        "encoding": "inplace",
        "label": "contract IERC20",
        "numberOfBytes": "20"
      },
      "t_contract(IQuestionStateController)5387": {
        "encoding": "inplace",
        "label": "contract IQuestionStateController",
        "numberOfBytes": "20"
      },
      "t_enum(STATUS)4831": {
        "encoding": "inplace",
        "label": "enum Vault.STATUS",
        "numberOfBytes": "1"
      },
      "t_mapping(t_address,t_array(t_uint256)dyn_storage)": {
        "encoding": "mapping",
        "key": "t_address",
        "label": "mapping(address => uint256[])",
        "numberOfBytes": "32",
        "value": "t_array(t_uint256)dyn_storage"
      },
      "t_mapping(t_address,t_struct(lockAttributes)4826_storage)": {
        "encoding": "mapping",
        "key": "t_address",
        "label": "mapping(address => struct Vault.lockAttributes)",
        "numberOfBytes": "32",
        "value": "t_struct(lockAttributes)4826_storage"
      },
      "t_mapping(t_address,t_uint256)": {
        "encoding": "mapping",
        "key": "t_address",
        "label": "mapping(address => uint256)",
        "numberOfBytes": "32",
        "value": "t_uint256"
      },
      "t_mapping(t_uint256,t_mapping(t_address,t_struct(lockAttributes)4826_storage))": {
        "encoding": "mapping",
        "key": "t_uint256",
        "label": "mapping(uint256 => mapping(address => struct Vault.lockAttributes))",
        "numberOfBytes": "32",
        "value": "t_mapping(t_address,t_struct(lockAttributes)4826_storage)"
      },
      "t_mapping(t_uint256,t_mapping(t_uint256,t_mapping(t_address,t_struct(lockAttributes)4826_storage)))": {
        "encoding": "mapping",
        "key": "t_uint256",
        "label": "mapping(uint256 => mapping(uint256 => mapping(address => struct Vault.lockAttributes)))",
        "numberOfBytes": "32",
        "value": "t_mapping(t_uint256,t_mapping(t_address,t_struct(lockAttributes)4826_storage))"
      },
      "t_mapping(t_uint256,t_uint256)": {
        "encoding": "mapping",
        "key": "t_uint256",
        "label": "mapping(uint256 => uint256)",
        "numberOfBytes": "32",
        "value": "t_uint256"
      },
      "t_struct(lockAttributes)4826_storage": {
        "encoding": "inplace",
        "label": "struct Vault.lockAttributes",
        "members": [
          {
            "astId": 4820,
            "contract": "src/contracts/Protocol/Vault.sol:Vault",
            "label": "user",
            "offset": 0,
            "slot": "0",
            "type": "t_address"
          },
          {
            "astId": 4822,
            "contract": "src/contracts/Protocol/Vault.sol:Vault",
            "label": "amount",
            "offset": 0,
            "slot": "1",
            "type": "t_uint256"
          },
          {
            "astId": 4825,
            "contract": "src/contracts/Protocol/Vault.sol:Vault",
            "label": "status",
            "offset": 0,
            "slot": "2",
            "type": "t_enum(STATUS)4831"
          }
        ],
        "numberOfBytes": "96"
      },
      "t_uint256": {
        "encoding": "inplace",
        "label": "uint256",
        "numberOfBytes": "32"
      }
    }
  }
}