{
  "address": "0x849fa310761d97ee02F1D633fE077b310Be5adD2",
  "abi": [
    {
      "inputs": [
        {
          "internalType": "address",
          "name": "bountyQuestion",
          "type": "address"
        },
        {
          "internalType": "address",
          "name": "questionStateController",
          "type": "address"
        },
        {
          "internalType": "address",
          "name": "claimController",
          "type": "address"
        },
        {
          "internalType": "address",
          "name": "costController",
          "type": "address"
        }
      ],
      "stateMutability": "nonpayable",
      "type": "constructor"
    },
    {
      "inputs": [],
      "name": "ClaimsNotOpen",
      "type": "error"
    },
    {
      "inputs": [],
      "name": "DoesNotHold",
      "type": "error"
    },
    {
      "inputs": [],
      "name": "NotAtBenchmark",
      "type": "error"
    },
    {
      "anonymous": false,
      "inputs": [
        {
          "indexed": true,
          "internalType": "address",
          "name": "previousOwner",
          "type": "address"
        },
        {
          "indexed": true,
          "internalType": "address",
          "name": "newOwner",
          "type": "address"
        }
      ],
      "name": "OwnershipTransferred",
      "type": "event"
    },
    {
      "inputs": [],
      "name": "PROGRAM_MANAGER_ROLE",
      "outputs": [
        {
          "internalType": "bytes32",
          "name": "",
          "type": "bytes32"
        }
      ],
      "stateMutability": "view",
      "type": "function"
    },
    {
      "inputs": [
        {
          "internalType": "bytes32",
          "name": "role",
          "type": "bytes32"
        },
        {
          "internalType": "address",
          "name": "nft",
          "type": "address"
        }
      ],
      "name": "addHolderRole",
      "outputs": [],
      "stateMutability": "nonpayable",
      "type": "function"
    },
    {
      "inputs": [
        {
          "internalType": "uint256",
          "name": "questionId",
          "type": "uint256"
        },
        {
          "internalType": "string",
          "name": "answerURL",
          "type": "string"
        }
      ],
      "name": "answerQuestion",
      "outputs": [],
      "stateMutability": "nonpayable",
      "type": "function"
    },
    {
      "inputs": [
        {
          "internalType": "uint256",
          "name": "questionId",
          "type": "uint256"
        }
      ],
      "name": "claimQuestion",
      "outputs": [],
      "stateMutability": "nonpayable",
      "type": "function"
    },
    {
      "inputs": [
        {
          "internalType": "string",
          "name": "uri",
          "type": "string"
        },
        {
          "internalType": "uint256",
          "name": "claimLimit",
          "type": "uint256"
        }
      ],
      "name": "createChallenge",
      "outputs": [
        {
          "internalType": "uint256",
          "name": "",
          "type": "uint256"
        }
      ],
      "stateMutability": "nonpayable",
      "type": "function"
    },
    {
      "inputs": [
        {
          "internalType": "string",
          "name": "uri",
          "type": "string"
        },
        {
          "internalType": "uint256",
          "name": "claimLimit",
          "type": "uint256"
        }
      ],
      "name": "createQuestion",
      "outputs": [
        {
          "internalType": "uint256",
          "name": "",
          "type": "uint256"
        }
      ],
      "stateMutability": "nonpayable",
      "type": "function"
    },
    {
      "inputs": [],
      "name": "currentQuestionId",
      "outputs": [
        {
          "internalType": "uint256",
          "name": "",
          "type": "uint256"
        }
      ],
      "stateMutability": "view",
      "type": "function"
    },
    {
      "inputs": [
        {
          "internalType": "uint256",
          "name": "questionId",
          "type": "uint256"
        }
      ],
      "name": "disqualifyQuestion",
      "outputs": [],
      "stateMutability": "nonpayable",
      "type": "function"
    },
    {
      "inputs": [],
      "name": "owner",
      "outputs": [
        {
          "internalType": "address",
          "name": "",
          "type": "address"
        }
      ],
      "stateMutability": "view",
      "type": "function"
    },
    {
      "inputs": [
        {
          "internalType": "uint256",
          "name": "questionId",
          "type": "uint256"
        }
      ],
      "name": "publishQuestion",
      "outputs": [],
      "stateMutability": "nonpayable",
      "type": "function"
    },
    {
      "inputs": [],
      "name": "renounceOwnership",
      "outputs": [],
      "stateMutability": "nonpayable",
      "type": "function"
    },
    {
      "inputs": [
        {
          "internalType": "address",
          "name": "newQuestion",
          "type": "address"
        }
      ],
      "name": "setClaimController",
      "outputs": [],
      "stateMutability": "nonpayable",
      "type": "function"
    },
    {
      "inputs": [
        {
          "internalType": "address",
          "name": "newCost",
          "type": "address"
        }
      ],
      "name": "setCostController",
      "outputs": [],
      "stateMutability": "nonpayable",
      "type": "function"
    },
    {
      "inputs": [
        {
          "internalType": "address",
          "name": "newQuestion",
          "type": "address"
        }
      ],
      "name": "setQuestionProxy",
      "outputs": [],
      "stateMutability": "nonpayable",
      "type": "function"
    },
    {
      "inputs": [
        {
          "internalType": "address",
          "name": "newQuestion",
          "type": "address"
        }
      ],
      "name": "setQuestionStateController",
      "outputs": [],
      "stateMutability": "nonpayable",
      "type": "function"
    },
    {
      "inputs": [
        {
          "internalType": "address",
          "name": "newOwner",
          "type": "address"
        }
      ],
      "name": "transferOwnership",
      "outputs": [],
      "stateMutability": "nonpayable",
      "type": "function"
    },
    {
      "inputs": [
        {
          "internalType": "uint256",
          "name": "questionId",
          "type": "uint256"
        }
      ],
      "name": "unvoteQuestion",
      "outputs": [],
      "stateMutability": "nonpayable",
      "type": "function"
    },
    {
      "inputs": [
        {
          "internalType": "uint256",
          "name": "questionId",
          "type": "uint256"
        },
        {
          "internalType": "uint256",
          "name": "amount",
          "type": "uint256"
        }
      ],
      "name": "upvoteQuestion",
      "outputs": [],
      "stateMutability": "nonpayable",
      "type": "function"
    }
  ],
  "transactionHash": "0x9c4ea57f630abb75d07ee9e9db85f0a416170563a3c1fd3fffd42e7fc6b79d22",
  "args": [
    "0xE64AedB13b71033Ed6AeeA6f200BC963d47A31da",
    "0x034836e10E4AF328d30f223DB31dD689f1bb5d89",
    "0x90EA3EC3deb32DCbCfd87d81E358011185d2998e",
    "0xf4681fFd2072657413F1950D7F55FdE96868F415"
  ],
  "numDeployments": 1,
  "solcInputHash": "6f36acf124c5a645efd286abe6af4794",
  "bytecode": "0x60806040523480156200001157600080fd5b5060405162001e1438038062001e1483398181016040528101906200003791906200029b565b620000576200004b6200016560201b60201c565b6200016d60201b60201c565b83600260006101000a81548173ffffffffffffffffffffffffffffffffffffffff021916908373ffffffffffffffffffffffffffffffffffffffff16021790555082600360006101000a81548173ffffffffffffffffffffffffffffffffffffffff021916908373ffffffffffffffffffffffffffffffffffffffff16021790555081600460006101000a81548173ffffffffffffffffffffffffffffffffffffffff021916908373ffffffffffffffffffffffffffffffffffffffff16021790555080600560006101000a81548173ffffffffffffffffffffffffffffffffffffffff021916908373ffffffffffffffffffffffffffffffffffffffff160217905550505050506200030d565b600033905090565b60008060009054906101000a900473ffffffffffffffffffffffffffffffffffffffff169050816000806101000a81548173ffffffffffffffffffffffffffffffffffffffff021916908373ffffffffffffffffffffffffffffffffffffffff1602179055508173ffffffffffffffffffffffffffffffffffffffff168173ffffffffffffffffffffffffffffffffffffffff167f8be0079c531659141344cd1fd0a4f28419497f9722a3daafe3b4186f6b6457e060405160405180910390a35050565b600080fd5b600073ffffffffffffffffffffffffffffffffffffffff82169050919050565b6000620002638262000236565b9050919050565b620002758162000256565b81146200028157600080fd5b50565b60008151905062000295816200026a565b92915050565b60008060008060808587031215620002b857620002b762000231565b5b6000620002c88782880162000284565b9450506020620002db8782880162000284565b9350506040620002ee8782880162000284565b9250506060620003018782880162000284565b91505092959194509250565b611af7806200031d6000396000f3fe608060405234801561001057600080fd5b50600436106101165760003560e01c806371959d69116100a2578063bc41029711610071578063bc410297146102a1578063e9d8c381146102bd578063ec8f6777146102db578063f0f64201146102f7578063f2fde38b1461031357610116565b806371959d69146102075780638da5cb5b1461023757806398c9f1df146102555780639a6110b41461028557610116565b8063211e3734116100e9578063211e37341461018d578063314c3e98146101a9578063447e52a0146101c55780636ee5a1b1146101e1578063715018a6146101fd57610116565b8063072d8e7e1461011b5780630ef4b5311461013757806315da65a5146101535780631919bcd614610171575b600080fd5b610135600480360381019061013091906114f6565b61032f565b005b610151600480360381019061014c91906114f6565b610400565b005b61015b610577565b6040516101689190611532565b60405180910390f35b61018b600480360381019061018691906115ab565b61057d565b005b6101a760048036038101906101a291906115d8565b61063d565b005b6101c360048036038101906101be919061164e565b6106d9565b005b6101df60048036038101906101da91906116f3565b6107ab565b005b6101fb60048036038101906101f691906114f6565b610841565b005b6102056108da565b005b610221600480360381019061021c9190611753565b610962565b60405161022e9190611532565b60405180910390f35b61023f610bd8565b60405161024c91906117c2565b60405180910390f35b61026f600480360381019061026a9190611753565b610c01565b60405161027c9190611532565b60405180910390f35b61029f600480360381019061029a91906114f6565b610e93565b005b6102bb60048036038101906102b691906115ab565b610f9f565b005b6102c561105f565b6040516102d291906117ec565b60405180910390f35b6102f560048036038101906102f091906115ab565b611083565b005b610311600480360381019061030c91906115ab565b611143565b005b61032d600480360381019061032891906115ab565b611203565b005b6000600190506001811461036f576040517f1aa2b4b200000000000000000000000000000000000000000000000000000000815260040160405180910390fd5b600360009054906101000a900473ffffffffffffffffffffffffffffffffffffffff1673ffffffffffffffffffffffffffffffffffffffff1663cc4ef119836040518263ffffffff1660e01b81526004016103ca9190611532565b600060405180830381600087803b1580156103e457600080fd5b505af11580156103f8573d6000803e3d6000fd5b505050505050565b6002600481111561041457610413611807565b5b600360009054906101000a900473ffffffffffffffffffffffffffffffffffffffff1673ffffffffffffffffffffffffffffffffffffffff166344c9af28836040518263ffffffff1660e01b815260040161046f9190611532565b602060405180830381865afa15801561048c573d6000803e3d6000fd5b505050506040513d601f19601f820116820180604052508101906104b0919061184b565b146104e7576040517f3b03644900000000000000000000000000000000000000000000000000000000815260040160405180910390fd5b600460009054906101000a900473ffffffffffffffffffffffffffffffffffffffff1673ffffffffffffffffffffffffffffffffffffffff1663379607f5826040518263ffffffff1660e01b81526004016105429190611532565b600060405180830381600087803b15801561055c57600080fd5b505af1158015610570573d6000803e3d6000fd5b5050505050565b60065481565b6105856112fa565b73ffffffffffffffffffffffffffffffffffffffff166105a3610bd8565b73ffffffffffffffffffffffffffffffffffffffff16146105f9576040517f08c379a00000000000000000000000000000000000000000000000000000000081526004016105f0906118d5565b60405180910390fd5b80600560006101000a81548173ffffffffffffffffffffffffffffffffffffffff021916908373ffffffffffffffffffffffffffffffffffffffff16021790555050565b600360009054906101000a900473ffffffffffffffffffffffffffffffffffffffff1673ffffffffffffffffffffffffffffffffffffffff16637644bd8f6106836112fa565b84846040518463ffffffff1660e01b81526004016106a3939291906118f5565b600060405180830381600087803b1580156106bd57600080fd5b505af11580156106d1573d6000803e3d6000fd5b505050505050565b6106e16112fa565b73ffffffffffffffffffffffffffffffffffffffff166106ff610bd8565b73ffffffffffffffffffffffffffffffffffffffff1614610755576040517f08c379a000000000000000000000000000000000000000000000000000000000815260040161074c906118d5565b60405180910390fd5b806001600084815260200190815260200160002060006101000a81548173ffffffffffffffffffffffffffffffffffffffff021916908373ffffffffffffffffffffffffffffffffffffffff1602179055505050565b600460009054906101000a900473ffffffffffffffffffffffffffffffffffffffff1673ffffffffffffffffffffffffffffffffffffffff166327cacb558484846040518463ffffffff1660e01b815260040161080a93929190611979565b600060405180830381600087803b15801561082457600080fd5b505af1158015610838573d6000803e3d6000fd5b50505050505050565b600360009054906101000a900473ffffffffffffffffffffffffffffffffffffffff1673ffffffffffffffffffffffffffffffffffffffff1663e78daa756108876112fa565b836040518363ffffffff1660e01b81526004016108a59291906119ab565b600060405180830381600087803b1580156108bf57600080fd5b505af11580156108d3573d6000803e3d6000fd5b5050505050565b6108e26112fa565b73ffffffffffffffffffffffffffffffffffffffff16610900610bd8565b73ffffffffffffffffffffffffffffffffffffffff1614610956576040517f08c379a000000000000000000000000000000000000000000000000000000000815260040161094d906118d5565b60405180910390fd5b6109606000611302565b565b600080600260009054906101000a900473ffffffffffffffffffffffffffffffffffffffff1673ffffffffffffffffffffffffffffffffffffffff1663dab6dbce6109ab6112fa565b87876040518463ffffffff1660e01b81526004016109cb939291906119d4565b6020604051808303816000875af11580156109ea573d6000803e3d6000fd5b505050506040513d601f19601f82011682018060405250810190610a0e919061184b565b9050600560009054906101000a900473ffffffffffffffffffffffffffffffffffffffff1673ffffffffffffffffffffffffffffffffffffffff1663186a8131610a566112fa565b836040518363ffffffff1660e01b8152600401610a749291906119ab565b600060405180830381600087803b158015610a8e57600080fd5b505af1158015610aa2573d6000803e3d6000fd5b50505050600360009054906101000a900473ffffffffffffffffffffffffffffffffffffffff1673ffffffffffffffffffffffffffffffffffffffff1663d257d16d8287876040518463ffffffff1660e01b8152600401610b0593929190611979565b600060405180830381600087803b158015610b1f57600080fd5b505af1158015610b33573d6000803e3d6000fd5b50505050600460009054906101000a900473ffffffffffffffffffffffffffffffffffffffff1673ffffffffffffffffffffffffffffffffffffffff1663701776f782856040518363ffffffff1660e01b8152600401610b94929190611a06565b600060405180830381600087803b158015610bae57600080fd5b505af1158015610bc2573d6000803e3d6000fd5b5050505080600681905550809150509392505050565b60008060009054906101000a900473ffffffffffffffffffffffffffffffffffffffff16905090565b60007f104852406e94df2c5112860c28c2d2e43c02e322bc0cf95e2d0159faf296d7fb610c2d816113c6565b6000600260009054906101000a900473ffffffffffffffffffffffffffffffffffffffff1673ffffffffffffffffffffffffffffffffffffffff1663dab6dbce610c756112fa565b88886040518463ffffffff1660e01b8152600401610c95939291906119d4565b6020604051808303816000875af1158015610cb4573d6000803e3d6000fd5b505050506040513d601f19601f82011682018060405250810190610cd8919061184b565b9050600360009054906101000a900473ffffffffffffffffffffffffffffffffffffffff1673ffffffffffffffffffffffffffffffffffffffff1663d257d16d8288886040518463ffffffff1660e01b8152600401610d3993929190611979565b600060405180830381600087803b158015610d5357600080fd5b505af1158015610d67573d6000803e3d6000fd5b50505050600460009054906101000a900473ffffffffffffffffffffffffffffffffffffffff1673ffffffffffffffffffffffffffffffffffffffff1663701776f782866040518363ffffffff1660e01b8152600401610dc8929190611a06565b600060405180830381600087803b158015610de257600080fd5b505af1158015610df6573d6000803e3d6000fd5b50505050600360009054906101000a900473ffffffffffffffffffffffffffffffffffffffff1673ffffffffffffffffffffffffffffffffffffffff1663cc4ef119826040518263ffffffff1660e01b8152600401610e559190611532565b600060405180830381600087803b158015610e6f57600080fd5b505af1158015610e83573d6000803e3d6000fd5b5050505080925050509392505050565b610e9b6112fa565b73ffffffffffffffffffffffffffffffffffffffff16610eb9610bd8565b73ffffffffffffffffffffffffffffffffffffffff1614610f0f576040517f08c379a0000000000000000000000000000000000000000000000000000000008152600401610f06906118d5565b60405180910390fd5b600360009054906101000a900473ffffffffffffffffffffffffffffffffffffffff1673ffffffffffffffffffffffffffffffffffffffff1663ecf24b31826040518263ffffffff1660e01b8152600401610f6a9190611532565b600060405180830381600087803b158015610f8457600080fd5b505af1158015610f98573d6000803e3d6000fd5b5050505050565b610fa76112fa565b73ffffffffffffffffffffffffffffffffffffffff16610fc5610bd8565b73ffffffffffffffffffffffffffffffffffffffff161461101b576040517f08c379a0000000000000000000000000000000000000000000000000000000008152600401611012906118d5565b60405180910390fd5b80600260006101000a81548173ffffffffffffffffffffffffffffffffffffffff021916908373ffffffffffffffffffffffffffffffffffffffff16021790555050565b7f104852406e94df2c5112860c28c2d2e43c02e322bc0cf95e2d0159faf296d7fb81565b61108b6112fa565b73ffffffffffffffffffffffffffffffffffffffff166110a9610bd8565b73ffffffffffffffffffffffffffffffffffffffff16146110ff576040517f08c379a00000000000000000000000000000000000000000000000000000000081526004016110f6906118d5565b60405180910390fd5b80600460006101000a81548173ffffffffffffffffffffffffffffffffffffffff021916908373ffffffffffffffffffffffffffffffffffffffff16021790555050565b61114b6112fa565b73ffffffffffffffffffffffffffffffffffffffff16611169610bd8565b73ffffffffffffffffffffffffffffffffffffffff16146111bf576040517f08c379a00000000000000000000000000000000000000000000000000000000081526004016111b6906118d5565b60405180910390fd5b80600360006101000a81548173ffffffffffffffffffffffffffffffffffffffff021916908373ffffffffffffffffffffffffffffffffffffffff16021790555050565b61120b6112fa565b73ffffffffffffffffffffffffffffffffffffffff16611229610bd8565b73ffffffffffffffffffffffffffffffffffffffff161461127f576040517f08c379a0000000000000000000000000000000000000000000000000000000008152600401611276906118d5565b60405180910390fd5b600073ffffffffffffffffffffffffffffffffffffffff168173ffffffffffffffffffffffffffffffffffffffff16036112ee576040517f08c379a00000000000000000000000000000000000000000000000000000000081526004016112e590611aa1565b60405180910390fd5b6112f781611302565b50565b600033905090565b60008060009054906101000a900473ffffffffffffffffffffffffffffffffffffffff169050816000806101000a81548173ffffffffffffffffffffffffffffffffffffffff021916908373ffffffffffffffffffffffffffffffffffffffff1602179055508173ffffffffffffffffffffffffffffffffffffffff168173ffffffffffffffffffffffffffffffffffffffff167f8be0079c531659141344cd1fd0a4f28419497f9722a3daafe3b4186f6b6457e060405160405180910390a35050565b60006001600083815260200190815260200160002060009054906101000a900473ffffffffffffffffffffffffffffffffffffffff1673ffffffffffffffffffffffffffffffffffffffff166370a0823161141f6112fa565b6040518263ffffffff1660e01b815260040161143b91906117c2565b602060405180830381865afa158015611458573d6000803e3d6000fd5b505050506040513d601f19601f8201168201806040525081019061147c919061184b565b036114b3576040517fbddc845600000000000000000000000000000000000000000000000000000000815260040160405180910390fd5b50565b600080fd5b600080fd5b6000819050919050565b6114d3816114c0565b81146114de57600080fd5b50565b6000813590506114f0816114ca565b92915050565b60006020828403121561150c5761150b6114b6565b5b600061151a848285016114e1565b91505092915050565b61152c816114c0565b82525050565b60006020820190506115476000830184611523565b92915050565b600073ffffffffffffffffffffffffffffffffffffffff82169050919050565b60006115788261154d565b9050919050565b6115888161156d565b811461159357600080fd5b50565b6000813590506115a58161157f565b92915050565b6000602082840312156115c1576115c06114b6565b5b60006115cf84828501611596565b91505092915050565b600080604083850312156115ef576115ee6114b6565b5b60006115fd858286016114e1565b925050602061160e858286016114e1565b9150509250929050565b6000819050919050565b61162b81611618565b811461163657600080fd5b50565b60008135905061164881611622565b92915050565b60008060408385031215611665576116646114b6565b5b600061167385828601611639565b925050602061168485828601611596565b9150509250929050565b600080fd5b600080fd5b600080fd5b60008083601f8401126116b3576116b261168e565b5b8235905067ffffffffffffffff8111156116d0576116cf611693565b5b6020830191508360018202830111156116ec576116eb611698565b5b9250929050565b60008060006040848603121561170c5761170b6114b6565b5b600061171a868287016114e1565b935050602084013567ffffffffffffffff81111561173b5761173a6114bb565b5b6117478682870161169d565b92509250509250925092565b60008060006040848603121561176c5761176b6114b6565b5b600084013567ffffffffffffffff81111561178a576117896114bb565b5b6117968682870161169d565b935093505060206117a9868287016114e1565b9150509250925092565b6117bc8161156d565b82525050565b60006020820190506117d760008301846117b3565b92915050565b6117e681611618565b82525050565b600060208201905061180160008301846117dd565b92915050565b7f4e487b7100000000000000000000000000000000000000000000000000000000600052602160045260246000fd5b600081519050611845816114ca565b92915050565b600060208284031215611861576118606114b6565b5b600061186f84828501611836565b91505092915050565b600082825260208201905092915050565b7f4f776e61626c653a2063616c6c6572206973206e6f7420746865206f776e6572600082015250565b60006118bf602083611878565b91506118ca82611889565b602082019050919050565b600060208201905081810360008301526118ee816118b2565b9050919050565b600060608201905061190a60008301866117b3565b6119176020830185611523565b6119246040830184611523565b949350505050565b82818337600083830152505050565b6000601f19601f8301169050919050565b60006119588385611878565b935061196583858461192c565b61196e8361193b565b840190509392505050565b600060408201905061198e6000830186611523565b81810360208301526119a181848661194c565b9050949350505050565b60006040820190506119c060008301856117b3565b6119cd6020830184611523565b9392505050565b60006040820190506119e960008301866117b3565b81810360208301526119fc81848661194c565b9050949350505050565b6000604082019050611a1b6000830185611523565b611a286020830184611523565b9392505050565b7f4f776e61626c653a206e6577206f776e657220697320746865207a65726f206160008201527f6464726573730000000000000000000000000000000000000000000000000000602082015250565b6000611a8b602683611878565b9150611a9682611a2f565b604082019050919050565b60006020820190508181036000830152611aba81611a7e565b905091905056fea2646970667358221220d1701725631fb2e123325d77da73cb02e4b8b62e4bec0bbeecc4d3e1e28ed44664736f6c634300080d0033",
  "devdoc": {
    "kind": "dev",
    "methods": {
      "createChallenge(string,uint256)": {
        "params": {
          "claimLimit": "The limit for the amount of people that can claim the challenge",
          "uri": "The IPFS hash of the challenge"
        },
        "returns": {
          "_0": "questionId The question id"
        }
      },
      "createQuestion(string,uint256)": {
        "params": {
          "claimLimit": "The limit for the amount of people that can claim the question",
          "uri": "The IPFS hash of the question"
        },
        "returns": {
          "_0": "The question id"
        }
      },
      "owner()": {
        "details": "Returns the address of the current owner."
      },
      "renounceOwnership()": {
        "details": "Leaves the contract without owner. It will not be possible to call `onlyOwner` functions anymore. Can only be called by the current owner. NOTE: Renouncing ownership will leave the contract without an owner, thereby removing any functionality that is only available to the owner."
      },
      "transferOwnership(address)": {
        "details": "Transfers ownership of the contract to a new account (`newOwner`). Can only be called by the current owner."
      },
      "unvoteQuestion(uint256)": {
        "params": {
          "questionId": "The questionId of the question to upvote"
        }
      },
      "upvoteQuestion(uint256,uint256)": {
        "params": {
          "amount": "Metric amount to put behind the vote We can manipulate this very easily -- think of a way to make it secure",
          "questionId": "The questionId of the question to upvote"
        }
      }
    },
    "version": 1
  },
  "userdoc": {
    "kind": "user",
    "methods": {
      "createChallenge(string,uint256)": {
        "notice": "Directly creates a challenge, this is an optional feature for program managers that would like to create challenges directly (skipping the voting stage)."
      },
      "createQuestion(string,uint256)": {
        "notice": "Creates a question"
      },
      "unvoteQuestion(uint256)": {
        "notice": "Unvotes a question"
      },
      "upvoteQuestion(uint256,uint256)": {
        "notice": "Upvotes a question"
      }
    },
    "version": 1
  },
  "storageLayout": {
    "storage": [
      {
        "astId": 7,
        "contract": "src/contracts/Protocol/QuestionAPI.sol:QuestionAPI",
        "label": "_owner",
        "offset": 0,
        "slot": "0",
        "type": "t_address"
      },
      {
        "astId": 3294,
        "contract": "src/contracts/Protocol/QuestionAPI.sol:QuestionAPI",
        "label": "_nfts",
        "offset": 0,
        "slot": "1",
        "type": "t_mapping(t_bytes32,t_address)"
      },
      {
        "astId": 2012,
        "contract": "src/contracts/Protocol/QuestionAPI.sol:QuestionAPI",
        "label": "_question",
        "offset": 0,
        "slot": "2",
        "type": "t_contract(BountyQuestion)1823"
      },
      {
        "astId": 2015,
        "contract": "src/contracts/Protocol/QuestionAPI.sol:QuestionAPI",
        "label": "_questionStateController",
        "offset": 0,
        "slot": "3",
        "type": "t_contract(IQuestionStateController)3279"
      },
      {
        "astId": 2018,
        "contract": "src/contracts/Protocol/QuestionAPI.sol:QuestionAPI",
        "label": "_claimController",
        "offset": 0,
        "slot": "4",
        "type": "t_contract(IClaimController)3230"
      },
      {
        "astId": 2021,
        "contract": "src/contracts/Protocol/QuestionAPI.sol:QuestionAPI",
        "label": "_costController",
        "offset": 0,
        "slot": "5",
        "type": "t_contract(IActionCostController)3208"
      },
      {
        "astId": 2023,
        "contract": "src/contracts/Protocol/QuestionAPI.sol:QuestionAPI",
        "label": "currentQuestionId",
        "offset": 0,
        "slot": "6",
        "type": "t_uint256"
      }
    ],
    "types": {
      "t_address": {
        "encoding": "inplace",
        "label": "address",
        "numberOfBytes": "20"
      },
      "t_bytes32": {
        "encoding": "inplace",
        "label": "bytes32",
        "numberOfBytes": "32"
      },
      "t_contract(BountyQuestion)1823": {
        "encoding": "inplace",
        "label": "contract BountyQuestion",
        "numberOfBytes": "20"
      },
      "t_contract(IActionCostController)3208": {
        "encoding": "inplace",
        "label": "contract IActionCostController",
        "numberOfBytes": "20"
      },
      "t_contract(IClaimController)3230": {
        "encoding": "inplace",
        "label": "contract IClaimController",
        "numberOfBytes": "20"
      },
      "t_contract(IQuestionStateController)3279": {
        "encoding": "inplace",
        "label": "contract IQuestionStateController",
        "numberOfBytes": "20"
      },
      "t_mapping(t_bytes32,t_address)": {
        "encoding": "mapping",
        "key": "t_bytes32",
        "label": "mapping(bytes32 => address)",
        "numberOfBytes": "32",
        "value": "t_address"
      },
      "t_uint256": {
        "encoding": "inplace",
        "label": "uint256",
        "numberOfBytes": "32"
      }
    }
  }
}