{
  "address": "0xc5cdA017795314100Bb1118c38078FF8Dca8aFeb",
  "abi": [
    {
      "inputs": [
        {
          "internalType": "address",
          "name": "metricTokenAddress",
          "type": "address"
        }
      ],
      "stateMutability": "nonpayable",
      "type": "constructor"
    },
    {
      "inputs": [],
      "name": "CannotRenounce",
      "type": "error"
    },
    {
      "inputs": [],
      "name": "CannotStakeNoMetric",
      "type": "error"
    },
    {
      "inputs": [],
      "name": "DuplicateAddress",
      "type": "error"
    },
    {
      "inputs": [],
      "name": "InvalidAddress",
      "type": "error"
    },
    {
      "inputs": [],
      "name": "InvalidShareAmount",
      "type": "error"
    },
    {
      "inputs": [],
      "name": "NoClaimableRewardsToWithdraw",
      "type": "error"
    },
    {
      "inputs": [],
      "name": "NoMetricToWithdraw",
      "type": "error"
    },
    {
      "inputs": [],
      "name": "RewardsAlreadyToggled",
      "type": "error"
    },
    {
      "inputs": [],
      "name": "RewardsAreNotActive",
      "type": "error"
    },
    {
      "inputs": [],
      "name": "RewardsNotActive",
      "type": "error"
    },
    {
      "anonymous": false,
      "inputs": [
        {
          "indexed": true,
          "internalType": "address",
          "name": "harvester",
          "type": "address"
        },
        {
          "components": [
            {
              "internalType": "uint256",
              "name": "shares",
              "type": "uint256"
            },
            {
              "internalType": "uint256",
              "name": "lifetimeEarnings",
              "type": "uint256"
            },
            {
              "internalType": "uint256",
              "name": "claimable",
              "type": "uint256"
            }
          ],
          "indexed": false,
          "internalType": "struct StakingChef.Staker",
          "name": "",
          "type": "tuple"
        },
        {
          "indexed": false,
          "internalType": "uint256",
          "name": "amount",
          "type": "uint256"
        }
      ],
      "name": "Claim",
      "type": "event"
    },
    {
      "anonymous": false,
      "inputs": [
        {
          "indexed": true,
          "internalType": "address",
          "name": "harvester",
          "type": "address"
        },
        {
          "indexed": false,
          "internalType": "uint256",
          "name": "agIndex",
          "type": "uint256"
        },
        {
          "indexed": false,
          "internalType": "uint256",
          "name": "amount",
          "type": "uint256"
        }
      ],
      "name": "Harvest",
      "type": "event"
    },
    {
      "anonymous": false,
      "inputs": [
        {
          "indexed": true,
          "internalType": "address",
          "name": "previousOwner",
          "type": "address"
        },
        {
          "indexed": true,
          "internalType": "address",
          "name": "newOwner",
          "type": "address"
        }
      ],
      "name": "OwnershipTransferred",
      "type": "event"
    },
    {
      "anonymous": false,
      "inputs": [
        {
          "indexed": true,
          "internalType": "address",
          "name": "staker",
          "type": "address"
        },
        {
          "indexed": false,
          "internalType": "uint256",
          "name": "amount",
          "type": "uint256"
        }
      ],
      "name": "Stake",
      "type": "event"
    },
    {
      "anonymous": false,
      "inputs": [
        {
          "indexed": true,
          "internalType": "address",
          "name": "withdrawer",
          "type": "address"
        },
        {
          "components": [
            {
              "internalType": "uint256",
              "name": "shares",
              "type": "uint256"
            },
            {
              "internalType": "uint256",
              "name": "lifetimeEarnings",
              "type": "uint256"
            },
            {
              "internalType": "uint256",
              "name": "claimable",
              "type": "uint256"
            }
          ],
          "indexed": false,
          "internalType": "struct StakingChef.Staker",
          "name": "",
          "type": "tuple"
        },
        {
          "indexed": false,
          "internalType": "uint256",
          "name": "amount",
          "type": "uint256"
        }
      ],
      "name": "UnStake",
      "type": "event"
    },
    {
      "anonymous": false,
      "inputs": [
        {
          "indexed": true,
          "internalType": "address",
          "name": "withdrawer",
          "type": "address"
        },
        {
          "indexed": false,
          "internalType": "uint256",
          "name": "agIndex",
          "type": "uint256"
        },
        {
          "indexed": false,
          "internalType": "uint256",
          "name": "amount",
          "type": "uint256"
        }
      ],
      "name": "Withdraw",
      "type": "event"
    },
    {
      "inputs": [],
      "name": "ACC_METRIC_PRECISION",
      "outputs": [
        {
          "internalType": "uint256",
          "name": "",
          "type": "uint256"
        }
      ],
      "stateMutability": "view",
      "type": "function"
    },
    {
      "inputs": [
        {
          "internalType": "uint256",
          "name": "accumulatedWithPrecision",
          "type": "uint256"
        }
      ],
      "name": "accumulatedMetricDividedByShares",
      "outputs": [
        {
          "internalType": "uint256",
          "name": "",
          "type": "uint256"
        }
      ],
      "stateMutability": "view",
      "type": "function"
    },
    {
      "inputs": [
        {
          "internalType": "address",
          "name": "",
          "type": "address"
        }
      ],
      "name": "addressExistence",
      "outputs": [
        {
          "internalType": "bool",
          "name": "",
          "type": "bool"
        }
      ],
      "stateMutability": "view",
      "type": "function"
    },
    {
      "inputs": [],
      "name": "areRewardsActive",
      "outputs": [
        {
          "internalType": "bool",
          "name": "",
          "type": "bool"
        }
      ],
      "stateMutability": "view",
      "type": "function"
    },
    {
      "inputs": [],
      "name": "claim",
      "outputs": [],
      "stateMutability": "nonpayable",
      "type": "function"
    },
    {
      "inputs": [],
      "name": "getLastRewardBlock",
      "outputs": [
        {
          "internalType": "uint256",
          "name": "",
          "type": "uint256"
        }
      ],
      "stateMutability": "view",
      "type": "function"
    },
    {
      "inputs": [],
      "name": "getLifeTimeShareValueEstimate",
      "outputs": [
        {
          "internalType": "uint256",
          "name": "",
          "type": "uint256"
        }
      ],
      "stateMutability": "view",
      "type": "function"
    },
    {
      "inputs": [],
      "name": "getMetricPerBlock",
      "outputs": [
        {
          "internalType": "uint256",
          "name": "",
          "type": "uint256"
        }
      ],
      "stateMutability": "view",
      "type": "function"
    },
    {
      "inputs": [],
      "name": "getMetricToken",
      "outputs": [
        {
          "internalType": "contract MetricToken",
          "name": "",
          "type": "address"
        }
      ],
      "stateMutability": "view",
      "type": "function"
    },
    {
      "inputs": [],
      "name": "getStake",
      "outputs": [
        {
          "components": [
            {
              "internalType": "uint256",
              "name": "shares",
              "type": "uint256"
            },
            {
              "internalType": "uint256",
              "name": "lifetimeEarnings",
              "type": "uint256"
            },
            {
              "internalType": "uint256",
              "name": "claimable",
              "type": "uint256"
            }
          ],
          "internalType": "struct StakingChef.Staker",
          "name": "",
          "type": "tuple"
        }
      ],
      "stateMutability": "view",
      "type": "function"
    },
    {
      "inputs": [],
      "name": "getTotalAllocationShares",
      "outputs": [
        {
          "internalType": "uint256",
          "name": "",
          "type": "uint256"
        }
      ],
      "stateMutability": "view",
      "type": "function"
    },
    {
      "inputs": [],
      "name": "owner",
      "outputs": [
        {
          "internalType": "address",
          "name": "",
          "type": "address"
        }
      ],
      "stateMutability": "view",
      "type": "function"
    },
    {
      "inputs": [],
      "name": "renounceOwnership",
      "outputs": [],
      "stateMutability": "view",
      "type": "function"
    },
    {
      "inputs": [],
      "name": "setLifetimeShareValue",
      "outputs": [],
      "stateMutability": "nonpayable",
      "type": "function"
    },
    {
      "inputs": [
        {
          "internalType": "uint256",
          "name": "metricAmount",
          "type": "uint256"
        }
      ],
      "name": "setMetricPerBlock",
      "outputs": [],
      "stateMutability": "nonpayable",
      "type": "function"
    },
    {
      "inputs": [
        {
          "internalType": "address",
          "name": "metricTokenAddress",
          "type": "address"
        }
      ],
      "name": "setMetricToken",
      "outputs": [],
      "stateMutability": "nonpayable",
      "type": "function"
    },
    {
      "inputs": [
        {
          "internalType": "uint256",
          "name": "metricAmount",
          "type": "uint256"
        }
      ],
      "name": "stakeMetric",
      "outputs": [],
      "stateMutability": "nonpayable",
      "type": "function"
    },
    {
      "inputs": [
        {
          "internalType": "address",
          "name": "",
          "type": "address"
        }
      ],
      "name": "staker",
      "outputs": [
        {
          "internalType": "uint256",
          "name": "shares",
          "type": "uint256"
        },
        {
          "internalType": "uint256",
          "name": "lifetimeEarnings",
          "type": "uint256"
        },
        {
          "internalType": "uint256",
          "name": "claimable",
          "type": "uint256"
        }
      ],
      "stateMutability": "view",
      "type": "function"
    },
    {
      "inputs": [
        {
          "internalType": "bool",
          "name": "isOn",
          "type": "bool"
        }
      ],
      "name": "toggleRewards",
      "outputs": [],
      "stateMutability": "nonpayable",
      "type": "function"
    },
    {
      "inputs": [
        {
          "internalType": "address",
          "name": "newOwner",
          "type": "address"
        }
      ],
      "name": "transferOwnership",
      "outputs": [],
      "stateMutability": "nonpayable",
      "type": "function"
    },
    {
      "inputs": [],
      "name": "unStakeMetric",
      "outputs": [],
      "stateMutability": "nonpayable",
      "type": "function"
    },
    {
      "inputs": [],
      "name": "updateAccumulatedStakingRewards",
      "outputs": [],
      "stateMutability": "nonpayable",
      "type": "function"
    },
    {
      "inputs": [],
      "name": "viewPendingClaims",
      "outputs": [
        {
          "internalType": "uint256",
          "name": "",
          "type": "uint256"
        }
      ],
      "stateMutability": "view",
      "type": "function"
    },
    {
      "inputs": [],
      "name": "viewPendingHarvest",
      "outputs": [
        {
          "internalType": "uint256",
          "name": "",
          "type": "uint256"
        }
      ],
      "stateMutability": "view",
      "type": "function"
    }
  ],
  "transactionHash": "0x2b4c1199bfb3dcc85048d80980f50546d6204ea3a0d71633d2ab73aa1519f34b",
  "args": [
    "0xB5Af4ae32913b340729d797F124899d027Ef6b1C"
  ],
  "numDeployments": 1,
  "solcInputHash": "440a2d82624b7e0f0ab0cd98f743b3c1",
  "bytecode": "0x60806040526000600260006101000a81548160ff0219169083151502179055503480156200002c57600080fd5b5060405162002613380380620026138339818101604052810190620000529190620003e3565b62000072620000666200009c60201b60201c565b620000a460201b60201c565b62000083816200016860201b60201c565b620000956004620002a260201b60201c565b5062000532565b600033905090565b60008060009054906101000a900473ffffffffffffffffffffffffffffffffffffffff169050816000806101000a81548173ffffffffffffffffffffffffffffffffffffffff021916908373ffffffffffffffffffffffffffffffffffffffff1602179055508173ffffffffffffffffffffffffffffffffffffffff168173ffffffffffffffffffffffffffffffffffffffff167f8be0079c531659141344cd1fd0a4f28419497f9722a3daafe3b4186f6b6457e060405160405180910390a35050565b620001786200009c60201b60201c565b73ffffffffffffffffffffffffffffffffffffffff166200019e6200035060201b60201c565b73ffffffffffffffffffffffffffffffffffffffff1614620001f7576040517f08c379a0000000000000000000000000000000000000000000000000000000008152600401620001ee9062000476565b60405180910390fd5b600073ffffffffffffffffffffffffffffffffffffffff168173ffffffffffffffffffffffffffffffffffffffff16036200025e576040517fe6c4247b00000000000000000000000000000000000000000000000000000000815260040160405180910390fd5b80600660006101000a81548173ffffffffffffffffffffffffffffffffffffffff021916908373ffffffffffffffffffffffffffffffffffffffff16021790555050565b620002b26200009c60201b60201c565b73ffffffffffffffffffffffffffffffffffffffff16620002d86200035060201b60201c565b73ffffffffffffffffffffffffffffffffffffffff161462000331576040517f08c379a0000000000000000000000000000000000000000000000000000000008152600401620003289062000476565b60405180910390fd5b670de0b6b3a764000081620003479190620004d1565b60018190555050565b60008060009054906101000a900473ffffffffffffffffffffffffffffffffffffffff16905090565b600080fd5b600073ffffffffffffffffffffffffffffffffffffffff82169050919050565b6000620003ab826200037e565b9050919050565b620003bd816200039e565b8114620003c957600080fd5b50565b600081519050620003dd81620003b2565b92915050565b600060208284031215620003fc57620003fb62000379565b5b60006200040c84828501620003cc565b91505092915050565b600082825260208201905092915050565b7f4f776e61626c653a2063616c6c6572206973206e6f7420746865206f776e6572600082015250565b60006200045e60208362000415565b91506200046b8262000426565b602082019050919050565b6000602082019050818103600083015262000491816200044f565b9050919050565b6000819050919050565b7f4e487b7100000000000000000000000000000000000000000000000000000000600052601160045260246000fd5b6000620004de8262000498565b9150620004eb8362000498565b9250817fffffffffffffffffffffffffffffffffffffffffffffffffffffffffffffffff0483118215151615620005275762000526620004a2565b5b828202905092915050565b6120d180620005426000396000f3fe608060405234801561001057600080fd5b50600436106101585760003560e01c80638c19ec8b116100c3578063c5d836d91161007c578063c5d836d914610359578063d944cb7a14610377578063e2eb5c4714610395578063f2fde38b1461039f578063f33c9baa146103bb578063fc0e3d90146103d957610158565b80638c19ec8b146102ab5780638da5cb5b146102c7578063945c5287146102e5578063a8e2a38b14610301578063bf62bee61461031f578063c284b8bc1461033d57610158565b80634e71d92d116101155780634e71d92d1461021f5780635e175713146102295780635f9b1bb5146102475780636ac49a8914610251578063715018a61461026f57806382e4eda41461027957610158565b80630419ba051461015d5780631cd8f0fa1461017b5780631e718d271461019757806322abbddf146101c757806349ba013b146101f75780634be6811714610215575b600080fd5b6101656103f7565b6040516101729190611746565b60405180910390f35b61019560048036038101906101909190611792565b61042b565b005b6101b160048036038101906101ac9190611792565b6104c4565b6040516101be9190611746565b60405180910390f35b6101e160048036038101906101dc919061181d565b610509565b6040516101ee9190611865565b60405180910390f35b6101ff610529565b60405161020c9190611746565b60405180910390f35b61021d61057f565b005b6102276105d7565b005b6102316106f1565b60405161023e9190611746565b60405180910390f35b61024f6106fb565b005b61025961076c565b6040516102669190611746565b60405180910390f35b610277610775565b005b610293600480360381019061028e919061181d565b610823565b6040516102a293929190611880565b60405180910390f35b6102c560048036038101906102c091906118e3565b61084d565b005b6102cf61094e565b6040516102dc919061191f565b60405180910390f35b6102ff60048036038101906102fa919061181d565b610977565b005b610309610a9d565b6040516103169190611999565b60405180910390f35b610327610ac7565b6040516103349190611746565b60405180910390f35b61035760048036038101906103529190611792565b610ad1565b005b610361610cc0565b60405161036e9190611746565b60405180910390f35b61037f610cca565b60405161038c9190611746565b60405180910390f35b61039d610d51565b005b6103b960048036038101906103b4919061181d565b610fa0565b005b6103c3611097565b6040516103d09190611865565b60405180910390f35b6103e16110ae565b6040516103ee9190611a05565b60405180910390f35b600080610402611130565b9050600061040e611177565b9050610419826104c4565b816104249190611a4f565b9250505090565b610433611181565b73ffffffffffffffffffffffffffffffffffffffff1661045161094e565b73ffffffffffffffffffffffffffffffffffffffff16146104a7576040517f08c379a000000000000000000000000000000000000000000000000000000000815260040161049e90611b02565b60405180910390fd5b670de0b6b3a7640000816104bb9190611b22565b60018190555050565b6000806104cf6106f1565b036104dd5760009050610504565b600082036104ee5760009050610504565b6104f66106f1565b826105019190611bab565b90505b919050565b60076020528060005260406000206000915054906101000a900460ff1681565b60008060086000610538611181565b73ffffffffffffffffffffffffffffffffffffffff1673ffffffffffffffffffffffffffffffffffffffff1681526020019081526020016000209050806002015491505090565b610587611097565b6105bd576040517fa550df7300000000000000000000000000000000000000000000000000000000815260040160405180910390fd5b6105c5610ac7565b4311156105d5576105d46106fb565b5b565b60006105e1610cca565b03610618576040517fd1d47f3c00000000000000000000000000000000000000000000000000000000815260040160405180910390fd5b600060086000610626611181565b73ffffffffffffffffffffffffffffffffffffffff1673ffffffffffffffffffffffffffffffffffffffff168152602001908152602001600020905061066a611189565b60008160020154905060008260020181905550610696610688610a9d565b610690611181565b83611249565b61069e611181565b73ffffffffffffffffffffffffffffffffffffffff167ff81a6933f785b7bfc6ba5e83b98ae1eed8fc79e789cd7ce550d884d6fc7f213c83836040516106e5929190611c72565b60405180910390a25050565b6000600554905090565b610703611097565b610739576040517faa3aac7f00000000000000000000000000000000000000000000000000000000815260040160405180910390fd5b6000610743611130565b905061074e816104c4565b60045461075b9190611a4f565b6004819055506107696112cf565b50565b64e8d4a5100081565b61077d611181565b73ffffffffffffffffffffffffffffffffffffffff1661079b61094e565b73ffffffffffffffffffffffffffffffffffffffff16146107f1576040517f08c379a00000000000000000000000000000000000000000000000000000000081526004016107e890611b02565b60405180910390fd5b6040517fc5fea89800000000000000000000000000000000000000000000000000000000815260040160405180910390fd5b60086020528060005260406000206000915090508060000154908060010154908060020154905083565b610855611181565b73ffffffffffffffffffffffffffffffffffffffff1661087361094e565b73ffffffffffffffffffffffffffffffffffffffff16146108c9576040517f08c379a00000000000000000000000000000000000000000000000000000000081526004016108c090611b02565b60405180910390fd5b600260009054906101000a900460ff16151581151503610915576040517f1b82e04500000000000000000000000000000000000000000000000000000000815260040160405180910390fd5b8015610928576109236112cf565b610931565b6109306106fb565b5b80600260006101000a81548160ff02191690831515021790555050565b60008060009054906101000a900473ffffffffffffffffffffffffffffffffffffffff16905090565b61097f611181565b73ffffffffffffffffffffffffffffffffffffffff1661099d61094e565b73ffffffffffffffffffffffffffffffffffffffff16146109f3576040517f08c379a00000000000000000000000000000000000000000000000000000000081526004016109ea90611b02565b60405180910390fd5b600073ffffffffffffffffffffffffffffffffffffffff168173ffffffffffffffffffffffffffffffffffffffff1603610a59576040517fe6c4247b00000000000000000000000000000000000000000000000000000000815260040160405180910390fd5b80600660006101000a81548173ffffffffffffffffffffffffffffffffffffffff021916908373ffffffffffffffffffffffffffffffffffffffff16021790555050565b6000600660009054906101000a900473ffffffffffffffffffffffffffffffffffffffff16905090565b6000600354905090565b60008111610b0b576040517fc13151dd00000000000000000000000000000000000000000000000000000000815260040160405180910390fd5b600060086000610b19611181565b73ffffffffffffffffffffffffffffffffffffffff1673ffffffffffffffffffffffffffffffffffffffff1681526020019081526020016000209050610b5d611097565b8015610b7057506000610b6e6106f1565b115b15610b7e57610b7d61057f565b5b6040518060600160405280838360000154610b999190611a4f565b815260200164e8d4a51000610bac611177565b85610bb79190611b22565b610bc19190611bab565b8360010154610bd09190611a4f565b8152602001826002015481525060086000610be9611181565b73ffffffffffffffffffffffffffffffffffffffff1673ffffffffffffffffffffffffffffffffffffffff168152602001908152602001600020600082015181600001556020820151816001015560408201518160020155905050610c4d826112d8565b610c55611181565b73ffffffffffffffffffffffffffffffffffffffff167febedb8b3c678666e7f36970bc8f57abf6d8fa2e828c0da91ea5b75bf68ed101a83604051610c9a9190611746565b60405180910390a2610cbc610cad610a9d565b610cb5611181565b30856112ef565b5050565b6000600154905090565b60008060086000610cd9611181565b73ffffffffffffffffffffffffffffffffffffffff1673ffffffffffffffffffffffffffffffffffffffff1681526020019081526020016000209050806001015464e8d4a51000610d28611177565b8360000154610d379190611b22565b610d419190611bab565b610d4b9190611c9b565b91505090565b600060086000610d5f611181565b73ffffffffffffffffffffffffffffffffffffffff1673ffffffffffffffffffffffffffffffffffffffff16815260200190815260200160002090506000816000015403610dd9576040517f4b0aa74e00000000000000000000000000000000000000000000000000000000815260040160405180910390fd5b610de1611097565b15610def57610dee61057f565b5b610df7611189565b600060086000610e05611181565b73ffffffffffffffffffffffffffffffffffffffff1673ffffffffffffffffffffffffffffffffffffffff168152602001908152602001600020600201549050600082600001549050610ea060086000610e5d611181565b73ffffffffffffffffffffffffffffffffffffffff1673ffffffffffffffffffffffffffffffffffffffff16815260200190815260200160002060000154611378565b6000836000018190555060008282610eb89190611a4f565b1115610f3a57610ee2610ec9610a9d565b610ed1611181565b8484610edd9190611a4f565b611249565b610eea611181565b73ffffffffffffffffffffffffffffffffffffffff167ff35c1aa3d74cd6f4eb244ea6dbb896ff2bcf5e45427ae2bdc1395b85ad2983868483604051610f31929190611c72565b60405180910390a25b6000821115610f9b57610f4b611181565b73ffffffffffffffffffffffffffffffffffffffff167ff81a6933f785b7bfc6ba5e83b98ae1eed8fc79e789cd7ce550d884d6fc7f213c8483604051610f92929190611c72565b60405180910390a25b505050565b610fa8611181565b73ffffffffffffffffffffffffffffffffffffffff16610fc661094e565b73ffffffffffffffffffffffffffffffffffffffff161461101c576040517f08c379a000000000000000000000000000000000000000000000000000000000815260040161101390611b02565b60405180910390fd5b600073ffffffffffffffffffffffffffffffffffffffff168173ffffffffffffffffffffffffffffffffffffffff160361108b576040517f08c379a000000000000000000000000000000000000000000000000000000000815260040161108290611d41565b60405180910390fd5b611094816113cb565b50565b6000600260009054906101000a900460ff16905090565b6110b661170c565b6000600860006110c4611181565b73ffffffffffffffffffffffffffffffffffffffff1673ffffffffffffffffffffffffffffffffffffffff168152602001908152602001600020905080604051806060016040529081600082015481526020016001820154815260200160028201548152505091505090565b60008061113b610ac7565b436111469190611c9b565b90506000611152610cc0565b8261115d9190611b22565b905064e8d4a51000816111709190611b22565b9250505090565b6000600454905090565b600033905090565b600060086000611197611181565b73ffffffffffffffffffffffffffffffffffffffff1673ffffffffffffffffffffffffffffffffffffffff16815260200190815260200160002090506111db61057f565b6000816001015464e8d4a510006111f0611177565b84600001546111ff9190611b22565b6112099190611bab565b6112139190611c9b565b90508082600101546112259190611a4f565b826001018190555080826002015461123d9190611a4f565b82600201819055505050565b6112ca8363a9059cbb60e01b8484604051602401611268929190611d61565b604051602081830303815290604052907bffffffffffffffffffffffffffffffffffffffffffffffffffffffff19166020820180517bffffffffffffffffffffffffffffffffffffffffffffffffffffffff838183161783525050505061148f565b505050565b43600381905550565b806005546112e69190611a4f565b60058190555050565b611372846323b872dd60e01b85858560405160240161131093929190611d8a565b604051602081830303815290604052907bffffffffffffffffffffffffffffffffffffffffffffffffffffffff19166020820180517bffffffffffffffffffffffffffffffffffffffffffffffffffffffff838183161783525050505061148f565b50505050565b6005548111156113b4576040517f8c88122d00000000000000000000000000000000000000000000000000000000815260040160405180910390fd5b806005546113c29190611c9b565b60058190555050565b60008060009054906101000a900473ffffffffffffffffffffffffffffffffffffffff169050816000806101000a81548173ffffffffffffffffffffffffffffffffffffffff021916908373ffffffffffffffffffffffffffffffffffffffff1602179055508173ffffffffffffffffffffffffffffffffffffffff168173ffffffffffffffffffffffffffffffffffffffff167f8be0079c531659141344cd1fd0a4f28419497f9722a3daafe3b4186f6b6457e060405160405180910390a35050565b60006114f1826040518060400160405280602081526020017f5361666545524332303a206c6f772d6c6576656c2063616c6c206661696c65648152508573ffffffffffffffffffffffffffffffffffffffff166115569092919063ffffffff16565b905060008151111561155157808060200190518101906115119190611dd6565b611550576040517f08c379a000000000000000000000000000000000000000000000000000000000815260040161154790611e75565b60405180910390fd5b5b505050565b6060611565848460008561156e565b90509392505050565b6060824710156115b3576040517f08c379a00000000000000000000000000000000000000000000000000000000081526004016115aa90611f07565b60405180910390fd5b6115bc85611682565b6115fb576040517f08c379a00000000000000000000000000000000000000000000000000000000081526004016115f290611f73565b60405180910390fd5b6000808673ffffffffffffffffffffffffffffffffffffffff168587604051611624919061200d565b60006040518083038185875af1925050503d8060008114611661576040519150601f19603f3d011682016040523d82523d6000602084013e611666565b606091505b50915091506116768282866116a5565b92505050949350505050565b6000808273ffffffffffffffffffffffffffffffffffffffff163b119050919050565b606083156116b557829050611705565b6000835111156116c85782518084602001fd5b816040517f08c379a00000000000000000000000000000000000000000000000000000000081526004016116fc9190612079565b60405180910390fd5b9392505050565b60405180606001604052806000815260200160008152602001600081525090565b6000819050919050565b6117408161172d565b82525050565b600060208201905061175b6000830184611737565b92915050565b600080fd5b61176f8161172d565b811461177a57600080fd5b50565b60008135905061178c81611766565b92915050565b6000602082840312156117a8576117a7611761565b5b60006117b68482850161177d565b91505092915050565b600073ffffffffffffffffffffffffffffffffffffffff82169050919050565b60006117ea826117bf565b9050919050565b6117fa816117df565b811461180557600080fd5b50565b600081359050611817816117f1565b92915050565b60006020828403121561183357611832611761565b5b600061184184828501611808565b91505092915050565b60008115159050919050565b61185f8161184a565b82525050565b600060208201905061187a6000830184611856565b92915050565b60006060820190506118956000830186611737565b6118a26020830185611737565b6118af6040830184611737565b949350505050565b6118c08161184a565b81146118cb57600080fd5b50565b6000813590506118dd816118b7565b92915050565b6000602082840312156118f9576118f8611761565b5b6000611907848285016118ce565b91505092915050565b611919816117df565b82525050565b60006020820190506119346000830184611910565b92915050565b6000819050919050565b600061195f61195a611955846117bf565b61193a565b6117bf565b9050919050565b600061197182611944565b9050919050565b600061198382611966565b9050919050565b61199381611978565b82525050565b60006020820190506119ae600083018461198a565b92915050565b6119bd8161172d565b82525050565b6060820160008201516119d960008501826119b4565b5060208201516119ec60208501826119b4565b5060408201516119ff60408501826119b4565b50505050565b6000606082019050611a1a60008301846119c3565b92915050565b7f4e487b7100000000000000000000000000000000000000000000000000000000600052601160045260246000fd5b6000611a5a8261172d565b9150611a658361172d565b9250827fffffffffffffffffffffffffffffffffffffffffffffffffffffffffffffffff03821115611a9a57611a99611a20565b5b828201905092915050565b600082825260208201905092915050565b7f4f776e61626c653a2063616c6c6572206973206e6f7420746865206f776e6572600082015250565b6000611aec602083611aa5565b9150611af782611ab6565b602082019050919050565b60006020820190508181036000830152611b1b81611adf565b9050919050565b6000611b2d8261172d565b9150611b388361172d565b9250817fffffffffffffffffffffffffffffffffffffffffffffffffffffffffffffffff0483118215151615611b7157611b70611a20565b5b828202905092915050565b7f4e487b7100000000000000000000000000000000000000000000000000000000600052601260045260246000fd5b6000611bb68261172d565b9150611bc18361172d565b925082611bd157611bd0611b7c565b5b828204905092915050565b60008160001c9050919050565b6000819050919050565b6000611c06611c0183611bdc565b611be9565b9050919050565b606082016000808301549050611c2281611bf3565b611c2f60008601826119b4565b5060018301549050611c4081611bf3565b611c4d60208601826119b4565b5060028301549050611c5e81611bf3565b611c6b60408601826119b4565b5050505050565b6000608082019050611c876000830185611c0d565b611c946060830184611737565b9392505050565b6000611ca68261172d565b9150611cb18361172d565b925082821015611cc457611cc3611a20565b5b828203905092915050565b7f4f776e61626c653a206e6577206f776e657220697320746865207a65726f206160008201527f6464726573730000000000000000000000000000000000000000000000000000602082015250565b6000611d2b602683611aa5565b9150611d3682611ccf565b604082019050919050565b60006020820190508181036000830152611d5a81611d1e565b9050919050565b6000604082019050611d766000830185611910565b611d836020830184611737565b9392505050565b6000606082019050611d9f6000830186611910565b611dac6020830185611910565b611db96040830184611737565b949350505050565b600081519050611dd0816118b7565b92915050565b600060208284031215611dec57611deb611761565b5b6000611dfa84828501611dc1565b91505092915050565b7f5361666545524332303a204552433230206f7065726174696f6e20646964206e60008201527f6f74207375636365656400000000000000000000000000000000000000000000602082015250565b6000611e5f602a83611aa5565b9150611e6a82611e03565b604082019050919050565b60006020820190508181036000830152611e8e81611e52565b9050919050565b7f416464726573733a20696e73756666696369656e742062616c616e636520666f60008201527f722063616c6c0000000000000000000000000000000000000000000000000000602082015250565b6000611ef1602683611aa5565b9150611efc82611e95565b604082019050919050565b60006020820190508181036000830152611f2081611ee4565b9050919050565b7f416464726573733a2063616c6c20746f206e6f6e2d636f6e7472616374000000600082015250565b6000611f5d601d83611aa5565b9150611f6882611f27565b602082019050919050565b60006020820190508181036000830152611f8c81611f50565b9050919050565b600081519050919050565b600081905092915050565b60005b83811015611fc7578082015181840152602081019050611fac565b83811115611fd6576000848401525b50505050565b6000611fe782611f93565b611ff18185611f9e565b9350612001818560208601611fa9565b80840191505092915050565b60006120198284611fdc565b915081905092915050565b600081519050919050565b6000601f19601f8301169050919050565b600061204b82612024565b6120558185611aa5565b9350612065818560208601611fa9565b61206e8161202f565b840191505092915050565b600060208201905081810360008301526120938184612040565b90509291505056fea26469706673582212204206ef6df902cc79b50dc1ecc93a9cfee34acaf89affc472b7ac1b4b42b99e9c64736f6c634300080d0033",
  "devdoc": {
    "kind": "dev",
    "methods": {
      "owner()": {
        "details": "Returns the address of the current owner."
      },
      "renounceOwnership()": {
        "details": "Leaves the contract without owner. It will not be possible to call `onlyOwner` functions anymore. Can only be called by the current owner. NOTE: Renouncing ownership will leave the contract without an owner, thereby removing any functionality that is only available to the owner."
      },
      "transferOwnership(address)": {
        "details": "Transfers ownership of the contract to a new account (`newOwner`). Can only be called by the current owner."
      }
    },
    "version": 1
  },
  "userdoc": {
    "kind": "user",
    "methods": {},
    "version": 1
  },
  "storageLayout": {
    "storage": [
      {
        "astId": 7,
        "contract": "src/contracts/StakingChef.sol:StakingChef",
        "label": "_owner",
        "offset": 0,
        "slot": "0",
        "type": "t_address"
      },
      {
        "astId": 2816,
        "contract": "src/contracts/StakingChef.sol:StakingChef",
        "label": "_metricPerBlock",
        "offset": 0,
        "slot": "1",
        "type": "t_uint256"
      },
      {
        "astId": 2822,
        "contract": "src/contracts/StakingChef.sol:StakingChef",
        "label": "_rewardsActive",
        "offset": 0,
        "slot": "2",
        "type": "t_bool"
      },
      {
        "astId": 2824,
        "contract": "src/contracts/StakingChef.sol:StakingChef",
        "label": "_lastRewardBlock",
        "offset": 0,
        "slot": "3",
        "type": "t_uint256"
      },
      {
        "astId": 2826,
        "contract": "src/contracts/StakingChef.sol:StakingChef",
        "label": "_lifetimeShareValue",
        "offset": 0,
        "slot": "4",
        "type": "t_uint256"
      },
      {
        "astId": 2828,
        "contract": "src/contracts/StakingChef.sol:StakingChef",
        "label": "_totalAllocShares",
        "offset": 0,
        "slot": "5",
        "type": "t_uint256"
      },
      {
        "astId": 2831,
        "contract": "src/contracts/StakingChef.sol:StakingChef",
        "label": "metric",
        "offset": 0,
        "slot": "6",
        "type": "t_contract(MetricToken)3223"
      },
      {
        "astId": 3111,
        "contract": "src/contracts/StakingChef.sol:StakingChef",
        "label": "addressExistence",
        "offset": 0,
        "slot": "7",
        "type": "t_mapping(t_address,t_bool)"
      },
      {
        "astId": 5135,
        "contract": "src/contracts/StakingChef.sol:StakingChef",
        "label": "staker",
        "offset": 0,
        "slot": "8",
        "type": "t_mapping(t_address,t_struct(Staker)5520_storage)"
      }
    ],
    "types": {
      "t_address": {
        "encoding": "inplace",
        "label": "address",
        "numberOfBytes": "20"
      },
      "t_bool": {
        "encoding": "inplace",
        "label": "bool",
        "numberOfBytes": "1"
      },
      "t_contract(MetricToken)3223": {
        "encoding": "inplace",
        "label": "contract MetricToken",
        "numberOfBytes": "20"
      },
      "t_mapping(t_address,t_bool)": {
        "encoding": "mapping",
        "key": "t_address",
        "label": "mapping(address => bool)",
        "numberOfBytes": "32",
        "value": "t_bool"
      },
      "t_mapping(t_address,t_struct(Staker)5520_storage)": {
        "encoding": "mapping",
        "key": "t_address",
        "label": "mapping(address => struct StakingChef.Staker)",
        "numberOfBytes": "32",
        "value": "t_struct(Staker)5520_storage"
      },
      "t_struct(Staker)5520_storage": {
        "encoding": "inplace",
        "label": "struct StakingChef.Staker",
        "members": [
          {
            "astId": 5515,
            "contract": "src/contracts/StakingChef.sol:StakingChef",
            "label": "shares",
            "offset": 0,
            "slot": "0",
            "type": "t_uint256"
          },
          {
            "astId": 5517,
            "contract": "src/contracts/StakingChef.sol:StakingChef",
            "label": "lifetimeEarnings",
            "offset": 0,
            "slot": "1",
            "type": "t_uint256"
          },
          {
            "astId": 5519,
            "contract": "src/contracts/StakingChef.sol:StakingChef",
            "label": "claimable",
            "offset": 0,
            "slot": "2",
            "type": "t_uint256"
          }
        ],
        "numberOfBytes": "96"
      },
      "t_uint256": {
        "encoding": "inplace",
        "label": "uint256",
        "numberOfBytes": "32"
      }
    }
  }
}