{
  "address": "0xBBBC7a66F884513ab88560eB4C1F0734AAA0f05b",
  "abi": [
    {
      "inputs": [],
      "stateMutability": "nonpayable",
      "type": "constructor"
    },
    {
      "inputs": [],
      "name": "NotTheApi",
      "type": "error"
    },
    {
      "anonymous": false,
      "inputs": [
        {
          "indexed": true,
          "internalType": "address",
          "name": "previousOwner",
          "type": "address"
        },
        {
          "indexed": true,
          "internalType": "address",
          "name": "newOwner",
          "type": "address"
        }
      ],
      "name": "OwnershipTransferred",
      "type": "event"
    },
    {
      "inputs": [
        {
          "internalType": "address",
          "name": "",
          "type": "address"
        },
        {
          "internalType": "uint256",
          "name": "",
          "type": "uint256"
        }
      ],
      "name": "authors",
      "outputs": [
        {
          "internalType": "uint256",
          "name": "",
          "type": "uint256"
        }
      ],
      "stateMutability": "view",
      "type": "function"
    },
    {
      "inputs": [
        {
          "internalType": "address",
          "name": "user",
          "type": "address"
        }
      ],
      "name": "getAuthor",
      "outputs": [
        {
          "components": [
            {
              "internalType": "address",
              "name": "author",
              "type": "address"
            },
            {
              "internalType": "uint256",
              "name": "tokenId",
              "type": "uint256"
            },
            {
              "internalType": "string",
              "name": "url",
              "type": "string"
            }
          ],
          "internalType": "struct BountyQuestion.QuestionData[]",
          "name": "",
          "type": "tuple[]"
        }
      ],
      "stateMutability": "view",
      "type": "function"
    },
    {
      "inputs": [
        {
          "internalType": "uint256",
          "name": "questionId",
          "type": "uint256"
        }
      ],
      "name": "getAuthorOfQuestion",
      "outputs": [
        {
          "internalType": "address",
          "name": "",
          "type": "address"
        }
      ],
      "stateMutability": "view",
      "type": "function"
    },
    {
      "inputs": [],
      "name": "getMostRecentQuestion",
      "outputs": [
        {
          "internalType": "uint256",
          "name": "",
          "type": "uint256"
        }
      ],
      "stateMutability": "view",
      "type": "function"
    },
    {
      "inputs": [
        {
          "internalType": "address",
          "name": "author",
          "type": "address"
        },
        {
          "internalType": "string",
          "name": "uri",
          "type": "string"
        }
      ],
      "name": "mintQuestion",
      "outputs": [
        {
          "internalType": "uint256",
          "name": "",
          "type": "uint256"
        }
      ],
      "stateMutability": "nonpayable",
      "type": "function"
    },
    {
      "inputs": [],
      "name": "owner",
      "outputs": [
        {
          "internalType": "address",
          "name": "",
          "type": "address"
        }
      ],
      "stateMutability": "view",
      "type": "function"
    },
    {
      "inputs": [],
      "name": "questionApi",
      "outputs": [
        {
          "internalType": "address",
          "name": "",
          "type": "address"
        }
      ],
      "stateMutability": "view",
      "type": "function"
    },
    {
      "inputs": [
        {
          "internalType": "uint256",
          "name": "",
          "type": "uint256"
        }
      ],
      "name": "questions",
      "outputs": [
        {
          "internalType": "address",
          "name": "author",
          "type": "address"
        },
        {
          "internalType": "uint256",
          "name": "tokenId",
          "type": "uint256"
        },
        {
          "internalType": "string",
          "name": "url",
          "type": "string"
        }
      ],
      "stateMutability": "view",
      "type": "function"
    },
    {
      "inputs": [],
      "name": "renounceOwnership",
      "outputs": [],
      "stateMutability": "nonpayable",
      "type": "function"
    },
    {
      "inputs": [
        {
          "internalType": "address",
          "name": "_newApi",
          "type": "address"
        }
      ],
      "name": "setQuestionApi",
      "outputs": [],
      "stateMutability": "nonpayable",
      "type": "function"
    },
    {
      "inputs": [
        {
          "internalType": "address",
          "name": "newOwner",
          "type": "address"
        }
      ],
      "name": "transferOwnership",
      "outputs": [],
      "stateMutability": "nonpayable",
      "type": "function"
    }
  ],
  "transactionHash": "0xfc3b36c2b345a007f713a6529285cdc3d1d68e5b992e5ab2ebcafa10185cf76b",
  "args": [],
  "numDeployments": 1,
  "solcInputHash": "23a5c42ffdc6fce9090df76d82673573",
  "bytecode": "0x608060405234801561001057600080fd5b5061002d61002261004660201b60201c565b61004e60201b60201c565b610041600261011260201b610a8f1760201c565b610128565b600033905090565b60008060009054906101000a900473ffffffffffffffffffffffffffffffffffffffff169050816000806101000a81548173ffffffffffffffffffffffffffffffffffffffff021916908373ffffffffffffffffffffffffffffffffffffffff1602179055508173ffffffffffffffffffffffffffffffffffffffff168173ffffffffffffffffffffffffffffffffffffffff167f8be0079c531659141344cd1fd0a4f28419497f9722a3daafe3b4186f6b6457e060405160405180910390a35050565b6001816000016000828254019250508190555050565b611386806101376000396000f3fe608060405234801561001057600080fd5b50600436106100a95760003560e01c806374bedfc91161007157806374bedfc91461016857806377974616146101865780638da5cb5b146101b6578063c0875dfd146101d4578063dab6dbce146101f0578063f2fde38b14610220576100a9565b80630ab30093146100ae57806331b1b978146100de5780636baef49714610110578063710bc3cd1461012e578063715018a61461015e575b600080fd5b6100c860048036038101906100c39190610cc1565b61023c565b6040516100d59190610ec1565b60405180910390f35b6100f860048036038101906100f39190610f0f565b61049b565b60405161010793929190610fa4565b60405180910390f35b61011861056d565b6040516101259190610fe2565b60405180910390f35b61014860048036038101906101439190610f0f565b610593565b6040516101559190610fe2565b60405180910390f35b6101666105d3565b005b61017061065b565b60405161017d9190610ffd565b60405180910390f35b6101a0600480360381019061019b9190611018565b61066c565b6040516101ad9190610ffd565b60405180910390f35b6101be61069d565b6040516101cb9190610fe2565b60405180910390f35b6101ee60048036038101906101e99190610cc1565b6106c6565b005b61020a600480360381019061020591906110bd565b610786565b6040516102179190610ffd565b60405180910390f35b61023a60048036038101906102359190610cc1565b610998565b005b60606000600360008473ffffffffffffffffffffffffffffffffffffffff1673ffffffffffffffffffffffffffffffffffffffff1681526020019081526020016000208054806020026020016040519081016040528092919081815260200182805480156102c957602002820191906000526020600020905b8154815260200190600101908083116102b5575b505050505090506000815167ffffffffffffffff8111156102ed576102ec61111d565b5b60405190808252806020026020018201604052801561032657816020015b610313610b7f565b81526020019060019003908161030b5790505b50905060005b8251811015610490576004600084838151811061034c5761034b61114c565b5b602002602001015181526020019081526020016000206040518060600160405290816000820160009054906101000a900473ffffffffffffffffffffffffffffffffffffffff1673ffffffffffffffffffffffffffffffffffffffff1673ffffffffffffffffffffffffffffffffffffffff168152602001600182015481526020016002820180546103dd906111aa565b80601f0160208091040260200160405190810160405280929190818152602001828054610409906111aa565b80156104565780601f1061042b57610100808354040283529160200191610456565b820191906000526020600020905b81548152906001019060200180831161043957829003601f168201915b5050505050815250508282815181106104725761047161114c565b5b602002602001018190525080806104889061120a565b91505061032c565b508092505050919050565b60046020528060005260406000206000915090508060000160009054906101000a900473ffffffffffffffffffffffffffffffffffffffff16908060010154908060020180546104ea906111aa565b80601f0160208091040260200160405190810160405280929190818152602001828054610516906111aa565b80156105635780601f1061053857610100808354040283529160200191610563565b820191906000526020600020905b81548152906001019060200180831161054657829003601f168201915b5050505050905083565b600160009054906101000a900473ffffffffffffffffffffffffffffffffffffffff1681565b60006004600083815260200190815260200160002060000160009054906101000a900473ffffffffffffffffffffffffffffffffffffffff169050919050565b6105db610aa5565b73ffffffffffffffffffffffffffffffffffffffff166105f961069d565b73ffffffffffffffffffffffffffffffffffffffff161461064f576040517f08c379a00000000000000000000000000000000000000000000000000000000081526004016106469061129e565b60405180910390fd5b6106596000610aad565b565b60006106676002610b71565b905090565b6003602052816000526040600020818154811061068857600080fd5b90600052602060002001600091509150505481565b60008060009054906101000a900473ffffffffffffffffffffffffffffffffffffffff16905090565b6106ce610aa5565b73ffffffffffffffffffffffffffffffffffffffff166106ec61069d565b73ffffffffffffffffffffffffffffffffffffffff1614610742576040517f08c379a00000000000000000000000000000000000000000000000000000000081526004016107399061129e565b60405180910390fd5b80600160006101000a81548173ffffffffffffffffffffffffffffffffffffffff021916908373ffffffffffffffffffffffffffffffffffffffff16021790555050565b6000600160009054906101000a900473ffffffffffffffffffffffffffffffffffffffff1673ffffffffffffffffffffffffffffffffffffffff166107c9610aa5565b73ffffffffffffffffffffffffffffffffffffffff1614610816576040517f92471d5b00000000000000000000000000000000000000000000000000000000815260040160405180910390fd5b60006108226002610b71565b905061082e6002610a8f565b60405180606001604052808673ffffffffffffffffffffffffffffffffffffffff16815260200182815260200185858080601f016020809104026020016040519081016040528093929190818152602001838380828437600081840152601f19601f820116905080830192505050505050508152506004600083815260200190815260200160002060008201518160000160006101000a81548173ffffffffffffffffffffffffffffffffffffffff021916908373ffffffffffffffffffffffffffffffffffffffff160217905550602082015181600101556040820151816002019080519060200190610923929190610bb6565b50905050600360008673ffffffffffffffffffffffffffffffffffffffff1673ffffffffffffffffffffffffffffffffffffffff168152602001908152602001600020819080600181540180825580915050600190039060005260206000200160009091909190915055809150509392505050565b6109a0610aa5565b73ffffffffffffffffffffffffffffffffffffffff166109be61069d565b73ffffffffffffffffffffffffffffffffffffffff1614610a14576040517f08c379a0000000000000000000000000000000000000000000000000000000008152600401610a0b9061129e565b60405180910390fd5b600073ffffffffffffffffffffffffffffffffffffffff168173ffffffffffffffffffffffffffffffffffffffff1603610a83576040517f08c379a0000000000000000000000000000000000000000000000000000000008152600401610a7a90611330565b60405180910390fd5b610a8c81610aad565b50565b6001816000016000828254019250508190555050565b600033905090565b60008060009054906101000a900473ffffffffffffffffffffffffffffffffffffffff169050816000806101000a81548173ffffffffffffffffffffffffffffffffffffffff021916908373ffffffffffffffffffffffffffffffffffffffff1602179055508173ffffffffffffffffffffffffffffffffffffffff168173ffffffffffffffffffffffffffffffffffffffff167f8be0079c531659141344cd1fd0a4f28419497f9722a3daafe3b4186f6b6457e060405160405180910390a35050565b600081600001549050919050565b6040518060600160405280600073ffffffffffffffffffffffffffffffffffffffff16815260200160008152602001606081525090565b828054610bc2906111aa565b90600052602060002090601f016020900481019282610be45760008555610c2b565b82601f10610bfd57805160ff1916838001178555610c2b565b82800160010185558215610c2b579182015b82811115610c2a578251825591602001919060010190610c0f565b5b509050610c389190610c3c565b5090565b5b80821115610c55576000816000905550600101610c3d565b5090565b600080fd5b600080fd5b600073ffffffffffffffffffffffffffffffffffffffff82169050919050565b6000610c8e82610c63565b9050919050565b610c9e81610c83565b8114610ca957600080fd5b50565b600081359050610cbb81610c95565b92915050565b600060208284031215610cd757610cd6610c59565b5b6000610ce584828501610cac565b91505092915050565b600081519050919050565b600082825260208201905092915050565b6000819050602082019050919050565b610d2381610c83565b82525050565b6000819050919050565b610d3c81610d29565b82525050565b600081519050919050565b600082825260208201905092915050565b60005b83811015610d7c578082015181840152602081019050610d61565b83811115610d8b576000848401525b50505050565b6000601f19601f8301169050919050565b6000610dad82610d42565b610db78185610d4d565b9350610dc7818560208601610d5e565b610dd081610d91565b840191505092915050565b6000606083016000830151610df36000860182610d1a565b506020830151610e066020860182610d33565b5060408301518482036040860152610e1e8282610da2565b9150508091505092915050565b6000610e378383610ddb565b905092915050565b6000602082019050919050565b6000610e5782610cee565b610e618185610cf9565b935083602082028501610e7385610d0a565b8060005b85811015610eaf5784840389528151610e908582610e2b565b9450610e9b83610e3f565b925060208a01995050600181019050610e77565b50829750879550505050505092915050565b60006020820190508181036000830152610edb8184610e4c565b905092915050565b610eec81610d29565b8114610ef757600080fd5b50565b600081359050610f0981610ee3565b92915050565b600060208284031215610f2557610f24610c59565b5b6000610f3384828501610efa565b91505092915050565b610f4581610c83565b82525050565b610f5481610d29565b82525050565b600082825260208201905092915050565b6000610f7682610d42565b610f808185610f5a565b9350610f90818560208601610d5e565b610f9981610d91565b840191505092915050565b6000606082019050610fb96000830186610f3c565b610fc66020830185610f4b565b8181036040830152610fd88184610f6b565b9050949350505050565b6000602082019050610ff76000830184610f3c565b92915050565b60006020820190506110126000830184610f4b565b92915050565b6000806040838503121561102f5761102e610c59565b5b600061103d85828601610cac565b925050602061104e85828601610efa565b9150509250929050565b600080fd5b600080fd5b600080fd5b60008083601f84011261107d5761107c611058565b5b8235905067ffffffffffffffff81111561109a5761109961105d565b5b6020830191508360018202830111156110b6576110b5611062565b5b9250929050565b6000806000604084860312156110d6576110d5610c59565b5b60006110e486828701610cac565b935050602084013567ffffffffffffffff81111561110557611104610c5e565b5b61111186828701611067565b92509250509250925092565b7f4e487b7100000000000000000000000000000000000000000000000000000000600052604160045260246000fd5b7f4e487b7100000000000000000000000000000000000000000000000000000000600052603260045260246000fd5b7f4e487b7100000000000000000000000000000000000000000000000000000000600052602260045260246000fd5b600060028204905060018216806111c257607f821691505b6020821081036111d5576111d461117b565b5b50919050565b7f4e487b7100000000000000000000000000000000000000000000000000000000600052601160045260246000fd5b600061121582610d29565b91507fffffffffffffffffffffffffffffffffffffffffffffffffffffffffffffffff8203611247576112466111db565b5b600182019050919050565b7f4f776e61626c653a2063616c6c6572206973206e6f7420746865206f776e6572600082015250565b6000611288602083610f5a565b915061129382611252565b602082019050919050565b600060208201905081810360008301526112b78161127b565b9050919050565b7f4f776e61626c653a206e6577206f776e657220697320746865207a65726f206160008201527f6464726573730000000000000000000000000000000000000000000000000000602082015250565b600061131a602683610f5a565b9150611325826112be565b604082019050919050565b600060208201905081810360008301526113498161130d565b905091905056fea264697066735822122086316ed7520bbe124afdad5e3be064447cef77cd258b6b433b7268646710a69864736f6c634300080d0033",
  "devdoc": {
    "custom:security-contact": "contracts@metricsdao.xyz",
    "kind": "dev",
    "methods": {
      "owner()": {
        "details": "Returns the address of the current owner."
      },
      "renounceOwnership()": {
        "details": "Leaves the contract without owner. It will not be possible to call `onlyOwner` functions anymore. Can only be called by the current owner. NOTE: Renouncing ownership will leave the contract without an owner, thereby removing any functionality that is only available to the owner."
      },
      "setQuestionApi(address)": {
        "params": {
          "_newApi": "The new address of the question API."
        }
      },
      "transferOwnership(address)": {
        "details": "Transfers ownership of the contract to a new account (`newOwner`). Can only be called by the current owner."
      }
    },
    "version": 1
  },
  "userdoc": {
    "kind": "user",
    "methods": {
      "setQuestionApi(address)": {
        "notice": "Sets the address of the question API."
      }
    },
    "version": 1
  },
  "storageLayout": {
    "storage": [
      {
        "astId": 7,
        "contract": "src/contracts/Protocol/BountyQuestion.sol:BountyQuestion",
        "label": "_owner",
        "offset": 0,
        "slot": "0",
        "type": "t_address"
      },
      {
        "astId": 5494,
        "contract": "src/contracts/Protocol/BountyQuestion.sol:BountyQuestion",
        "label": "questionApi",
        "offset": 0,
        "slot": "1",
        "type": "t_address"
      },
      {
        "astId": 3373,
        "contract": "src/contracts/Protocol/BountyQuestion.sol:BountyQuestion",
        "label": "_questionIdCounter",
        "offset": 0,
        "slot": "2",
        "type": "t_struct(Counter)2501_storage"
      },
      {
        "astId": 3378,
        "contract": "src/contracts/Protocol/BountyQuestion.sol:BountyQuestion",
        "label": "authors",
        "offset": 0,
        "slot": "3",
        "type": "t_mapping(t_address,t_array(t_uint256)dyn_storage)"
      },
      {
        "astId": 3383,
        "contract": "src/contracts/Protocol/BountyQuestion.sol:BountyQuestion",
        "label": "questions",
        "offset": 0,
        "slot": "4",
        "type": "t_mapping(t_uint256,t_struct(QuestionData)3521_storage)"
      }
    ],
    "types": {
      "t_address": {
        "encoding": "inplace",
        "label": "address",
        "numberOfBytes": "20"
      },
      "t_array(t_uint256)dyn_storage": {
        "base": "t_uint256",
        "encoding": "dynamic_array",
        "label": "uint256[]",
        "numberOfBytes": "32"
      },
      "t_mapping(t_address,t_array(t_uint256)dyn_storage)": {
        "encoding": "mapping",
        "key": "t_address",
        "label": "mapping(address => uint256[])",
        "numberOfBytes": "32",
        "value": "t_array(t_uint256)dyn_storage"
      },
      "t_mapping(t_uint256,t_struct(QuestionData)3521_storage)": {
        "encoding": "mapping",
        "key": "t_uint256",
        "label": "mapping(uint256 => struct BountyQuestion.QuestionData)",
        "numberOfBytes": "32",
        "value": "t_struct(QuestionData)3521_storage"
      },
      "t_string_storage": {
        "encoding": "bytes",
        "label": "string",
        "numberOfBytes": "32"
      },
      "t_struct(Counter)2501_storage": {
        "encoding": "inplace",
        "label": "struct Counters.Counter",
        "members": [
          {
            "astId": 2500,
            "contract": "src/contracts/Protocol/BountyQuestion.sol:BountyQuestion",
            "label": "_value",
            "offset": 0,
            "slot": "0",
            "type": "t_uint256"
          }
        ],
        "numberOfBytes": "32"
      },
      "t_struct(QuestionData)3521_storage": {
        "encoding": "inplace",
        "label": "struct BountyQuestion.QuestionData",
        "members": [
          {
            "astId": 3516,
            "contract": "src/contracts/Protocol/BountyQuestion.sol:BountyQuestion",
            "label": "author",
            "offset": 0,
            "slot": "0",
            "type": "t_address"
          },
          {
            "astId": 3518,
            "contract": "src/contracts/Protocol/BountyQuestion.sol:BountyQuestion",
            "label": "tokenId",
            "offset": 0,
            "slot": "1",
            "type": "t_uint256"
          },
          {
            "astId": 3520,
            "contract": "src/contracts/Protocol/BountyQuestion.sol:BountyQuestion",
            "label": "url",
            "offset": 0,
            "slot": "2",
            "type": "t_string_storage"
          }
        ],
        "numberOfBytes": "96"
      },
      "t_uint256": {
        "encoding": "inplace",
        "label": "uint256",
        "numberOfBytes": "32"
      }
    }
  }
}